{
  "address": "0xe7f1725E7734CE288F8367e1Bb143E90bb3F0512",
  "abi": [
    {
      "inputs": [
        {
          "internalType": "address payable",
          "name": "_master",
          "type": "address"
        }
      ],
      "stateMutability": "nonpayable",
      "type": "constructor"
    },
    {
      "anonymous": false,
      "inputs": [
        {
          "indexed": false,
          "internalType": "address",
          "name": "creator",
          "type": "address"
        },
        {
          "indexed": false,
          "internalType": "address",
          "name": "newCampaign",
          "type": "address"
        },
        {
          "indexed": false,
          "internalType": "bytes32",
          "name": "_rulesetUri",
          "type": "bytes32"
        },
        {
          "indexed": false,
          "internalType": "address",
          "name": "_admin",
          "type": "address"
        },
        {
          "indexed": false,
          "internalType": "address",
          "name": "_oracle",
          "type": "address"
        },
        {
          "indexed": false,
          "internalType": "uint256",
          "name": "activationTime",
          "type": "uint256"
        },
        {
          "indexed": false,
          "internalType": "bytes32",
          "name": "salt",
          "type": "bytes32"
        }
      ],
      "name": "CampaignCreated",
      "type": "event"
    },
    {
      "inputs": [
        {
          "internalType": "bytes32",
          "name": "salt",
          "type": "bytes32"
        }
      ],
      "name": "campaignAddress",
      "outputs": [
        {
          "internalType": "address",
          "name": "",
          "type": "address"
        }
      ],
      "stateMutability": "view",
      "type": "function"
    },
    {
      "inputs": [
        {
          "internalType": "bytes32",
          "name": "_rewardRulesetUri",
          "type": "bytes32"
        },
        {
          "internalType": "bytes32",
          "name": "_merkleRoot",
          "type": "bytes32"
        },
        {
          "internalType": "bytes32",
          "name": "_sharesUri",
          "type": "bytes32"
        },
        {
          "internalType": "address",
          "name": "_admin",
          "type": "address"
        },
        {
          "internalType": "address",
          "name": "_oracle",
          "type": "address"
        },
        {
          "internalType": "uint256",
          "name": "_activationTime",
          "type": "uint256"
        },
        {
          "internalType": "uint256",
          "name": "_CHALLENGE_PERIOD",
          "type": "uint256"
        },
        {
          "internalType": "uint256",
          "name": "_ACTIVATION_PERIOD",
          "type": "uint256"
        },
        {
          "internalType": "uint256",
          "name": "_ACTIVE_DURATION",
          "type": "uint256"
        },
        {
          "internalType": "bytes32",
          "name": "salt",
          "type": "bytes32"
        }
      ],
      "name": "createAndPublishCampaign",
      "outputs": [],
      "stateMutability": "nonpayable",
      "type": "function"
    },
    {
      "inputs": [
        {
          "internalType": "bytes32",
          "name": "_rulesetUri",
          "type": "bytes32"
        },
        {
          "internalType": "address",
          "name": "_admin",
          "type": "address"
        },
        {
          "internalType": "address",
          "name": "_oracle",
          "type": "address"
        },
        {
          "internalType": "uint256",
          "name": "_activationTime",
          "type": "uint256"
        },
        {
          "internalType": "uint256",
          "name": "_CHALLENGE_PERIOD",
          "type": "uint256"
        },
        {
          "internalType": "uint256",
          "name": "_ACTIVATION_PERIOD",
          "type": "uint256"
        },
        {
          "internalType": "uint256",
          "name": "_ACTIVE_DURATION",
          "type": "uint256"
        },
        {
          "internalType": "bytes32",
          "name": "salt",
          "type": "bytes32"
        }
      ],
      "name": "createCampaign",
      "outputs": [
        {
          "internalType": "address payable",
          "name": "proxy",
          "type": "address"
        }
      ],
      "stateMutability": "nonpayable",
      "type": "function"
    }
  ],
  "transactionHash": "0xde5c62aef09fa01873f46e559d17813e0a03bb0537167985b41f22e8f47480d0",
  "args": [
    "0x5FbDB2315678afecb367f032d93F642f64180aa3"
  ],
  "numDeployments": 1,
  "solcInputHash": "c48b08ae6c3b549b2db56a77548b2c68",
  "bytecode": "0x608060405234801561001057600080fd5b506040516105ec3803806105ec83398101604081905261002f91610054565b600080546001600160a01b0319166001600160a01b0392909216919091179055610084565b60006020828403121561006657600080fd5b81516001600160a01b038116811461007d57600080fd5b9392505050565b610559806100936000396000f3fe608060405234801561001057600080fd5b50600436106100415760003560e01c80635357af3b146100465780636e1a1fac1461005b578063a8e0bb661461008a575b600080fd5b610059610054366004610489565b61009d565b005b61006e610069366004610402565b6101bd565b6040516001600160a01b03909116815260200160405180910390f35b61006e61009836600461041b565b610229565b6040516354705db360e11b8152600481018b90526001600160a01b03808916602483015287166044820152606481018690526084810185905260a4810184905260c4810183905260e48101829052600090309063a8e0bb669061010401602060405180830381600087803b15801561011457600080fd5b505af1158015610128573d6000803e3d6000fd5b505050506040513d601f19601f8201168201806040525081019061014c91906103de565b604051630bdce82f60e11b8152600481018c9052602481018b90529091506001600160a01b038216906317b9d05e90604401600060405180830381600087803b15801561019857600080fd5b505af11580156101ac573d6000803e3d6000fd5b505050505050505050505050505050565b600080546040513060388201526f5af43d82803e903d91602b57fd5bf3ff60248201526001600160a01b039091166014820152733d602d80600a3d3981f3363d3d373d3d3d363d738152605881018390526037600c820120607882015260556043909101205b92915050565b60008054610240906001600160a01b03168361033d565b6040516354c565a360e11b8152600481018b90526001600160a01b038a811660248301528981166044830152606482018990526084820188905260a4820187905260c482018690529192509082169063a98acb469060e401600060405180830381600087803b1580156102b257600080fd5b505af11580156102c6573d6000803e3d6000fd5b5050604080513381526001600160a01b0385811660208301528183018e90528c811660608301528b16608082015260a081018a905260c0810186905290517f5e2acb8aee19e83f63206e8fd625b2113a58e47d6986e1e5514d514f8e19411093509081900360e0019150a198975050505050505050565b6000763d602d80600a3d3981f3363d3d373d3d3d363d730000008360601b60e81c176000526e5af43d82803e903d91602b57fd5bf38360781b1760205281603760096000f590506001600160a01b0381166102235760405162461bcd60e51b815260206004820152601760248201527f455243313136373a2063726561746532206661696c6564000000000000000000604482015260640160405180910390fd5b6000602082840312156103f057600080fd5b81516103fb8161050b565b9392505050565b60006020828403121561041457600080fd5b5035919050565b600080600080600080600080610100898b03121561043857600080fd5b88359750602089013561044a8161050b565b9650604089013561045a8161050b565b979a96995096976060810135975060808101359660a0820135965060c0820135955060e0909101359350915050565b6000806000806000806000806000806101408b8d0312156104a957600080fd5b8a35995060208b0135985060408b0135975060608b01356104c98161050b565b965060808b01356104d98161050b565b999c989b50969995989760a0870135975060c08701359660e08101359650610100810135955061012001359350915050565b6001600160a01b038116811461052057600080fd5b5056fea2646970667358221220579f27d07a83f92563eae43f30e5e60e3ffbbafb45c371bc8518e2f77376069d64736f6c63430008060033",
  "devdoc": {
    "kind": "dev",
    "methods": {},
    "version": 1
  },
  "userdoc": {
    "kind": "user",
    "methods": {},
    "version": 1
  },
  "storageLayout": {
    "storage": [
      {
        "astId": 2487,
        "contract": "contracts/CampaignFactory.sol:CampaignFactory",
        "label": "master",
        "offset": 0,
        "slot": "0",
        "type": "t_contract(Campaign)2479"
      }
    ],
    "types": {
      "t_contract(Campaign)2479": {
        "encoding": "inplace",
        "label": "contract Campaign",
        "numberOfBytes": "20"
      }
    }
  }
}