{
  "_format": "hh-sol-artifact-1",
  "contractName": "Campaign",
  "sourceName": "contracts/Campaign.sol",
  "abi": [
    {
      "inputs": [
        {
          "internalType": "uint256",
          "name": "blockTime",
          "type": "uint256"
        }
      ],
      "name": "ChallengePeriodActive",
      "type": "error"
    },
    {
      "inputs": [],
      "name": "InvalidProof",
      "type": "error"
    },
    {
      "inputs": [],
      "name": "NoAssetsToWithdraw",
      "type": "error"
    },
    {
      "inputs": [],
      "name": "NoRewardAvailable",
      "type": "error"
    },
    {
      "inputs": [],
      "name": "NotIfCampaignCancelled",
      "type": "error"
    },
    {
      "inputs": [],
      "name": "NotIfCampaignLocked",
      "type": "error"
    },
    {
      "inputs": [],
      "name": "OnlyAdmin",
      "type": "error"
    },
    {
      "inputs": [
        {
          "internalType": "uint256",
          "name": "blockTime",
          "type": "uint256"
        }
      ],
      "name": "OnlyInChallengePeriod",
      "type": "error"
    },
    {
      "inputs": [],
      "name": "OnlyOracle",
      "type": "error"
    },
    {
      "inputs": [
        {
          "internalType": "uint256",
          "name": "blockTime",
          "type": "uint256"
        }
      ],
      "name": "ProposeWindowNotActive",
      "type": "error"
    },
    {
      "inputs": [],
      "name": "WithdrawalNotAllowed",
      "type": "error"
    },
    {
      "anonymous": false,
      "inputs": [],
      "name": "AdminTransfer",
      "type": "event"
    },
    {
      "anonymous": false,
      "inputs": [],
      "name": "CampaignCancelled",
      "type": "event"
    },
    {
      "anonymous": false,
      "inputs": [],
      "name": "Challenge",
      "type": "event"
    },
    {
      "anonymous": false,
      "inputs": [
        {
          "indexed": true,
          "internalType": "address",
          "name": "account",
          "type": "address"
        },
        {
          "indexed": false,
          "internalType": "uint256",
          "name": "share",
          "type": "uint256"
        },
        {
          "indexed": false,
          "internalType": "uint256",
          "name": "reward",
          "type": "uint256"
        },
        {
          "indexed": false,
          "internalType": "address",
          "name": "assset",
          "type": "address"
        }
      ],
      "name": "Claim",
      "type": "event"
    },
    {
      "anonymous": false,
      "inputs": [
        {
          "indexed": true,
          "internalType": "address",
          "name": "provider",
          "type": "address"
        },
        {
          "indexed": false,
          "internalType": "uint256",
          "name": "amount",
          "type": "uint256"
        },
        {
          "indexed": false,
          "internalType": "address",
          "name": "asset",
          "type": "address"
        }
      ],
      "name": "Fund",
      "type": "event"
    },
    {
      "anonymous": false,
      "inputs": [
        {
          "indexed": false,
          "internalType": "uint8",
          "name": "version",
          "type": "uint8"
        }
      ],
      "name": "Initialized",
      "type": "event"
    },
    {
      "anonymous": false,
      "inputs": [
        {
          "indexed": false,
          "internalType": "bool",
          "name": "locked",
          "type": "bool"
        }
      ],
      "name": "SharesLock",
      "type": "event"
    },
    {
      "anonymous": false,
      "inputs": [
        {
          "indexed": false,
          "internalType": "bytes32",
          "name": "sharesMerkleRoot",
          "type": "bytes32"
        },
        {
          "indexed": false,
          "internalType": "bytes32",
          "name": "sharesUri",
          "type": "bytes32"
        },
        {
          "indexed": false,
          "internalType": "uint256",
          "name": "activationTime",
          "type": "uint256"
        }
      ],
      "name": "SharesMerkleRootUpdate",
      "type": "event"
    },
    {
      "anonymous": false,
      "inputs": [
        {
          "indexed": true,
          "internalType": "address",
          "name": "account",
          "type": "address"
        },
        {
          "indexed": false,
          "internalType": "uint256",
          "name": "amount",
          "type": "uint256"
        },
        {
          "indexed": false,
          "internalType": "address",
          "name": "asset",
          "type": "address"
        }
      ],
      "name": "Withdraw",
      "type": "event"
    },
    {
      "inputs": [],
      "name": "ACTIVATION_PERIOD",
      "outputs": [
        {
          "internalType": "uint256",
          "name": "",
          "type": "uint256"
        }
      ],
      "stateMutability": "view",
      "type": "function"
    },
    {
      "inputs": [],
      "name": "ACTIVE_DURATION",
      "outputs": [
        {
          "internalType": "uint256",
          "name": "",
          "type": "uint256"
        }
      ],
      "stateMutability": "view",
      "type": "function"
    },
    {
      "inputs": [],
      "name": "CHALLENGE_PERIOD",
      "outputs": [
        {
          "internalType": "uint256",
          "name": "",
          "type": "uint256"
        }
      ],
      "stateMutability": "view",
      "type": "function"
    },
    {
      "inputs": [],
      "name": "TOTAL_SHARES",
      "outputs": [
        {
          "internalType": "uint256",
          "name": "",
          "type": "uint256"
        }
      ],
      "stateMutability": "view",
      "type": "function"
    },
    {
      "inputs": [],
      "name": "activationTime",
      "outputs": [
        {
          "internalType": "uint256",
          "name": "",
          "type": "uint256"
        }
      ],
      "stateMutability": "view",
      "type": "function"
    },
    {
      "inputs": [],
      "name": "admin",
      "outputs": [
        {
          "internalType": "address",
          "name": "",
          "type": "address"
        }
      ],
      "stateMutability": "view",
      "type": "function"
    },
    {
      "inputs": [],
      "name": "approvedMerkleRoot",
      "outputs": [
        {
          "internalType": "bytes32",
          "name": "",
          "type": "bytes32"
        }
      ],
      "stateMutability": "view",
      "type": "function"
    },
    {
      "inputs": [
        {
          "internalType": "address",
          "name": "asset",
          "type": "address"
        }
      ],
      "name": "balanceOfAsset",
      "outputs": [
        {
          "internalType": "uint256",
          "name": "",
          "type": "uint256"
        }
      ],
      "stateMutability": "view",
      "type": "function"
    },
    {
      "inputs": [],
      "name": "campaignCancelled",
      "outputs": [
        {
          "internalType": "bool",
          "name": "",
          "type": "bool"
        }
      ],
      "stateMutability": "view",
      "type": "function"
    },
    {
      "inputs": [],
      "name": "cancelCampaign",
      "outputs": [],
      "stateMutability": "nonpayable",
      "type": "function"
    },
    {
      "inputs": [],
      "name": "challenge",
      "outputs": [],
      "stateMutability": "nonpayable",
      "type": "function"
    },
    {
      "inputs": [
        {
          "internalType": "uint256",
          "name": "blockTimestamp",
          "type": "uint256"
        }
      ],
      "name": "checkMerkleRootUpdateAllowed",
      "outputs": [],
      "stateMutability": "view",
      "type": "function"
    },
    {
      "inputs": [
        {
          "internalType": "address",
          "name": "account",
          "type": "address"
        },
        {
          "internalType": "uint256",
          "name": "share",
          "type": "uint256"
        },
        {
          "internalType": "bytes32[]",
          "name": "proof",
          "type": "bytes32[]"
        },
        {
          "internalType": "address[]",
          "name": "assets",
          "type": "address[]"
        },
        {
          "internalType": "address",
          "name": "target",
          "type": "address"
        }
      ],
      "name": "claim",
      "outputs": [],
      "stateMutability": "nonpayable",
      "type": "function"
    },
    {
      "inputs": [
        {
          "internalType": "address",
          "name": "",
          "type": "address"
        },
        {
          "internalType": "address",
          "name": "",
          "type": "address"
        }
      ],
      "name": "claimed",
      "outputs": [
        {
          "internalType": "uint256",
          "name": "",
          "type": "uint256"
        }
      ],
      "stateMutability": "view",
      "type": "function"
    },
    {
      "inputs": [],
      "name": "deployTime",
      "outputs": [
        {
          "internalType": "uint256",
          "name": "",
          "type": "uint256"
        }
      ],
      "stateMutability": "view",
      "type": "function"
    },
    {
      "inputs": [
        {
          "internalType": "address",
          "name": "asset",
          "type": "address"
        },
        {
          "internalType": "uint256",
          "name": "amount",
          "type": "uint256"
        }
      ],
      "name": "fund",
      "outputs": [],
      "stateMutability": "payable",
      "type": "function"
    },
    {
      "inputs": [
        {
          "internalType": "uint256",
          "name": "blockTimestamp",
          "type": "uint256"
        }
      ],
      "name": "getValidRoot",
      "outputs": [
        {
          "internalType": "bytes32",
          "name": "root",
          "type": "bytes32"
        }
      ],
      "stateMutability": "view",
      "type": "function"
    },
    {
      "inputs": [
        {
          "internalType": "bytes32",
          "name": "_rewardRulesetUri",
          "type": "bytes32"
        },
        {
          "internalType": "address",
          "name": "_admin",
          "type": "address"
        },
        {
          "internalType": "address",
          "name": "_oracle",
          "type": "address"
        },
        {
          "internalType": "uint256",
          "name": "_activationTime",
          "type": "uint256"
        },
        {
          "internalType": "uint256",
          "name": "_CHALLENGE_PERIOD",
          "type": "uint256"
        },
        {
          "internalType": "uint256",
          "name": "_ACTIVATION_PERIOD",
          "type": "uint256"
        },
        {
          "internalType": "uint256",
          "name": "_ACTIVE_DURATION",
          "type": "uint256"
        }
      ],
      "name": "initCampaign",
      "outputs": [],
      "stateMutability": "nonpayable",
      "type": "function"
    },
    {
      "inputs": [
        {
          "internalType": "uint256",
          "name": "blockTimestamp",
          "type": "uint256"
        }
      ],
      "name": "isChallengePeriod",
      "outputs": [
        {
          "internalType": "bool",
          "name": "",
          "type": "bool"
        }
      ],
      "stateMutability": "view",
      "type": "function"
    },
    {
      "inputs": [
        {
          "internalType": "uint256",
          "name": "blockTimestamp",
          "type": "uint256"
        }
      ],
      "name": "isPendingActive",
      "outputs": [
        {
          "internalType": "bool",
          "name": "isActive",
          "type": "bool"
        }
      ],
      "stateMutability": "view",
      "type": "function"
    },
    {
      "inputs": [
        {
          "internalType": "uint256",
          "name": "blockTimestamp",
          "type": "uint256"
        }
      ],
      "name": "isProposeWindowActive",
      "outputs": [
        {
          "internalType": "bool",
          "name": "",
          "type": "bool"
        }
      ],
      "stateMutability": "view",
      "type": "function"
    },
    {
      "inputs": [],
      "name": "oracle",
      "outputs": [
        {
          "internalType": "address",
          "name": "",
          "type": "address"
        }
      ],
      "stateMutability": "view",
      "type": "function"
    },
    {
      "inputs": [],
      "name": "pendingMerkleRoot",
      "outputs": [
        {
          "internalType": "bytes32",
          "name": "",
          "type": "bytes32"
        }
      ],
      "stateMutability": "view",
      "type": "function"
    },
    {
      "inputs": [
        {
          "internalType": "bytes32",
          "name": "_sharesMerkleRoot",
          "type": "bytes32"
        },
        {
          "internalType": "bytes32",
          "name": "_sharesUri",
          "type": "bytes32"
        }
      ],
      "name": "proposeShares",
      "outputs": [],
      "stateMutability": "nonpayable",
      "type": "function"
    },
    {
      "inputs": [
        {
          "internalType": "address",
          "name": "",
          "type": "address"
        },
        {
          "internalType": "address",
          "name": "",
          "type": "address"
        }
      ],
      "name": "providers",
      "outputs": [
        {
          "internalType": "uint256",
          "name": "",
          "type": "uint256"
        }
      ],
      "stateMutability": "view",
      "type": "function"
    },
    {
      "inputs": [],
      "name": "rewardRulesetUri",
      "outputs": [
        {
          "internalType": "bytes32",
          "name": "",
          "type": "bytes32"
        }
      ],
      "stateMutability": "view",
      "type": "function"
    },
    {
      "inputs": [
        {
          "internalType": "address",
          "name": "account",
          "type": "address"
        },
        {
          "internalType": "uint256",
          "name": "share",
          "type": "uint256"
        },
        {
          "internalType": "address",
          "name": "asset",
          "type": "address"
        }
      ],
      "name": "rewardsAvailableToClaimer",
      "outputs": [
        {
          "internalType": "uint256",
          "name": "total",
          "type": "uint256"
        }
      ],
      "stateMutability": "view",
      "type": "function"
    },
    {
      "inputs": [
        {
          "internalType": "bool",
          "name": "_lock",
          "type": "bool"
        }
      ],
      "name": "setSharesLock",
      "outputs": [],
      "stateMutability": "nonpayable",
      "type": "function"
    },
    {
      "inputs": [],
      "name": "sharesLocked",
      "outputs": [
        {
          "internalType": "bool",
          "name": "",
          "type": "bool"
        }
      ],
      "stateMutability": "view",
      "type": "function"
    },
    {
      "inputs": [
        {
          "internalType": "address",
          "name": "",
          "type": "address"
        }
      ],
      "name": "totalClaimed",
      "outputs": [
        {
          "internalType": "uint256",
          "name": "",
          "type": "uint256"
        }
      ],
      "stateMutability": "view",
      "type": "function"
    },
    {
      "inputs": [
        {
          "internalType": "address",
          "name": "",
          "type": "address"
        }
      ],
      "name": "totalProvided",
      "outputs": [
        {
          "internalType": "uint256",
          "name": "",
          "type": "uint256"
        }
      ],
      "stateMutability": "view",
      "type": "function"
    },
    {
      "inputs": [
        {
          "internalType": "address",
          "name": "asset",
          "type": "address"
        }
      ],
      "name": "totalReceived",
      "outputs": [
        {
          "internalType": "uint256",
          "name": "total",
          "type": "uint256"
        }
      ],
      "stateMutability": "view",
      "type": "function"
    },
    {
      "inputs": [
        {
          "internalType": "address",
          "name": "newAdmin",
          "type": "address"
        }
      ],
      "name": "transferAdminRole",
      "outputs": [],
      "stateMutability": "nonpayable",
      "type": "function"
    },
    {
      "inputs": [
        {
          "internalType": "address",
          "name": "account",
          "type": "address"
        },
        {
          "internalType": "uint256",
          "name": "share",
          "type": "uint256"
        },
        {
          "internalType": "bytes32[]",
          "name": "proof",
          "type": "bytes32[]"
        },
        {
          "internalType": "uint256",
          "name": "blockTimestamp",
          "type": "uint256"
        }
      ],
      "name": "verifyShares",
      "outputs": [],
      "stateMutability": "view",
      "type": "function"
    },
    {
      "inputs": [
        {
          "internalType": "address",
          "name": "account",
          "type": "address"
        },
        {
          "internalType": "address",
          "name": "asset",
          "type": "address"
        }
      ],
      "name": "withdrawAssets",
      "outputs": [],
      "stateMutability": "nonpayable",
      "type": "function"
    },
    {
      "stateMutability": "payable",
      "type": "receive"
    }
  ],
  "bytecode": "0x608060405234801561001057600080fd5b5060018055611afb806100246000396000f3fe6080604052600436106102075760003560e01c80638abb5d2211610118578063c24e4778116100a0578063da4493f61161006f578063da4493f61461060e578063ef5d9ae814610624578063f27665c814610651578063f851a44014610671578063fcefcf241461069157600080fd5b8063c24e4778146105a3578063c3a079ed146105c3578063ce4e317d146105d9578063d2ef7398146105f957600080fd5b8063a98acb46116100e7578063a98acb461461050d578063a9ec3a1b1461052d578063ada8f91914610543578063be8b768614610563578063c1d899411461058357600080fd5b80638abb5d22146104ac5780639637f475146104cc578063977aa88b146104e2578063980e7844146104f857600080fd5b80634df9cfb31161019b5780637a40624b1161016a5780637a40624b146104155780637b1837de1461042b5780637cc0cdf21461043e5780637dc0d1d01461045857806385e3f9971461049057600080fd5b80634df9cfb314610396578063531e050d146103b657806363a5b88d146103d6578063795465f5146103f557600080fd5b806317b9d05e116101d757806317b9d05e146102fb57806327ce11cb1461031b5780633e1619401461034857806340bcf7481461035e57600080fd5b80627c4d511461024857806302b5c22e14610271578063096cba6a146102a35780630c9cbf0e146102c357600080fd5b3661024357600e54610100900460ff16156102355760405163a99e45dd60e01b815260040160405180910390fd5b610241346000336106b1565b005b600080fd5b34801561025457600080fd5b5061025e60045481565b6040519081526020015b60405180910390f35b34801561027d57600080fd5b5061029361028c3660046118e0565b6007541190565b6040519015158152602001610268565b3480156102af57600080fd5b506102416102be3660046117c1565b610788565b3480156102cf57600080fd5b5061025e6102de36600461168d565b600d60209081526000928352604080842090915290825290205481565b34801561030757600080fd5b506102416103163660046118be565b61083d565b34801561032757600080fd5b5061025e610336366004611672565b60106020526000908152604090205481565b34801561035457600080fd5b5061025e60035481565b34801561036a57600080fd5b5061025e61037936600461168d565b600f60209081526000928352604080842090915290825290205481565b3480156103a257600080fd5b5061025e6103b1366004611672565b61091e565b3480156103c257600080fd5b506102416103d1366004611823565b610950565b3480156103e257600080fd5b50600e5461029390610100900460ff1681565b34801561040157600080fd5b506102416104103660046118e0565b6109c2565b34801561042157600080fd5b5061025e60085481565b6102416104393660046116c0565b610a1f565b34801561044a57600080fd5b50600e546102939060ff1681565b34801561046457600080fd5b50600b54610478906001600160a01b031681565b6040516001600160a01b039091168152602001610268565b34801561049c57600080fd5b5061025e670de0b6b3a764000081565b3480156104b857600080fd5b506102416104c7366004611726565b610aa1565b3480156104d857600080fd5b5061025e60065481565b3480156104ee57600080fd5b5061025e60095481565b34801561050457600080fd5b50610241610b63565b34801561051957600080fd5b5061024161052836600461185d565b610bc8565b34801561053957600080fd5b5061025e60055481565b34801561054f57600080fd5b5061024161055e366004611672565b610d30565b34801561056f57600080fd5b5061025e61057e3660046116ea565b610da2565b34801561058f57600080fd5b5061025e61059e366004611672565b610e05565b3480156105af57600080fd5b506102416105be36600461168d565b610e99565b3480156105cf57600080fd5b5061025e60025481565b3480156105e557600080fd5b506102936105f43660046118e0565b610fd8565b34801561060557600080fd5b50610241610fef565b34801561061a57600080fd5b5061025e60075481565b34801561063057600080fd5b5061025e61063f366004611672565b600c6020526000908152604090205481565b34801561065d57600080fd5b5061025e61066c3660046118e0565b611074565b34801561067d57600080fd5b50600a54610478906001600160a01b031681565b34801561069d57600080fd5b506102936106ac3660046118e0565b611093565b6001600160a01b038083166000908152600f60209081526040808320938516835292905290812080548592906106e8908490611998565b90915550506001600160a01b03821660009081526010602052604081208054859290610715908490611998565b90915550506001600160a01b0382161561073e5761073e6001600160a01b0383168230866110ba565b604080518481526001600160a01b0384811660208301528316917fa5e8482b3a4fbac393476288e591dd9316d7304a537b26f9b67167f0ce19750f910160405180910390a2505050565b600061079382611074565b6040516bffffffffffffffffffffffff19606089901b1660208201526034810187905290915060009060540160405160208183030381529060405280519060200120905061081785858080602002602001604051908101604052809392919081815260200183836020028082843760009201919091525086925085915061112b9050565b610834576040516309bde33960e01b815260040160405180910390fd5b50505050505050565b600b546001600160a01b03163314610868576040516380fee10560e01b815260040160405180910390fd5b600e5460ff161561088c57604051634c167e3b60e01b815260040160405180910390fd5b600e54610100900460ff16156108b55760405163a99e45dd60e01b815260040160405180910390fd5b6108be426109c2565b600680546005558290556002546108d59042611998565b6007819055604080518481526020810184905280820192909252517f93d244ac7b8f4282b061b1dcb3f543f36f06af40a7bfdefe04fc913ef7ea54f99181900360600190a15050565b6001600160a01b0381166000908152600c602052604081205461094083610e05565b61094a9190611998565b92915050565b600a546001600160a01b0316331461097b57604051634755657960e01b815260040160405180910390fd5b600e805460ff19168215159081179091556040519081527f161c6403efb8e4c55a592ebbe46f13ba803dd00cb970b735606b6518eb5475ff9060200160405180910390a150565b6109cd816007541190565b156109f35760405163ddc07f7160e01b8152600481018290526024015b60405180910390fd5b6109fc81611093565b610a1c576040516303ab46c160e11b8152600481018290526024016109ea565b50565b60026001541415610a425760405162461bcd60e51b81526004016109ea90611961565b6002600155600e54610100900460ff1615610a705760405163a99e45dd60e01b815260040160405180910390fd5b6001600160a01b038216610a8e57610a893483336106b1565b610a99565b610a998183336106b1565b505060018055565b60026001541415610ac45760405162461bcd60e51b81526004016109ea90611961565b6002600155600e54610100900460ff1615610af25760405163a99e45dd60e01b815260040160405180910390fd5b610aff8787878742610788565b60005b60ff8116831115610b5557610b43888886868560ff16818110610b2757610b27611aa1565b9050602002016020810190610b3c9190611672565b3386611141565b80610b4d81611a41565b915050610b02565b505060018055505050505050565b600a546001600160a01b03163314610b8e57604051634755657960e01b815260040160405180910390fd5b600e805461ff0019166101001790556040517f123d4f203b2b83bfe9f45903402bb88193cc56a43371d97ab5a51bd1817d858690600090a1565b600054610100900460ff1615808015610be85750600054600160ff909116105b80610c025750303b158015610c02575060005460ff166001145b610c655760405162461bcd60e51b815260206004820152602e60248201527f496e697469616c697a61626c653a20636f6e747261637420697320616c72656160448201526d191e481a5b9a5d1a585b1a5e995960921b60648201526084016109ea565b6000805460ff191660011790558015610c88576000805461ff0019166101001790555b6009889055600a80546001600160a01b03808a166001600160a01b031992831617909255600b80549289169290911691909117905584610cc85742610cca565b845b600755426008556002849055600383905560048290558015610d26576000805461ff0019169055604051600181527f7f26b83ff96e1f2b6a682f133852f6798a09c465da95921460cefb38474024989060200160405180910390a15b5050505050505050565b600a546001600160a01b03163314610d5b57604051634755657960e01b815260040160405180910390fd5b600a80546001600160a01b0319166001600160a01b0383161790556040517f86111e0a132b5277d510cdd314ee7e9dec0b468abfdfb76bc4eea73db5089d5990600090a150565b6001600160a01b038082166000908152600d60209081526040808320938716835292905290812054670de0b6b3a764000084610ddd8561091e565b610de791906119c4565b610df191906119b0565b610dfb91906119e3565b90505b9392505050565b60006001600160a01b03821615610e92576040516370a0823160e01b81523060048201526001600160a01b038316906370a082319060240160206040518083038186803b158015610e5557600080fd5b505afa158015610e69573d6000803e3d6000fd5b505050506040513d601f19601f82011682018060405250810190610e8d91906118f9565b61094a565b4792915050565b60026001541415610ebc5760405162461bcd60e51b81526004016109ea90611961565b6002600155600e54610100900460ff1615610fbf576001600160a01b03808216600090815260106020908152604080832054600f8352818420948716845293909152812054909190610f0d84610e05565b610f1791906119c4565b610f2191906119b0565b905080610f4157604051635da3252f60e11b815260040160405180910390fd5b6001600160a01b038083166000908152600f60209081526040808320938716835292905290812055610f74838284611254565b604080518281526001600160a01b0384811660208301528516917f56c54ba9bd38d8fd62012e42c7ee564519b09763c426d331b3661b537ead19b2910160405180910390a250610a99565b60405163209a769d60e11b815260040160405180910390fd5b6006546000901580159061094a5750506007541090565b600a546001600160a01b0316331461101a57604051634755657960e01b815260040160405180910390fd5b611025426007541190565b61104457604051633e71b1bf60e11b81524260048201526024016109ea565b600060068190556040517fa0f4a9a971d0d41496054a6616f175690f8b322091fcd26dc9e81fc96d4124849190a1565b600061107f82610fd8565b61108b5760055461094a565b505060065490565b6000600454600354600854846110a991906119e3565b6110b39190611a61565b1092915050565b6040516001600160a01b03808516602483015283166044820152606481018290526111259085906323b872dd60e01b906084015b60408051601f198184030181529190526020810180516001600160e01b03166001600160e01b031990931692909217909152611316565b50505050565b60008261113885846113e8565b14949350505050565b600061114e868686610da2565b6001600160a01b038086166000908152600d60209081526040808320938b1683529290529081208054929350839290919061118a908490611998565b90915550506001600160a01b0384166000908152600c6020526040812080548392906111b7908490611998565b90915550506001600160a01b038381169087161480156111df57506001600160a01b03821615155b156111f4576111ef828286611254565b6111ff565b6111ff868286611254565b60408051868152602081018390526001600160a01b03868116828401529151918816917fb6fe5ce185a3773d47e919f57c7edfd102c91cb7833b2be405c4de89d9980fd79181900360600190a2505050505050565b6001600160a01b0381166112fd576000836001600160a01b03168360405160006040518083038185875af1925050503d80600081146112af576040519150601f19603f3d011682016040523d82523d6000602084013e6112b4565b606091505b50509050806111255760405162461bcd60e51b8152602060048201526015602482015274195d1a195c881d1c985b9cd9995c8819985a5b1959605a1b60448201526064016109ea565b6113116001600160a01b0382168484611435565b505050565b600061136b826040518060400160405280602081526020017f5361666545524332303a206c6f772d6c6576656c2063616c6c206661696c6564815250856001600160a01b03166114659092919063ffffffff16565b80519091501561131157808060200190518101906113899190611840565b6113115760405162461bcd60e51b815260206004820152602a60248201527f5361666545524332303a204552433230206f7065726174696f6e20646964206e6044820152691bdd081cdd58d8d9595960b21b60648201526084016109ea565b600081815b845181101561142d576114198286838151811061140c5761140c611aa1565b6020026020010151611474565b91508061142581611a26565b9150506113ed565b509392505050565b6040516001600160a01b03831660248201526044810182905261131190849063a9059cbb60e01b906064016110ee565b6060610dfb84846000856114a0565b6000818310611490576000828152602084905260409020610dfe565b5060009182526020526040902090565b6060824710156115015760405162461bcd60e51b815260206004820152602660248201527f416464726573733a20696e73756666696369656e742062616c616e636520666f6044820152651c8818d85b1b60d21b60648201526084016109ea565b6001600160a01b0385163b6115585760405162461bcd60e51b815260206004820152601d60248201527f416464726573733a2063616c6c20746f206e6f6e2d636f6e747261637400000060448201526064016109ea565b600080866001600160a01b031685876040516115749190611912565b60006040518083038185875af1925050503d80600081146115b1576040519150601f19603f3d011682016040523d82523d6000602084013e6115b6565b606091505b50915091506115c68282866115d1565b979650505050505050565b606083156115e0575081610dfe565b8251156115f05782518084602001fd5b8160405162461bcd60e51b81526004016109ea919061192e565b80356001600160a01b038116811461162157600080fd5b919050565b60008083601f84011261163857600080fd5b50813567ffffffffffffffff81111561165057600080fd5b6020830191508360208260051b850101111561166b57600080fd5b9250929050565b60006020828403121561168457600080fd5b610dfe8261160a565b600080604083850312156116a057600080fd5b6116a98361160a565b91506116b76020840161160a565b90509250929050565b600080604083850312156116d357600080fd5b6116dc8361160a565b946020939093013593505050565b6000806000606084860312156116ff57600080fd5b6117088461160a565b92506020840135915061171d6040850161160a565b90509250925092565b600080600080600080600060a0888a03121561174157600080fd5b61174a8861160a565b965060208801359550604088013567ffffffffffffffff8082111561176e57600080fd5b61177a8b838c01611626565b909750955060608a013591508082111561179357600080fd5b506117a08a828b01611626565b90945092506117b390506080890161160a565b905092959891949750929550565b6000806000806000608086880312156117d957600080fd5b6117e28661160a565b945060208601359350604086013567ffffffffffffffff81111561180557600080fd5b61181188828901611626565b96999598509660600135949350505050565b60006020828403121561183557600080fd5b8135610dfe81611ab7565b60006020828403121561185257600080fd5b8151610dfe81611ab7565b600080600080600080600060e0888a03121561187857600080fd5b873596506118886020890161160a565b95506118966040890161160a565b969995985095966060810135965060808101359560a0820135955060c0909101359350915050565b600080604083850312156118d157600080fd5b50508035926020909101359150565b6000602082840312156118f257600080fd5b5035919050565b60006020828403121561190b57600080fd5b5051919050565b600082516119248184602087016119fa565b9190910192915050565b602081526000825180602084015261194d8160408501602087016119fa565b601f01601f19169190910160400192915050565b6020808252601f908201527f5265656e7472616e637947756172643a207265656e7472616e742063616c6c00604082015260600190565b600082198211156119ab576119ab611a75565b500190565b6000826119bf576119bf611a8b565b500490565b60008160001904831182151516156119de576119de611a75565b500290565b6000828210156119f5576119f5611a75565b500390565b60005b83811015611a155781810151838201526020016119fd565b838111156111255750506000910152565b6000600019821415611a3a57611a3a611a75565b5060010190565b600060ff821660ff811415611a5857611a58611a75565b60010192915050565b600082611a7057611a70611a8b565b500690565b634e487b7160e01b600052601160045260246000fd5b634e487b7160e01b600052601260045260246000fd5b634e487b7160e01b600052603260045260246000fd5b8015158114610a1c57600080fdfea2646970667358221220f7a51385f3413065f726be9843f9f883d0ebbc7720811980a4c47e6dba318d2f64736f6c63430008060033",
  "linkReferences": {},
  "deployedLinkReferences": {}
}