{
  "_format": "hh-sol-artifact-1",
  "contractName": "Campaign",
  "sourceName": "contracts/Campaign.sol",
  "abi": [
    {
      "inputs": [
        {
          "internalType": "uint256",
          "name": "blockTime",
          "type": "uint256"
        }
      ],
      "name": "ChallengePeriodActive",
      "type": "error"
    },
    {
      "inputs": [],
      "name": "InvalidProof",
      "type": "error"
    },
    {
      "inputs": [],
      "name": "NoAssetsToWithdraw",
      "type": "error"
    },
    {
      "inputs": [],
      "name": "NoRewardAvailable",
      "type": "error"
    },
    {
      "inputs": [],
      "name": "NotIfCampaignCancelled",
      "type": "error"
    },
    {
      "inputs": [],
      "name": "NotIfCampaignLocked",
      "type": "error"
    },
    {
      "inputs": [],
      "name": "OnlyAdmin",
      "type": "error"
    },
    {
      "inputs": [
        {
          "internalType": "uint256",
          "name": "blockTime",
          "type": "uint256"
        }
      ],
      "name": "OnlyInChallengePeriod",
      "type": "error"
    },
    {
      "inputs": [],
      "name": "OnlyOracle",
      "type": "error"
    },
    {
      "inputs": [
        {
          "internalType": "uint256",
          "name": "blockTime",
          "type": "uint256"
        }
      ],
      "name": "ProposeWindowNotActive",
      "type": "error"
    },
    {
      "inputs": [],
      "name": "WithdrawalNotAllowed",
      "type": "error"
    },
    {
      "anonymous": false,
      "inputs": [],
      "name": "CampaignCancelled",
      "type": "event"
    },
    {
      "anonymous": false,
      "inputs": [],
      "name": "Challenge",
      "type": "event"
    },
    {
      "anonymous": false,
      "inputs": [
        {
          "indexed": true,
          "internalType": "address",
          "name": "account",
          "type": "address"
        },
        {
          "indexed": false,
          "internalType": "uint256",
          "name": "share",
          "type": "uint256"
        },
        {
          "indexed": false,
          "internalType": "uint256",
          "name": "reward",
          "type": "uint256"
        },
        {
          "indexed": false,
          "internalType": "address",
          "name": "assset",
          "type": "address"
        }
      ],
      "name": "Claim",
      "type": "event"
    },
    {
      "anonymous": false,
      "inputs": [
        {
          "indexed": true,
          "internalType": "address",
          "name": "provider",
          "type": "address"
        },
        {
          "indexed": false,
          "internalType": "uint256",
          "name": "amount",
          "type": "uint256"
        },
        {
          "indexed": false,
          "internalType": "address",
          "name": "asset",
          "type": "address"
        }
      ],
      "name": "Fund",
      "type": "event"
    },
    {
      "anonymous": false,
      "inputs": [
        {
          "indexed": false,
          "internalType": "uint8",
          "name": "version",
          "type": "uint8"
        }
      ],
      "name": "Initialized",
      "type": "event"
    },
    {
      "anonymous": false,
      "inputs": [
        {
          "indexed": false,
          "internalType": "bool",
          "name": "locked",
          "type": "bool"
        }
      ],
      "name": "SharesLock",
      "type": "event"
    },
    {
      "anonymous": false,
      "inputs": [
        {
          "indexed": false,
          "internalType": "bytes32",
          "name": "sharesMerkleRoot",
          "type": "bytes32"
        },
        {
          "indexed": false,
          "internalType": "bytes32",
          "name": "sharesUri",
          "type": "bytes32"
        },
        {
          "indexed": false,
          "internalType": "uint256",
          "name": "activationTime",
          "type": "uint256"
        }
      ],
      "name": "SharesMerkleRootUpdate",
      "type": "event"
    },
    {
      "anonymous": false,
      "inputs": [
        {
          "indexed": true,
          "internalType": "address",
          "name": "account",
          "type": "address"
        },
        {
          "indexed": false,
          "internalType": "uint256",
          "name": "amount",
          "type": "uint256"
        },
        {
          "indexed": false,
          "internalType": "address",
          "name": "asset",
          "type": "address"
        }
      ],
      "name": "Withdraw",
      "type": "event"
    },
    {
      "inputs": [],
      "name": "ACTIVATION_PERIOD",
      "outputs": [
        {
          "internalType": "uint256",
          "name": "",
          "type": "uint256"
        }
      ],
      "stateMutability": "view",
      "type": "function"
    },
    {
      "inputs": [],
      "name": "ACTIVE_DURATION",
      "outputs": [
        {
          "internalType": "uint256",
          "name": "",
          "type": "uint256"
        }
      ],
      "stateMutability": "view",
      "type": "function"
    },
    {
      "inputs": [],
      "name": "CHALLENGE_PERIOD",
      "outputs": [
        {
          "internalType": "uint256",
          "name": "",
          "type": "uint256"
        }
      ],
      "stateMutability": "view",
      "type": "function"
    },
    {
      "inputs": [],
      "name": "TOTAL_SHARES",
      "outputs": [
        {
          "internalType": "uint256",
          "name": "",
          "type": "uint256"
        }
      ],
      "stateMutability": "view",
      "type": "function"
    },
    {
      "inputs": [],
      "name": "activationTime",
      "outputs": [
        {
          "internalType": "uint256",
          "name": "",
          "type": "uint256"
        }
      ],
      "stateMutability": "view",
      "type": "function"
    },
    {
      "inputs": [],
      "name": "admin",
      "outputs": [
        {
          "internalType": "address",
          "name": "",
          "type": "address"
        }
      ],
      "stateMutability": "view",
      "type": "function"
    },
    {
      "inputs": [],
      "name": "approvedMerkleRoot",
      "outputs": [
        {
          "internalType": "bytes32",
          "name": "",
          "type": "bytes32"
        }
      ],
      "stateMutability": "view",
      "type": "function"
    },
    {
      "inputs": [
        {
          "internalType": "address",
          "name": "asset",
          "type": "address"
        }
      ],
      "name": "balanceOfAsset",
      "outputs": [
        {
          "internalType": "uint256",
          "name": "",
          "type": "uint256"
        }
      ],
      "stateMutability": "view",
      "type": "function"
    },
    {
      "inputs": [],
      "name": "campaignCancelled",
      "outputs": [
        {
          "internalType": "bool",
          "name": "",
          "type": "bool"
        }
      ],
      "stateMutability": "view",
      "type": "function"
    },
    {
      "inputs": [],
      "name": "cancelCampaign",
      "outputs": [],
      "stateMutability": "nonpayable",
      "type": "function"
    },
    {
      "inputs": [],
      "name": "challenge",
      "outputs": [],
      "stateMutability": "nonpayable",
      "type": "function"
    },
    {
      "inputs": [],
      "name": "checkMerkleRootUpdateAllowed",
      "outputs": [],
      "stateMutability": "view",
      "type": "function"
    },
    {
      "inputs": [
        {
          "internalType": "address",
          "name": "account",
          "type": "address"
        },
        {
          "internalType": "uint256",
          "name": "share",
          "type": "uint256"
        },
        {
          "internalType": "bytes32[]",
          "name": "proof",
          "type": "bytes32[]"
        },
        {
          "internalType": "address[]",
          "name": "assets",
          "type": "address[]"
        },
        {
          "internalType": "address",
          "name": "target",
          "type": "address"
        }
      ],
      "name": "claim",
      "outputs": [],
      "stateMutability": "nonpayable",
      "type": "function"
    },
    {
      "inputs": [
        {
          "internalType": "address",
          "name": "",
          "type": "address"
        },
        {
          "internalType": "address",
          "name": "",
          "type": "address"
        }
      ],
      "name": "claimed",
      "outputs": [
        {
          "internalType": "uint256",
          "name": "",
          "type": "uint256"
        }
      ],
      "stateMutability": "view",
      "type": "function"
    },
    {
      "inputs": [],
      "name": "deployTime",
      "outputs": [
        {
          "internalType": "uint256",
          "name": "",
          "type": "uint256"
        }
      ],
      "stateMutability": "view",
      "type": "function"
    },
    {
      "inputs": [
        {
          "internalType": "address",
          "name": "asset",
          "type": "address"
        },
        {
          "internalType": "uint256",
          "name": "amount",
          "type": "uint256"
        }
      ],
      "name": "fund",
      "outputs": [],
      "stateMutability": "payable",
      "type": "function"
    },
    {
      "inputs": [],
      "name": "getValidRoot",
      "outputs": [
        {
          "internalType": "bytes32",
          "name": "root",
          "type": "bytes32"
        }
      ],
      "stateMutability": "view",
      "type": "function"
    },
    {
      "inputs": [
        {
          "internalType": "bytes32",
          "name": "_rewardRulesetUri",
          "type": "bytes32"
        },
        {
          "internalType": "address",
          "name": "_admin",
          "type": "address"
        },
        {
          "internalType": "address",
          "name": "_oracle",
          "type": "address"
        },
        {
          "internalType": "uint256",
          "name": "_activationTime",
          "type": "uint256"
        },
        {
          "internalType": "uint256",
          "name": "_CHALLENGE_PERIOD",
          "type": "uint256"
        },
        {
          "internalType": "uint256",
          "name": "_ACTIVATION_PERIOD",
          "type": "uint256"
        },
        {
          "internalType": "uint256",
          "name": "_ACTIVE_DURATION",
          "type": "uint256"
        }
      ],
      "name": "initCampaign",
      "outputs": [],
      "stateMutability": "nonpayable",
      "type": "function"
    },
    {
      "inputs": [],
      "name": "isChallengePeriod",
      "outputs": [
        {
          "internalType": "bool",
          "name": "",
          "type": "bool"
        }
      ],
      "stateMutability": "view",
      "type": "function"
    },
    {
      "inputs": [],
      "name": "isPendingActive",
      "outputs": [
        {
          "internalType": "bool",
          "name": "isActive",
          "type": "bool"
        }
      ],
      "stateMutability": "view",
      "type": "function"
    },
    {
      "inputs": [],
      "name": "isProposeWindowActive",
      "outputs": [
        {
          "internalType": "bool",
          "name": "",
          "type": "bool"
        }
      ],
      "stateMutability": "view",
      "type": "function"
    },
    {
      "inputs": [],
      "name": "oracle",
      "outputs": [
        {
          "internalType": "address",
          "name": "",
          "type": "address"
        }
      ],
      "stateMutability": "view",
      "type": "function"
    },
    {
      "inputs": [],
      "name": "pendingMerkleRoot",
      "outputs": [
        {
          "internalType": "bytes32",
          "name": "",
          "type": "bytes32"
        }
      ],
      "stateMutability": "view",
      "type": "function"
    },
    {
      "inputs": [
        {
          "internalType": "bytes32",
          "name": "_sharesMerkleRoot",
          "type": "bytes32"
        },
        {
          "internalType": "bytes32",
          "name": "_sharesUri",
          "type": "bytes32"
        }
      ],
      "name": "proposeShares",
      "outputs": [],
      "stateMutability": "nonpayable",
      "type": "function"
    },
    {
      "inputs": [
        {
          "internalType": "address",
          "name": "",
          "type": "address"
        },
        {
          "internalType": "address",
          "name": "",
          "type": "address"
        }
      ],
      "name": "providers",
      "outputs": [
        {
          "internalType": "uint256",
          "name": "",
          "type": "uint256"
        }
      ],
      "stateMutability": "view",
      "type": "function"
    },
    {
      "inputs": [],
      "name": "rewardRulesetUri",
      "outputs": [
        {
          "internalType": "bytes32",
          "name": "",
          "type": "bytes32"
        }
      ],
      "stateMutability": "view",
      "type": "function"
    },
    {
      "inputs": [
        {
          "internalType": "address",
          "name": "account",
          "type": "address"
        },
        {
          "internalType": "uint256",
          "name": "share",
          "type": "uint256"
        },
        {
          "internalType": "address",
          "name": "asset",
          "type": "address"
        }
      ],
      "name": "rewardsAvailableToClaimer",
      "outputs": [
        {
          "internalType": "uint256",
          "name": "total",
          "type": "uint256"
        }
      ],
      "stateMutability": "view",
      "type": "function"
    },
    {
      "inputs": [
        {
          "internalType": "bool",
          "name": "_lock",
          "type": "bool"
        }
      ],
      "name": "setSharesLock",
      "outputs": [],
      "stateMutability": "nonpayable",
      "type": "function"
    },
    {
      "inputs": [],
      "name": "sharesLocked",
      "outputs": [
        {
          "internalType": "bool",
          "name": "",
          "type": "bool"
        }
      ],
      "stateMutability": "view",
      "type": "function"
    },
    {
      "inputs": [
        {
          "internalType": "address",
          "name": "",
          "type": "address"
        }
      ],
      "name": "totalClaimed",
      "outputs": [
        {
          "internalType": "uint256",
          "name": "",
          "type": "uint256"
        }
      ],
      "stateMutability": "view",
      "type": "function"
    },
    {
      "inputs": [
        {
          "internalType": "address",
          "name": "",
          "type": "address"
        }
      ],
      "name": "totalProvided",
      "outputs": [
        {
          "internalType": "uint256",
          "name": "",
          "type": "uint256"
        }
      ],
      "stateMutability": "view",
      "type": "function"
    },
    {
      "inputs": [
        {
          "internalType": "address",
          "name": "asset",
          "type": "address"
        }
      ],
      "name": "totalReceived",
      "outputs": [
        {
          "internalType": "uint256",
          "name": "total",
          "type": "uint256"
        }
      ],
      "stateMutability": "view",
      "type": "function"
    },
    {
      "inputs": [
        {
          "internalType": "address",
          "name": "account",
          "type": "address"
        },
        {
          "internalType": "uint256",
          "name": "share",
          "type": "uint256"
        },
        {
          "internalType": "bytes32[]",
          "name": "proof",
          "type": "bytes32[]"
        }
      ],
      "name": "verifyShares",
      "outputs": [],
      "stateMutability": "view",
      "type": "function"
    },
    {
      "inputs": [
        {
          "internalType": "address",
          "name": "account",
          "type": "address"
        },
        {
          "internalType": "address",
          "name": "asset",
          "type": "address"
        }
      ],
      "name": "withdrawAssets",
      "outputs": [],
      "stateMutability": "nonpayable",
      "type": "function"
    },
    {
      "stateMutability": "payable",
      "type": "receive"
    }
  ],
  "bytecode": "0x608060405234801561001057600080fd5b50600180556119f8806100246000396000f3fe6080604052600436106101fc5760003560e01c80637cc0cdf21161010d578063a9ec3a1b116100a0578063c3a079ed1161006f578063c3a079ed146105c1578063d2ef7398146105d7578063da4493f6146105ec578063ef5d9ae814610602578063f851a4401461062f57600080fd5b8063a9ec3a1b1461054b578063be8b768614610561578063c1d8994114610581578063c24e4778146105a157600080fd5b80639637f475116100dc5780639637f475146104ea578063977aa88b14610500578063980e784414610516578063a98acb461461052b57600080fd5b80637cc0cdf21461045c5780637dc0d1d01461047657806385e3f997146104ae5780638abb5d22146104ca57600080fd5b80634df9cfb31161019057806375e07c2d1161015f57806375e07c2d146103f45780637a40624b146104095780637b1837de1461041f5780637c99ca6d146104325780637cbb7d5e1461044757600080fd5b80634df9cfb31461037e578063531e050d1461039e57806363a5b88d146103be5780636c4fbc4a146103dd57600080fd5b806327ce11cb116101cc57806327ce11cb146102de5780633e1619401461030b57806340bcf74814610321578063449497281461035957600080fd5b80627c4d511461023d5780630c9cbf0e14610266578063162dfe001461029e57806317b9d05e146102be57600080fd5b3661023857600e54610100900460ff161561022a5760405163a99e45dd60e01b815260040160405180910390fd5b6102363460003361064f565b005b600080fd5b34801561024957600080fd5b5061025360045481565b6040519081526020015b60405180910390f35b34801561027257600080fd5b506102536102813660046115a8565b600d60209081526000928352604080842090915290825290205481565b3480156102aa57600080fd5b506102366102b9366004611641565b610726565b3480156102ca57600080fd5b506102366102d93660046117d1565b6107d9565b3480156102ea57600080fd5b506102536102f936600461158d565b60106020526000908152604090205481565b34801561031757600080fd5b5061025360035481565b34801561032d57600080fd5b5061025361033c3660046115a8565b600f60209081526000928352604080842090915290825290205481565b34801561036557600080fd5b5061036e6108b9565b604051901515815260200161025d565b34801561038a57600080fd5b5061025361039936600461158d565b6108df565b3480156103aa57600080fd5b506102366103b9366004611736565b610911565b3480156103ca57600080fd5b50600e5461036e90610100900460ff1681565b3480156103e957600080fd5b50600754421061036e565b34801561040057600080fd5b50610253610983565b34801561041557600080fd5b5061025360085481565b61023661042d3660046115db565b6109a1565b34801561043e57600080fd5b5061036e610a2c565b34801561045357600080fd5b50610236610a44565b34801561046857600080fd5b50600e5461036e9060ff1681565b34801561048257600080fd5b50600b54610496906001600160a01b031681565b6040516001600160a01b03909116815260200161025d565b3480156104ba57600080fd5b50610253670de0b6b3a764000081565b3480156104d657600080fd5b506102366104e536600461169b565b610a92565b3480156104f657600080fd5b5061025360065481565b34801561050c57600080fd5b5061025360095481565b34801561052257600080fd5b50610236610b53565b34801561053757600080fd5b50610236610546366004611770565b610bb8565b34801561055757600080fd5b5061025360055481565b34801561056d57600080fd5b5061025361057c366004611605565b610d20565b34801561058d57600080fd5b5061025361059c36600461158d565b610d83565b3480156105ad57600080fd5b506102366105bc3660046115a8565b610e17565b3480156105cd57600080fd5b5061025360025481565b3480156105e357600080fd5b50610236610f56565b3480156105f857600080fd5b5061025360075481565b34801561060e57600080fd5b5061025361061d36600461158d565b600c6020526000908152604090205481565b34801561063b57600080fd5b50600a54610496906001600160a01b031681565b6001600160a01b038083166000908152600f6020908152604080832093851683529290529081208054859290610686908490611892565b90915550506001600160a01b038216600090815260106020526040812080548592906106b3908490611892565b90915550506001600160a01b038216156106dc576106dc6001600160a01b038316823086610fd5565b604080518481526001600160a01b0384811660208301528316917fa5e8482b3a4fbac393476288e591dd9316d7304a537b26f9b67167f0ce19750f910160405180910390a2505050565b6000610730610983565b6040516bffffffffffffffffffffffff19606088901b166020820152603481018690529091506000906054016040516020818303038152906040528051906020012090506107b48484808060200260200160405190810160405280939291908181526020018383602002808284376000920191909152508692508591506110469050565b6107d1576040516309bde33960e01b815260040160405180910390fd5b505050505050565b600b546001600160a01b03163314610804576040516380fee10560e01b815260040160405180910390fd5b600e5460ff161561082857604051634c167e3b60e01b815260040160405180910390fd5b600e54610100900460ff16156108515760405163a99e45dd60e01b815260040160405180910390fd5b610859610a44565b600680546005558290556002546108709042611892565b6007819055604080518481526020810184905280820192909252517f93d244ac7b8f4282b061b1dcb3f543f36f06af40a7bfdefe04fc913ef7ea54f99181900360600190a15050565b6000600454600354600854426108cf91906118dd565b6108d9919061195b565b10905090565b6001600160a01b0381166000908152600c602052604081205461090183610d83565b61090b9190611892565b92915050565b600a546001600160a01b0316331461093c57604051634755657960e01b815260040160405180910390fd5b600e805460ff19168215159081179091556040519081527f161c6403efb8e4c55a592ebbe46f13ba803dd00cb970b735606b6518eb5475ff9060200160405180910390a150565b600061098d610a2c565b610998575060055490565b6006545b905090565b600260015414156109cd5760405162461bcd60e51b81526004016109c49061185b565b60405180910390fd5b6002600155600e54610100900460ff16156109fb5760405163a99e45dd60e01b815260040160405180910390fd5b6001600160a01b038216610a1957610a1434833361064f565b610a24565b610a2481833361064f565b505060018055565b6006546000901580159061099c575050600754421190565b600754421015610a695760405163ddc07f7160e01b81524260048201526024016109c4565b610a716108b9565b610a90576040516303ab46c160e11b81524260048201526024016109c4565b565b60026001541415610ab55760405162461bcd60e51b81526004016109c49061185b565b6002600155600e54610100900460ff1615610ae35760405163a99e45dd60e01b815260040160405180910390fd5b610aef87878787610726565b60005b60ff8116831115610b4557610b33888886868560ff16818110610b1757610b1761199b565b9050602002016020810190610b2c919061158d565b338661105c565b80610b3d8161193b565b915050610af2565b505060018055505050505050565b600a546001600160a01b03163314610b7e57604051634755657960e01b815260040160405180910390fd5b600e805461ff0019166101001790556040517f123d4f203b2b83bfe9f45903402bb88193cc56a43371d97ab5a51bd1817d858690600090a1565b600054610100900460ff1615808015610bd85750600054600160ff909116105b80610bf25750303b158015610bf2575060005460ff166001145b610c555760405162461bcd60e51b815260206004820152602e60248201527f496e697469616c697a61626c653a20636f6e747261637420697320616c72656160448201526d191e481a5b9a5d1a585b1a5e995960921b60648201526084016109c4565b6000805460ff191660011790558015610c78576000805461ff0019166101001790555b6009889055600a80546001600160a01b03808a166001600160a01b031992831617909255600b80549289169290911691909117905584610cb85742610cba565b845b600755426008556002849055600383905560048290558015610d16576000805461ff0019169055604051600181527f7f26b83ff96e1f2b6a682f133852f6798a09c465da95921460cefb38474024989060200160405180910390a15b5050505050505050565b6001600160a01b038082166000908152600d60209081526040808320938716835292905290812054670de0b6b3a764000084610d5b856108df565b610d6591906118be565b610d6f91906118aa565b610d7991906118dd565b90505b9392505050565b60006001600160a01b03821615610e10576040516370a0823160e01b81523060048201526001600160a01b038316906370a082319060240160206040518083038186803b158015610dd357600080fd5b505afa158015610de7573d6000803e3d6000fd5b505050506040513d601f19601f82011682018060405250810190610e0b91906117f3565b61090b565b4792915050565b60026001541415610e3a5760405162461bcd60e51b81526004016109c49061185b565b6002600155600e54610100900460ff1615610f3d576001600160a01b03808216600090815260106020908152604080832054600f8352818420948716845293909152812054909190610e8b84610d83565b610e9591906118be565b610e9f91906118aa565b905080610ebf57604051635da3252f60e11b815260040160405180910390fd5b6001600160a01b038083166000908152600f60209081526040808320938716835292905290812055610ef283828461116f565b604080518281526001600160a01b0384811660208301528516917f56c54ba9bd38d8fd62012e42c7ee564519b09763c426d331b3661b537ead19b2910160405180910390a250610a24565b60405163209a769d60e11b815260040160405180910390fd5b600a546001600160a01b03163314610f8157604051634755657960e01b815260040160405180910390fd5b6007544210610fa557604051633e71b1bf60e11b81524260048201526024016109c4565b600060068190556040517fa0f4a9a971d0d41496054a6616f175690f8b322091fcd26dc9e81fc96d4124849190a1565b6040516001600160a01b03808516602483015283166044820152606481018290526110409085906323b872dd60e01b906084015b60408051601f198184030181529190526020810180516001600160e01b03166001600160e01b031990931692909217909152611231565b50505050565b6000826110538584611303565b14949350505050565b6000611069868686610d20565b6001600160a01b038086166000908152600d60209081526040808320938b168352929052908120805492935083929091906110a5908490611892565b90915550506001600160a01b0384166000908152600c6020526040812080548392906110d2908490611892565b90915550506001600160a01b038381169087161480156110fa57506001600160a01b03821615155b1561110f5761110a82828661116f565b61111a565b61111a86828661116f565b60408051868152602081018390526001600160a01b03868116828401529151918816917fb6fe5ce185a3773d47e919f57c7edfd102c91cb7833b2be405c4de89d9980fd79181900360600190a2505050505050565b6001600160a01b038116611218576000836001600160a01b03168360405160006040518083038185875af1925050503d80600081146111ca576040519150601f19603f3d011682016040523d82523d6000602084013e6111cf565b606091505b50509050806110405760405162461bcd60e51b8152602060048201526015602482015274195d1a195c881d1c985b9cd9995c8819985a5b1959605a1b60448201526064016109c4565b61122c6001600160a01b0382168484611350565b505050565b6000611286826040518060400160405280602081526020017f5361666545524332303a206c6f772d6c6576656c2063616c6c206661696c6564815250856001600160a01b03166113809092919063ffffffff16565b80519091501561122c57808060200190518101906112a49190611753565b61122c5760405162461bcd60e51b815260206004820152602a60248201527f5361666545524332303a204552433230206f7065726174696f6e20646964206e6044820152691bdd081cdd58d8d9595960b21b60648201526084016109c4565b600081815b845181101561134857611334828683815181106113275761132761199b565b602002602001015161138f565b91508061134081611920565b915050611308565b509392505050565b6040516001600160a01b03831660248201526044810182905261122c90849063a9059cbb60e01b90606401611009565b6060610d7984846000856113bb565b60008183106113ab576000828152602084905260409020610d7c565b5060009182526020526040902090565b60608247101561141c5760405162461bcd60e51b815260206004820152602660248201527f416464726573733a20696e73756666696369656e742062616c616e636520666f6044820152651c8818d85b1b60d21b60648201526084016109c4565b6001600160a01b0385163b6114735760405162461bcd60e51b815260206004820152601d60248201527f416464726573733a2063616c6c20746f206e6f6e2d636f6e747261637400000060448201526064016109c4565b600080866001600160a01b0316858760405161148f919061180c565b60006040518083038185875af1925050503d80600081146114cc576040519150601f19603f3d011682016040523d82523d6000602084013e6114d1565b606091505b50915091506114e18282866114ec565b979650505050505050565b606083156114fb575081610d7c565b82511561150b5782518084602001fd5b8160405162461bcd60e51b81526004016109c49190611828565b80356001600160a01b038116811461153c57600080fd5b919050565b60008083601f84011261155357600080fd5b50813567ffffffffffffffff81111561156b57600080fd5b6020830191508360208260051b850101111561158657600080fd5b9250929050565b60006020828403121561159f57600080fd5b610d7c82611525565b600080604083850312156115bb57600080fd5b6115c483611525565b91506115d260208401611525565b90509250929050565b600080604083850312156115ee57600080fd5b6115f783611525565b946020939093013593505050565b60008060006060848603121561161a57600080fd5b61162384611525565b92506020840135915061163860408501611525565b90509250925092565b6000806000806060858703121561165757600080fd5b61166085611525565b935060208501359250604085013567ffffffffffffffff81111561168357600080fd5b61168f87828801611541565b95989497509550505050565b600080600080600080600060a0888a0312156116b657600080fd5b6116bf88611525565b965060208801359550604088013567ffffffffffffffff808211156116e357600080fd5b6116ef8b838c01611541565b909750955060608a013591508082111561170857600080fd5b506117158a828b01611541565b9094509250611728905060808901611525565b905092959891949750929550565b60006020828403121561174857600080fd5b8135610d7c816119b1565b60006020828403121561176557600080fd5b8151610d7c816119b1565b600080600080600080600060e0888a03121561178b57600080fd5b8735965061179b60208901611525565b95506117a960408901611525565b969995985095966060810135965060808101359560a0820135955060c0909101359350915050565b600080604083850312156117e457600080fd5b50508035926020909101359150565b60006020828403121561180557600080fd5b5051919050565b6000825161181e8184602087016118f4565b9190910192915050565b60208152600082518060208401526118478160408501602087016118f4565b601f01601f19169190910160400192915050565b6020808252601f908201527f5265656e7472616e637947756172643a207265656e7472616e742063616c6c00604082015260600190565b600082198211156118a5576118a561196f565b500190565b6000826118b9576118b9611985565b500490565b60008160001904831182151516156118d8576118d861196f565b500290565b6000828210156118ef576118ef61196f565b500390565b60005b8381101561190f5781810151838201526020016118f7565b838111156110405750506000910152565b60006000198214156119345761193461196f565b5060010190565b600060ff821660ff8114156119525761195261196f565b60010192915050565b60008261196a5761196a611985565b500690565b634e487b7160e01b600052601160045260246000fd5b634e487b7160e01b600052601260045260246000fd5b634e487b7160e01b600052603260045260246000fd5b80151581146119bf57600080fd5b5056fea26469706673582212203b2b6641de37c1cab3b07367576eea4d8c76af903c16f2f0e7f5ba573ed1d4f164736f6c63430008060033",
  "linkReferences": {},
  "deployedLinkReferences": {}
}