{
  "_format": "hh-sol-artifact-1",
  "contractName": "Campaign",
  "sourceName": "contracts/Campaign.sol",
  "abi": [
    {
      "inputs": [
        {
          "internalType": "uint256",
          "name": "blockTime",
          "type": "uint256"
        }
      ],
      "name": "ChallengePeriodActive",
      "type": "error"
    },
    {
      "inputs": [],
      "name": "InvalidProof",
      "type": "error"
    },
    {
      "inputs": [],
      "name": "NoAssetsToWithdraw",
      "type": "error"
    },
    {
      "inputs": [],
      "name": "NoRewardAvailable",
      "type": "error"
    },
    {
      "inputs": [],
      "name": "NotIfCampaignCancelled",
      "type": "error"
    },
    {
      "inputs": [],
      "name": "NotIfCampaignLocked",
      "type": "error"
    },
    {
      "inputs": [],
      "name": "OnlyAdmin",
      "type": "error"
    },
    {
      "inputs": [
        {
          "internalType": "uint256",
          "name": "blockTime",
          "type": "uint256"
        }
      ],
      "name": "OnlyInChallengePeriod",
      "type": "error"
    },
    {
      "inputs": [],
      "name": "OnlyOracle",
      "type": "error"
    },
    {
      "inputs": [
        {
          "internalType": "uint256",
          "name": "blockTime",
          "type": "uint256"
        }
      ],
      "name": "ProposeWindowNotActive",
      "type": "error"
    },
    {
      "inputs": [],
      "name": "WithdrawalNotAllowed",
      "type": "error"
    },
    {
      "anonymous": false,
      "inputs": [],
      "name": "AdminTransfer",
      "type": "event"
    },
    {
      "anonymous": false,
      "inputs": [],
      "name": "CampaignCancelled",
      "type": "event"
    },
    {
      "anonymous": false,
      "inputs": [],
      "name": "Challenge",
      "type": "event"
    },
    {
      "anonymous": false,
      "inputs": [
        {
          "indexed": true,
          "internalType": "address",
          "name": "account",
          "type": "address"
        },
        {
          "indexed": false,
          "internalType": "uint256",
          "name": "share",
          "type": "uint256"
        },
        {
          "indexed": false,
          "internalType": "uint256",
          "name": "reward",
          "type": "uint256"
        },
        {
          "indexed": false,
          "internalType": "address",
          "name": "assset",
          "type": "address"
        }
      ],
      "name": "Claim",
      "type": "event"
    },
    {
      "anonymous": false,
      "inputs": [
        {
          "indexed": true,
          "internalType": "address",
          "name": "provider",
          "type": "address"
        },
        {
          "indexed": false,
          "internalType": "uint256",
          "name": "amount",
          "type": "uint256"
        },
        {
          "indexed": false,
          "internalType": "address",
          "name": "asset",
          "type": "address"
        }
      ],
      "name": "Fund",
      "type": "event"
    },
    {
      "anonymous": false,
      "inputs": [
        {
          "indexed": false,
          "internalType": "uint8",
          "name": "version",
          "type": "uint8"
        }
      ],
      "name": "Initialized",
      "type": "event"
    },
    {
      "anonymous": false,
      "inputs": [
        {
          "indexed": false,
          "internalType": "bool",
          "name": "locked",
          "type": "bool"
        }
      ],
      "name": "SharesLock",
      "type": "event"
    },
    {
      "anonymous": false,
      "inputs": [
        {
          "indexed": false,
          "internalType": "bytes32",
          "name": "sharesMerkleRoot",
          "type": "bytes32"
        },
        {
          "indexed": false,
          "internalType": "bytes32",
          "name": "sharesUri",
          "type": "bytes32"
        },
        {
          "indexed": false,
          "internalType": "uint256",
          "name": "activationTime",
          "type": "uint256"
        }
      ],
      "name": "SharesMerkleRootUpdate",
      "type": "event"
    },
    {
      "anonymous": false,
      "inputs": [
        {
          "indexed": true,
          "internalType": "address",
          "name": "account",
          "type": "address"
        },
        {
          "indexed": false,
          "internalType": "uint256",
          "name": "amount",
          "type": "uint256"
        },
        {
          "indexed": false,
          "internalType": "address",
          "name": "asset",
          "type": "address"
        }
      ],
      "name": "Withdraw",
      "type": "event"
    },
    {
      "inputs": [],
      "name": "ACTIVATION_PERIOD",
      "outputs": [
        {
          "internalType": "uint256",
          "name": "",
          "type": "uint256"
        }
      ],
      "stateMutability": "view",
      "type": "function"
    },
    {
      "inputs": [],
      "name": "ACTIVE_DURATION",
      "outputs": [
        {
          "internalType": "uint256",
          "name": "",
          "type": "uint256"
        }
      ],
      "stateMutability": "view",
      "type": "function"
    },
    {
      "inputs": [],
      "name": "CHALLENGE_PERIOD",
      "outputs": [
        {
          "internalType": "uint256",
          "name": "",
          "type": "uint256"
        }
      ],
      "stateMutability": "view",
      "type": "function"
    },
    {
      "inputs": [],
      "name": "TOTAL_SHARES",
      "outputs": [
        {
          "internalType": "uint256",
          "name": "",
          "type": "uint256"
        }
      ],
      "stateMutability": "view",
      "type": "function"
    },
    {
      "inputs": [],
      "name": "activationTime",
      "outputs": [
        {
          "internalType": "uint256",
          "name": "",
          "type": "uint256"
        }
      ],
      "stateMutability": "view",
      "type": "function"
    },
    {
      "inputs": [],
      "name": "admin",
      "outputs": [
        {
          "internalType": "address",
          "name": "",
          "type": "address"
        }
      ],
      "stateMutability": "view",
      "type": "function"
    },
    {
      "inputs": [],
      "name": "approvedMerkleRoot",
      "outputs": [
        {
          "internalType": "bytes32",
          "name": "",
          "type": "bytes32"
        }
      ],
      "stateMutability": "view",
      "type": "function"
    },
    {
      "inputs": [
        {
          "internalType": "address",
          "name": "asset",
          "type": "address"
        }
      ],
      "name": "balanceOfAsset",
      "outputs": [
        {
          "internalType": "uint256",
          "name": "",
          "type": "uint256"
        }
      ],
      "stateMutability": "view",
      "type": "function"
    },
    {
      "inputs": [],
      "name": "campaignCancelled",
      "outputs": [
        {
          "internalType": "bool",
          "name": "",
          "type": "bool"
        }
      ],
      "stateMutability": "view",
      "type": "function"
    },
    {
      "inputs": [],
      "name": "cancelCampaign",
      "outputs": [],
      "stateMutability": "nonpayable",
      "type": "function"
    },
    {
      "inputs": [],
      "name": "challenge",
      "outputs": [],
      "stateMutability": "nonpayable",
      "type": "function"
    },
    {
      "inputs": [],
      "name": "checkMerkleRootUpdateAllowed",
      "outputs": [],
      "stateMutability": "view",
      "type": "function"
    },
    {
      "inputs": [
        {
          "internalType": "address",
          "name": "account",
          "type": "address"
        },
        {
          "internalType": "uint256",
          "name": "share",
          "type": "uint256"
        },
        {
          "internalType": "bytes32[]",
          "name": "proof",
          "type": "bytes32[]"
        },
        {
          "internalType": "address[]",
          "name": "assets",
          "type": "address[]"
        },
        {
          "internalType": "address",
          "name": "target",
          "type": "address"
        }
      ],
      "name": "claim",
      "outputs": [],
      "stateMutability": "nonpayable",
      "type": "function"
    },
    {
      "inputs": [
        {
          "internalType": "address",
          "name": "",
          "type": "address"
        },
        {
          "internalType": "address",
          "name": "",
          "type": "address"
        }
      ],
      "name": "claimed",
      "outputs": [
        {
          "internalType": "uint256",
          "name": "",
          "type": "uint256"
        }
      ],
      "stateMutability": "view",
      "type": "function"
    },
    {
      "inputs": [],
      "name": "deployTime",
      "outputs": [
        {
          "internalType": "uint256",
          "name": "",
          "type": "uint256"
        }
      ],
      "stateMutability": "view",
      "type": "function"
    },
    {
      "inputs": [
        {
          "internalType": "address",
          "name": "asset",
          "type": "address"
        },
        {
          "internalType": "uint256",
          "name": "amount",
          "type": "uint256"
        }
      ],
      "name": "fund",
      "outputs": [],
      "stateMutability": "payable",
      "type": "function"
    },
    {
      "inputs": [],
      "name": "getValidRoot",
      "outputs": [
        {
          "internalType": "bytes32",
          "name": "root",
          "type": "bytes32"
        }
      ],
      "stateMutability": "view",
      "type": "function"
    },
    {
      "inputs": [
        {
          "internalType": "bytes32",
          "name": "_rewardRulesetUri",
          "type": "bytes32"
        },
        {
          "internalType": "address",
          "name": "_admin",
          "type": "address"
        },
        {
          "internalType": "address",
          "name": "_oracle",
          "type": "address"
        },
        {
          "internalType": "uint256",
          "name": "_activationTime",
          "type": "uint256"
        },
        {
          "internalType": "uint256",
          "name": "_CHALLENGE_PERIOD",
          "type": "uint256"
        },
        {
          "internalType": "uint256",
          "name": "_ACTIVATION_PERIOD",
          "type": "uint256"
        },
        {
          "internalType": "uint256",
          "name": "_ACTIVE_DURATION",
          "type": "uint256"
        }
      ],
      "name": "initCampaign",
      "outputs": [],
      "stateMutability": "nonpayable",
      "type": "function"
    },
    {
      "inputs": [],
      "name": "isChallengePeriod",
      "outputs": [
        {
          "internalType": "bool",
          "name": "",
          "type": "bool"
        }
      ],
      "stateMutability": "view",
      "type": "function"
    },
    {
      "inputs": [],
      "name": "isPendingActive",
      "outputs": [
        {
          "internalType": "bool",
          "name": "isActive",
          "type": "bool"
        }
      ],
      "stateMutability": "view",
      "type": "function"
    },
    {
      "inputs": [],
      "name": "isProposeWindowActive",
      "outputs": [
        {
          "internalType": "bool",
          "name": "",
          "type": "bool"
        }
      ],
      "stateMutability": "view",
      "type": "function"
    },
    {
      "inputs": [],
      "name": "oracle",
      "outputs": [
        {
          "internalType": "address",
          "name": "",
          "type": "address"
        }
      ],
      "stateMutability": "view",
      "type": "function"
    },
    {
      "inputs": [],
      "name": "pendingMerkleRoot",
      "outputs": [
        {
          "internalType": "bytes32",
          "name": "",
          "type": "bytes32"
        }
      ],
      "stateMutability": "view",
      "type": "function"
    },
    {
      "inputs": [
        {
          "internalType": "bytes32",
          "name": "_sharesMerkleRoot",
          "type": "bytes32"
        },
        {
          "internalType": "bytes32",
          "name": "_sharesUri",
          "type": "bytes32"
        }
      ],
      "name": "proposeShares",
      "outputs": [],
      "stateMutability": "nonpayable",
      "type": "function"
    },
    {
      "inputs": [
        {
          "internalType": "address",
          "name": "",
          "type": "address"
        },
        {
          "internalType": "address",
          "name": "",
          "type": "address"
        }
      ],
      "name": "providers",
      "outputs": [
        {
          "internalType": "uint256",
          "name": "",
          "type": "uint256"
        }
      ],
      "stateMutability": "view",
      "type": "function"
    },
    {
      "inputs": [],
      "name": "rewardRulesetUri",
      "outputs": [
        {
          "internalType": "bytes32",
          "name": "",
          "type": "bytes32"
        }
      ],
      "stateMutability": "view",
      "type": "function"
    },
    {
      "inputs": [
        {
          "internalType": "address",
          "name": "account",
          "type": "address"
        },
        {
          "internalType": "uint256",
          "name": "share",
          "type": "uint256"
        },
        {
          "internalType": "address",
          "name": "asset",
          "type": "address"
        }
      ],
      "name": "rewardsAvailableToClaimer",
      "outputs": [
        {
          "internalType": "uint256",
          "name": "total",
          "type": "uint256"
        }
      ],
      "stateMutability": "view",
      "type": "function"
    },
    {
      "inputs": [
        {
          "internalType": "bool",
          "name": "_lock",
          "type": "bool"
        }
      ],
      "name": "setSharesLock",
      "outputs": [],
      "stateMutability": "nonpayable",
      "type": "function"
    },
    {
      "inputs": [],
      "name": "sharesLocked",
      "outputs": [
        {
          "internalType": "bool",
          "name": "",
          "type": "bool"
        }
      ],
      "stateMutability": "view",
      "type": "function"
    },
    {
      "inputs": [
        {
          "internalType": "address",
          "name": "",
          "type": "address"
        }
      ],
      "name": "totalClaimed",
      "outputs": [
        {
          "internalType": "uint256",
          "name": "",
          "type": "uint256"
        }
      ],
      "stateMutability": "view",
      "type": "function"
    },
    {
      "inputs": [
        {
          "internalType": "address",
          "name": "",
          "type": "address"
        }
      ],
      "name": "totalProvided",
      "outputs": [
        {
          "internalType": "uint256",
          "name": "",
          "type": "uint256"
        }
      ],
      "stateMutability": "view",
      "type": "function"
    },
    {
      "inputs": [
        {
          "internalType": "address",
          "name": "asset",
          "type": "address"
        }
      ],
      "name": "totalReceived",
      "outputs": [
        {
          "internalType": "uint256",
          "name": "total",
          "type": "uint256"
        }
      ],
      "stateMutability": "view",
      "type": "function"
    },
    {
      "inputs": [
        {
          "internalType": "address",
          "name": "newAdmin",
          "type": "address"
        }
      ],
      "name": "transferAdminRole",
      "outputs": [],
      "stateMutability": "nonpayable",
      "type": "function"
    },
    {
      "inputs": [
        {
          "internalType": "address",
          "name": "account",
          "type": "address"
        },
        {
          "internalType": "uint256",
          "name": "share",
          "type": "uint256"
        },
        {
          "internalType": "bytes32[]",
          "name": "proof",
          "type": "bytes32[]"
        }
      ],
      "name": "verifyShares",
      "outputs": [],
      "stateMutability": "view",
      "type": "function"
    },
    {
      "inputs": [
        {
          "internalType": "address",
          "name": "account",
          "type": "address"
        },
        {
          "internalType": "address",
          "name": "asset",
          "type": "address"
        }
      ],
      "name": "withdrawAssets",
      "outputs": [],
      "stateMutability": "nonpayable",
      "type": "function"
    },
    {
      "stateMutability": "payable",
      "type": "receive"
    }
  ],
  "bytecode": "0x608060405234801561001057600080fd5b5060018055611a95806100246000396000f3fe6080604052600436106102075760003560e01c80637cc0cdf211610118578063ada8f919116100a0578063c3a079ed1161006f578063c3a079ed146105ec578063d2ef739814610602578063da4493f614610617578063ef5d9ae81461062d578063f851a4401461065a57600080fd5b8063ada8f9191461056c578063be8b76861461058c578063c1d89941146105ac578063c24e4778146105cc57600080fd5b80639637f475116100e75780639637f475146104f5578063977aa88b1461050b578063980e784414610521578063a98acb4614610536578063a9ec3a1b1461055657600080fd5b80637cc0cdf2146104675780637dc0d1d01461048157806385e3f997146104b95780638abb5d22146104d557600080fd5b80634df9cfb31161019b57806375e07c2d1161016a57806375e07c2d146103ff5780637a40624b146104145780637b1837de1461042a5780637c99ca6d1461043d5780637cbb7d5e1461045257600080fd5b80634df9cfb314610389578063531e050d146103a957806363a5b88d146103c95780636c4fbc4a146103e857600080fd5b806327ce11cb116101d757806327ce11cb146102e95780633e1619401461031657806340bcf7481461032c578063449497281461036457600080fd5b80627c4d51146102485780630c9cbf0e14610271578063162dfe00146102a957806317b9d05e146102c957600080fd5b3661024357600e54610100900460ff16156102355760405163a99e45dd60e01b815260040160405180910390fd5b6102413460003361067a565b005b600080fd5b34801561025457600080fd5b5061025e60045481565b6040519081526020015b60405180910390f35b34801561027d57600080fd5b5061025e61028c366004611645565b600d60209081526000928352604080842090915290825290205481565b3480156102b557600080fd5b506102416102c43660046116de565b610751565b3480156102d557600080fd5b506102416102e436600461186e565b610804565b3480156102f557600080fd5b5061025e61030436600461162a565b60106020526000908152604090205481565b34801561032257600080fd5b5061025e60035481565b34801561033857600080fd5b5061025e610347366004611645565b600f60209081526000928352604080842090915290825290205481565b34801561037057600080fd5b506103796108e4565b6040519015158152602001610268565b34801561039557600080fd5b5061025e6103a436600461162a565b61090a565b3480156103b557600080fd5b506102416103c43660046117d3565b61093c565b3480156103d557600080fd5b50600e5461037990610100900460ff1681565b3480156103f457600080fd5b506007544210610379565b34801561040b57600080fd5b5061025e6109ae565b34801561042057600080fd5b5061025e60085481565b610241610438366004611678565b6109cc565b34801561044957600080fd5b50610379610a57565b34801561045e57600080fd5b50610241610a6f565b34801561047357600080fd5b50600e546103799060ff1681565b34801561048d57600080fd5b50600b546104a1906001600160a01b031681565b6040516001600160a01b039091168152602001610268565b3480156104c557600080fd5b5061025e670de0b6b3a764000081565b3480156104e157600080fd5b506102416104f0366004611738565b610abd565b34801561050157600080fd5b5061025e60065481565b34801561051757600080fd5b5061025e60095481565b34801561052d57600080fd5b50610241610b7e565b34801561054257600080fd5b5061024161055136600461180d565b610be3565b34801561056257600080fd5b5061025e60055481565b34801561057857600080fd5b5061024161058736600461162a565b610d4b565b34801561059857600080fd5b5061025e6105a73660046116a2565b610dbd565b3480156105b857600080fd5b5061025e6105c736600461162a565b610e20565b3480156105d857600080fd5b506102416105e7366004611645565b610eb4565b3480156105f857600080fd5b5061025e60025481565b34801561060e57600080fd5b50610241610ff3565b34801561062357600080fd5b5061025e60075481565b34801561063957600080fd5b5061025e61064836600461162a565b600c6020526000908152604090205481565b34801561066657600080fd5b50600a546104a1906001600160a01b031681565b6001600160a01b038083166000908152600f60209081526040808320938516835292905290812080548592906106b190849061192f565b90915550506001600160a01b038216600090815260106020526040812080548592906106de90849061192f565b90915550506001600160a01b03821615610707576107076001600160a01b038316823086611072565b604080518481526001600160a01b0384811660208301528316917fa5e8482b3a4fbac393476288e591dd9316d7304a537b26f9b67167f0ce19750f910160405180910390a2505050565b600061075b6109ae565b6040516bffffffffffffffffffffffff19606088901b166020820152603481018690529091506000906054016040516020818303038152906040528051906020012090506107df8484808060200260200160405190810160405280939291908181526020018383602002808284376000920191909152508692508591506110e39050565b6107fc576040516309bde33960e01b815260040160405180910390fd5b505050505050565b600b546001600160a01b0316331461082f576040516380fee10560e01b815260040160405180910390fd5b600e5460ff161561085357604051634c167e3b60e01b815260040160405180910390fd5b600e54610100900460ff161561087c5760405163a99e45dd60e01b815260040160405180910390fd5b610884610a6f565b6006805460055582905560025461089b904261192f565b6007819055604080518481526020810184905280820192909252517f93d244ac7b8f4282b061b1dcb3f543f36f06af40a7bfdefe04fc913ef7ea54f99181900360600190a15050565b6000600454600354600854426108fa919061197a565b61090491906119f8565b10905090565b6001600160a01b0381166000908152600c602052604081205461092c83610e20565b610936919061192f565b92915050565b600a546001600160a01b0316331461096757604051634755657960e01b815260040160405180910390fd5b600e805460ff19168215159081179091556040519081527f161c6403efb8e4c55a592ebbe46f13ba803dd00cb970b735606b6518eb5475ff9060200160405180910390a150565b60006109b8610a57565b6109c3575060055490565b6006545b905090565b600260015414156109f85760405162461bcd60e51b81526004016109ef906118f8565b60405180910390fd5b6002600155600e54610100900460ff1615610a265760405163a99e45dd60e01b815260040160405180910390fd5b6001600160a01b038216610a4457610a3f34833361067a565b610a4f565b610a4f81833361067a565b505060018055565b600654600090158015906109c7575050600754421190565b600754421015610a945760405163ddc07f7160e01b81524260048201526024016109ef565b610a9c6108e4565b610abb576040516303ab46c160e11b81524260048201526024016109ef565b565b60026001541415610ae05760405162461bcd60e51b81526004016109ef906118f8565b6002600155600e54610100900460ff1615610b0e5760405163a99e45dd60e01b815260040160405180910390fd5b610b1a87878787610751565b60005b60ff8116831115610b7057610b5e888886868560ff16818110610b4257610b42611a38565b9050602002016020810190610b57919061162a565b33866110f9565b80610b68816119d8565b915050610b1d565b505060018055505050505050565b600a546001600160a01b03163314610ba957604051634755657960e01b815260040160405180910390fd5b600e805461ff0019166101001790556040517f123d4f203b2b83bfe9f45903402bb88193cc56a43371d97ab5a51bd1817d858690600090a1565b600054610100900460ff1615808015610c035750600054600160ff909116105b80610c1d5750303b158015610c1d575060005460ff166001145b610c805760405162461bcd60e51b815260206004820152602e60248201527f496e697469616c697a61626c653a20636f6e747261637420697320616c72656160448201526d191e481a5b9a5d1a585b1a5e995960921b60648201526084016109ef565b6000805460ff191660011790558015610ca3576000805461ff0019166101001790555b6009889055600a80546001600160a01b03808a166001600160a01b031992831617909255600b80549289169290911691909117905584610ce35742610ce5565b845b600755426008556002849055600383905560048290558015610d41576000805461ff0019169055604051600181527f7f26b83ff96e1f2b6a682f133852f6798a09c465da95921460cefb38474024989060200160405180910390a15b5050505050505050565b600a546001600160a01b03163314610d7657604051634755657960e01b815260040160405180910390fd5b600a80546001600160a01b0319166001600160a01b0383161790556040517f86111e0a132b5277d510cdd314ee7e9dec0b468abfdfb76bc4eea73db5089d5990600090a150565b6001600160a01b038082166000908152600d60209081526040808320938716835292905290812054670de0b6b3a764000084610df88561090a565b610e02919061195b565b610e0c9190611947565b610e16919061197a565b90505b9392505050565b60006001600160a01b03821615610ead576040516370a0823160e01b81523060048201526001600160a01b038316906370a082319060240160206040518083038186803b158015610e7057600080fd5b505afa158015610e84573d6000803e3d6000fd5b505050506040513d601f19601f82011682018060405250810190610ea89190611890565b610936565b4792915050565b60026001541415610ed75760405162461bcd60e51b81526004016109ef906118f8565b6002600155600e54610100900460ff1615610fda576001600160a01b03808216600090815260106020908152604080832054600f8352818420948716845293909152812054909190610f2884610e20565b610f32919061195b565b610f3c9190611947565b905080610f5c57604051635da3252f60e11b815260040160405180910390fd5b6001600160a01b038083166000908152600f60209081526040808320938716835292905290812055610f8f83828461120c565b604080518281526001600160a01b0384811660208301528516917f56c54ba9bd38d8fd62012e42c7ee564519b09763c426d331b3661b537ead19b2910160405180910390a250610a4f565b60405163209a769d60e11b815260040160405180910390fd5b600a546001600160a01b0316331461101e57604051634755657960e01b815260040160405180910390fd5b600754421061104257604051633e71b1bf60e11b81524260048201526024016109ef565b600060068190556040517fa0f4a9a971d0d41496054a6616f175690f8b322091fcd26dc9e81fc96d4124849190a1565b6040516001600160a01b03808516602483015283166044820152606481018290526110dd9085906323b872dd60e01b906084015b60408051601f198184030181529190526020810180516001600160e01b03166001600160e01b0319909316929092179091526112ce565b50505050565b6000826110f085846113a0565b14949350505050565b6000611106868686610dbd565b6001600160a01b038086166000908152600d60209081526040808320938b1683529290529081208054929350839290919061114290849061192f565b90915550506001600160a01b0384166000908152600c60205260408120805483929061116f90849061192f565b90915550506001600160a01b0383811690871614801561119757506001600160a01b03821615155b156111ac576111a782828661120c565b6111b7565b6111b786828661120c565b60408051868152602081018390526001600160a01b03868116828401529151918816917fb6fe5ce185a3773d47e919f57c7edfd102c91cb7833b2be405c4de89d9980fd79181900360600190a2505050505050565b6001600160a01b0381166112b5576000836001600160a01b03168360405160006040518083038185875af1925050503d8060008114611267576040519150601f19603f3d011682016040523d82523d6000602084013e61126c565b606091505b50509050806110dd5760405162461bcd60e51b8152602060048201526015602482015274195d1a195c881d1c985b9cd9995c8819985a5b1959605a1b60448201526064016109ef565b6112c96001600160a01b03821684846113ed565b505050565b6000611323826040518060400160405280602081526020017f5361666545524332303a206c6f772d6c6576656c2063616c6c206661696c6564815250856001600160a01b031661141d9092919063ffffffff16565b8051909150156112c9578080602001905181019061134191906117f0565b6112c95760405162461bcd60e51b815260206004820152602a60248201527f5361666545524332303a204552433230206f7065726174696f6e20646964206e6044820152691bdd081cdd58d8d9595960b21b60648201526084016109ef565b600081815b84518110156113e5576113d1828683815181106113c4576113c4611a38565b602002602001015161142c565b9150806113dd816119bd565b9150506113a5565b509392505050565b6040516001600160a01b0383166024820152604481018290526112c990849063a9059cbb60e01b906064016110a6565b6060610e168484600085611458565b6000818310611448576000828152602084905260409020610e19565b5060009182526020526040902090565b6060824710156114b95760405162461bcd60e51b815260206004820152602660248201527f416464726573733a20696e73756666696369656e742062616c616e636520666f6044820152651c8818d85b1b60d21b60648201526084016109ef565b6001600160a01b0385163b6115105760405162461bcd60e51b815260206004820152601d60248201527f416464726573733a2063616c6c20746f206e6f6e2d636f6e747261637400000060448201526064016109ef565b600080866001600160a01b0316858760405161152c91906118a9565b60006040518083038185875af1925050503d8060008114611569576040519150601f19603f3d011682016040523d82523d6000602084013e61156e565b606091505b509150915061157e828286611589565b979650505050505050565b60608315611598575081610e19565b8251156115a85782518084602001fd5b8160405162461bcd60e51b81526004016109ef91906118c5565b80356001600160a01b03811681146115d957600080fd5b919050565b60008083601f8401126115f057600080fd5b50813567ffffffffffffffff81111561160857600080fd5b6020830191508360208260051b850101111561162357600080fd5b9250929050565b60006020828403121561163c57600080fd5b610e19826115c2565b6000806040838503121561165857600080fd5b611661836115c2565b915061166f602084016115c2565b90509250929050565b6000806040838503121561168b57600080fd5b611694836115c2565b946020939093013593505050565b6000806000606084860312156116b757600080fd5b6116c0846115c2565b9250602084013591506116d5604085016115c2565b90509250925092565b600080600080606085870312156116f457600080fd5b6116fd856115c2565b935060208501359250604085013567ffffffffffffffff81111561172057600080fd5b61172c878288016115de565b95989497509550505050565b600080600080600080600060a0888a03121561175357600080fd5b61175c886115c2565b965060208801359550604088013567ffffffffffffffff8082111561178057600080fd5b61178c8b838c016115de565b909750955060608a01359150808211156117a557600080fd5b506117b28a828b016115de565b90945092506117c59050608089016115c2565b905092959891949750929550565b6000602082840312156117e557600080fd5b8135610e1981611a4e565b60006020828403121561180257600080fd5b8151610e1981611a4e565b600080600080600080600060e0888a03121561182857600080fd5b87359650611838602089016115c2565b9550611846604089016115c2565b969995985095966060810135965060808101359560a0820135955060c0909101359350915050565b6000806040838503121561188157600080fd5b50508035926020909101359150565b6000602082840312156118a257600080fd5b5051919050565b600082516118bb818460208701611991565b9190910192915050565b60208152600082518060208401526118e4816040850160208701611991565b601f01601f19169190910160400192915050565b6020808252601f908201527f5265656e7472616e637947756172643a207265656e7472616e742063616c6c00604082015260600190565b6000821982111561194257611942611a0c565b500190565b60008261195657611956611a22565b500490565b600081600019048311821515161561197557611975611a0c565b500290565b60008282101561198c5761198c611a0c565b500390565b60005b838110156119ac578181015183820152602001611994565b838111156110dd5750506000910152565b60006000198214156119d1576119d1611a0c565b5060010190565b600060ff821660ff8114156119ef576119ef611a0c565b60010192915050565b600082611a0757611a07611a22565b500690565b634e487b7160e01b600052601160045260246000fd5b634e487b7160e01b600052601260045260246000fd5b634e487b7160e01b600052603260045260246000fd5b8015158114611a5c57600080fd5b5056fea2646970667358221220d690fbf778714ddbddc6710dddef0723fe5e48067426b053cf2eb49044b1761864736f6c63430008060033",
  "linkReferences": {},
  "deployedLinkReferences": {}
}