{"contracts/Campaign.sol":{"Campaign":{"abi":[{"inputs":[{"internalType":"uint256","name":"blockTime","type":"uint256"}],"name":"ChallengePeriodActive","type":"error"},{"inputs":[],"name":"InvalidProof","type":"error"},{"inputs":[],"name":"NoAssetsToWithdraw","type":"error"},{"inputs":[],"name":"NoRewardAvailable","type":"error"},{"inputs":[],"name":"NotIfCampaignCancelled","type":"error"},{"inputs":[],"name":"NotIfCampaignLocked","type":"error"},{"inputs":[],"name":"OnlyAdmin","type":"error"},{"inputs":[{"internalType":"uint256","name":"blockTime","type":"uint256"}],"name":"OnlyInChallengePeriod","type":"error"},{"inputs":[],"name":"OnlyOracle","type":"error"},{"inputs":[{"internalType":"uint256","name":"blockTime","type":"uint256"}],"name":"ProposeWindowNotActive","type":"error"},{"inputs":[],"name":"WithdrawalNotAllowed","type":"error"},{"anonymous":false,"inputs":[],"name":"CampaignCancelled","type":"event"},{"anonymous":false,"inputs":[],"name":"Challenge","type":"event"},{"anonymous":false,"inputs":[{"indexed":true,"internalType":"address","name":"account","type":"address"},{"indexed":false,"internalType":"uint256","name":"share","type":"uint256"},{"indexed":false,"internalType":"uint256","name":"reward","type":"uint256"},{"indexed":false,"internalType":"address","name":"assset","type":"address"}],"name":"Claim","type":"event"},{"anonymous":false,"inputs":[{"indexed":true,"internalType":"address","name":"provider","type":"address"},{"indexed":false,"internalType":"uint256","name":"amount","type":"uint256"},{"indexed":false,"internalType":"address","name":"asset","type":"address"}],"name":"Fund","type":"event"},{"anonymous":false,"inputs":[{"indexed":false,"internalType":"uint8","name":"version","type":"uint8"}],"name":"Initialized","type":"event"},{"anonymous":false,"inputs":[{"indexed":false,"internalType":"bool","name":"locked","type":"bool"}],"name":"SharesLock","type":"event"},{"anonymous":false,"inputs":[{"indexed":false,"internalType":"bytes32","name":"sharesMerkleRoot","type":"bytes32"},{"indexed":false,"internalType":"bytes32","name":"sharesUri","type":"bytes32"},{"indexed":false,"internalType":"uint256","name":"activationTime","type":"uint256"}],"name":"SharesMerkleRootUpdate","type":"event"},{"anonymous":false,"inputs":[{"indexed":true,"internalType":"address","name":"account","type":"address"},{"indexed":false,"internalType":"uint256","name":"amount","type":"uint256"},{"indexed":false,"internalType":"address","name":"asset","type":"address"}],"name":"Withdraw","type":"event"},{"inputs":[],"name":"ACTIVATION_PERIOD","outputs":[{"internalType":"uint256","name":"","type":"uint256"}],"stateMutability":"view","type":"function"},{"inputs":[],"name":"ACTIVE_DURATION","outputs":[{"internalType":"uint256","name":"","type":"uint256"}],"stateMutability":"view","type":"function"},{"inputs":[],"name":"CHALLENGE_PERIOD","outputs":[{"internalType":"uint256","name":"","type":"uint256"}],"stateMutability":"view","type":"function"},{"inputs":[],"name":"TOTAL_SHARES","outputs":[{"internalType":"uint256","name":"","type":"uint256"}],"stateMutability":"view","type":"function"},{"inputs":[],"name":"activationTime","outputs":[{"internalType":"uint256","name":"","type":"uint256"}],"stateMutability":"view","type":"function"},{"inputs":[],"name":"admin","outputs":[{"internalType":"address","name":"","type":"address"}],"stateMutability":"view","type":"function"},{"inputs":[],"name":"approvedMerkleRoot","outputs":[{"internalType":"bytes32","name":"","type":"bytes32"}],"stateMutability":"view","type":"function"},{"inputs":[{"internalType":"address","name":"asset","type":"address"}],"name":"balanceOfAsset","outputs":[{"internalType":"uint256","name":"","type":"uint256"}],"stateMutability":"view","type":"function"},{"inputs":[],"name":"campaignCancelled","outputs":[{"internalType":"bool","name":"","type":"bool"}],"stateMutability":"view","type":"function"},{"inputs":[],"name":"cancelCampaign","outputs":[],"stateMutability":"nonpayable","type":"function"},{"inputs":[],"name":"challenge","outputs":[],"stateMutability":"nonpayable","type":"function"},{"inputs":[],"name":"checkMerkleRootUpdateAllowed","outputs":[],"stateMutability":"view","type":"function"},{"inputs":[{"internalType":"address","name":"account","type":"address"},{"internalType":"uint256","name":"share","type":"uint256"},{"internalType":"bytes32[]","name":"proof","type":"bytes32[]"},{"internalType":"address[]","name":"assets","type":"address[]"},{"internalType":"address","name":"target","type":"address"}],"name":"claim","outputs":[],"stateMutability":"nonpayable","type":"function"},{"inputs":[{"internalType":"address","name":"","type":"address"},{"internalType":"address","name":"","type":"address"}],"name":"claimed","outputs":[{"internalType":"uint256","name":"","type":"uint256"}],"stateMutability":"view","type":"function"},{"inputs":[],"name":"deployTime","outputs":[{"internalType":"uint256","name":"","type":"uint256"}],"stateMutability":"view","type":"function"},{"inputs":[{"internalType":"address","name":"asset","type":"address"},{"internalType":"uint256","name":"amount","type":"uint256"}],"name":"fund","outputs":[],"stateMutability":"payable","type":"function"},{"inputs":[],"name":"getValidRoot","outputs":[{"internalType":"bytes32","name":"root","type":"bytes32"}],"stateMutability":"view","type":"function"},{"inputs":[{"internalType":"bytes32","name":"_rewardRulesetUri","type":"bytes32"},{"internalType":"address","name":"_admin","type":"address"},{"internalType":"address","name":"_oracle","type":"address"},{"internalType":"uint256","name":"_activationTime","type":"uint256"},{"internalType":"uint256","name":"_CHALLENGE_PERIOD","type":"uint256"},{"internalType":"uint256","name":"_ACTIVATION_PERIOD","type":"uint256"},{"internalType":"uint256","name":"_ACTIVE_DURATION","type":"uint256"}],"name":"initCampaign","outputs":[],"stateMutability":"nonpayable","type":"function"},{"inputs":[],"name":"isChallengePeriod","outputs":[{"internalType":"bool","name":"","type":"bool"}],"stateMutability":"view","type":"function"},{"inputs":[],"name":"isPendingActive","outputs":[{"internalType":"bool","name":"isActive","type":"bool"}],"stateMutability":"view","type":"function"},{"inputs":[],"name":"isProposeWindowActive","outputs":[{"internalType":"bool","name":"","type":"bool"}],"stateMutability":"view","type":"function"},{"inputs":[],"name":"oracle","outputs":[{"internalType":"address","name":"","type":"address"}],"stateMutability":"view","type":"function"},{"inputs":[],"name":"pendingMerkleRoot","outputs":[{"internalType":"bytes32","name":"","type":"bytes32"}],"stateMutability":"view","type":"function"},{"inputs":[{"internalType":"bytes32","name":"_sharesMerkleRoot","type":"bytes32"},{"internalType":"bytes32","name":"_sharesUri","type":"bytes32"}],"name":"proposeShares","outputs":[],"stateMutability":"nonpayable","type":"function"},{"inputs":[{"internalType":"address","name":"","type":"address"},{"internalType":"address","name":"","type":"address"}],"name":"providers","outputs":[{"internalType":"uint256","name":"","type":"uint256"}],"stateMutability":"view","type":"function"},{"inputs":[],"name":"rewardRulesetUri","outputs":[{"internalType":"bytes32","name":"","type":"bytes32"}],"stateMutability":"view","type":"function"},{"inputs":[{"internalType":"address","name":"account","type":"address"},{"internalType":"uint256","name":"share","type":"uint256"},{"internalType":"address","name":"asset","type":"address"}],"name":"rewardsAvailableToClaimer","outputs":[{"internalType":"uint256","name":"total","type":"uint256"}],"stateMutability":"view","type":"function"},{"inputs":[{"internalType":"bool","name":"_lock","type":"bool"}],"name":"setSharesLock","outputs":[],"stateMutability":"nonpayable","type":"function"},{"inputs":[],"name":"sharesLocked","outputs":[{"internalType":"bool","name":"","type":"bool"}],"stateMutability":"view","type":"function"},{"inputs":[{"internalType":"address","name":"","type":"address"}],"name":"totalClaimed","outputs":[{"internalType":"uint256","name":"","type":"uint256"}],"stateMutability":"view","type":"function"},{"inputs":[{"internalType":"address","name":"","type":"address"}],"name":"totalProvided","outputs":[{"internalType":"uint256","name":"","type":"uint256"}],"stateMutability":"view","type":"function"},{"inputs":[{"internalType":"address","name":"asset","type":"address"}],"name":"totalReceived","outputs":[{"internalType":"uint256","name":"total","type":"uint256"}],"stateMutability":"view","type":"function"},{"inputs":[{"internalType":"address","name":"account","type":"address"},{"internalType":"uint256","name":"share","type":"uint256"},{"internalType":"bytes32[]","name":"proof","type":"bytes32[]"}],"name":"verifyShares","outputs":[],"stateMutability":"view","type":"function"},{"inputs":[{"internalType":"address","name":"account","type":"address"},{"internalType":"address","name":"asset","type":"address"}],"name":"withdrawAssets","outputs":[],"stateMutability":"nonpayable","type":"function"},{"stateMutability":"payable","type":"receive"}],"devdoc":{"kind":"dev","methods":{},"title":"Campaign","version":1},"evm":{"bytecode":{"linkReferences":{},"object":"608060405234801561001057600080fd5b50600180556119f8806100246000396000f3fe6080604052600436106101fc5760003560e01c80637cc0cdf21161010d578063a9ec3a1b116100a0578063c3a079ed1161006f578063c3a079ed146105c1578063d2ef7398146105d7578063da4493f6146105ec578063ef5d9ae814610602578063f851a4401461062f57600080fd5b8063a9ec3a1b1461054b578063be8b768614610561578063c1d8994114610581578063c24e4778146105a157600080fd5b80639637f475116100dc5780639637f475146104ea578063977aa88b14610500578063980e784414610516578063a98acb461461052b57600080fd5b80637cc0cdf21461045c5780637dc0d1d01461047657806385e3f997146104ae5780638abb5d22146104ca57600080fd5b80634df9cfb31161019057806375e07c2d1161015f57806375e07c2d146103f45780637a40624b146104095780637b1837de1461041f5780637c99ca6d146104325780637cbb7d5e1461044757600080fd5b80634df9cfb31461037e578063531e050d1461039e57806363a5b88d146103be5780636c4fbc4a146103dd57600080fd5b806327ce11cb116101cc57806327ce11cb146102de5780633e1619401461030b57806340bcf74814610321578063449497281461035957600080fd5b80627c4d511461023d5780630c9cbf0e14610266578063162dfe001461029e57806317b9d05e146102be57600080fd5b3661023857600e54610100900460ff161561022a5760405163a99e45dd60e01b815260040160405180910390fd5b6102363460003361064f565b005b600080fd5b34801561024957600080fd5b5061025360045481565b6040519081526020015b60405180910390f35b34801561027257600080fd5b506102536102813660046115a8565b600d60209081526000928352604080842090915290825290205481565b3480156102aa57600080fd5b506102366102b9366004611641565b610726565b3480156102ca57600080fd5b506102366102d93660046117d1565b6107d9565b3480156102ea57600080fd5b506102536102f936600461158d565b60106020526000908152604090205481565b34801561031757600080fd5b5061025360035481565b34801561032d57600080fd5b5061025361033c3660046115a8565b600f60209081526000928352604080842090915290825290205481565b34801561036557600080fd5b5061036e6108b9565b604051901515815260200161025d565b34801561038a57600080fd5b5061025361039936600461158d565b6108df565b3480156103aa57600080fd5b506102366103b9366004611736565b610911565b3480156103ca57600080fd5b50600e5461036e90610100900460ff1681565b3480156103e957600080fd5b50600754421061036e565b34801561040057600080fd5b50610253610983565b34801561041557600080fd5b5061025360085481565b61023661042d3660046115db565b6109a1565b34801561043e57600080fd5b5061036e610a2c565b34801561045357600080fd5b50610236610a44565b34801561046857600080fd5b50600e5461036e9060ff1681565b34801561048257600080fd5b50600b54610496906001600160a01b031681565b6040516001600160a01b03909116815260200161025d565b3480156104ba57600080fd5b50610253670de0b6b3a764000081565b3480156104d657600080fd5b506102366104e536600461169b565b610a92565b3480156104f657600080fd5b5061025360065481565b34801561050c57600080fd5b5061025360095481565b34801561052257600080fd5b50610236610b53565b34801561053757600080fd5b50610236610546366004611770565b610bb8565b34801561055757600080fd5b5061025360055481565b34801561056d57600080fd5b5061025361057c366004611605565b610d20565b34801561058d57600080fd5b5061025361059c36600461158d565b610d83565b3480156105ad57600080fd5b506102366105bc3660046115a8565b610e17565b3480156105cd57600080fd5b5061025360025481565b3480156105e357600080fd5b50610236610f56565b3480156105f857600080fd5b5061025360075481565b34801561060e57600080fd5b5061025361061d36600461158d565b600c6020526000908152604090205481565b34801561063b57600080fd5b50600a54610496906001600160a01b031681565b6001600160a01b038083166000908152600f6020908152604080832093851683529290529081208054859290610686908490611892565b90915550506001600160a01b038216600090815260106020526040812080548592906106b3908490611892565b90915550506001600160a01b038216156106dc576106dc6001600160a01b038316823086610fd5565b604080518481526001600160a01b0384811660208301528316917fa5e8482b3a4fbac393476288e591dd9316d7304a537b26f9b67167f0ce19750f910160405180910390a2505050565b6000610730610983565b6040516bffffffffffffffffffffffff19606088901b166020820152603481018690529091506000906054016040516020818303038152906040528051906020012090506107b48484808060200260200160405190810160405280939291908181526020018383602002808284376000920191909152508692508591506110469050565b6107d1576040516309bde33960e01b815260040160405180910390fd5b505050505050565b600b546001600160a01b03163314610804576040516380fee10560e01b815260040160405180910390fd5b600e5460ff161561082857604051634c167e3b60e01b815260040160405180910390fd5b600e54610100900460ff16156108515760405163a99e45dd60e01b815260040160405180910390fd5b610859610a44565b600680546005558290556002546108709042611892565b6007819055604080518481526020810184905280820192909252517f93d244ac7b8f4282b061b1dcb3f543f36f06af40a7bfdefe04fc913ef7ea54f99181900360600190a15050565b6000600454600354600854426108cf91906118dd565b6108d9919061195b565b10905090565b6001600160a01b0381166000908152600c602052604081205461090183610d83565b61090b9190611892565b92915050565b600a546001600160a01b0316331461093c57604051634755657960e01b815260040160405180910390fd5b600e805460ff19168215159081179091556040519081527f161c6403efb8e4c55a592ebbe46f13ba803dd00cb970b735606b6518eb5475ff9060200160405180910390a150565b600061098d610a2c565b610998575060055490565b6006545b905090565b600260015414156109cd5760405162461bcd60e51b81526004016109c49061185b565b60405180910390fd5b6002600155600e54610100900460ff16156109fb5760405163a99e45dd60e01b815260040160405180910390fd5b6001600160a01b038216610a1957610a1434833361064f565b610a24565b610a2481833361064f565b505060018055565b6006546000901580159061099c575050600754421190565b600754421015610a695760405163ddc07f7160e01b81524260048201526024016109c4565b610a716108b9565b610a90576040516303ab46c160e11b81524260048201526024016109c4565b565b60026001541415610ab55760405162461bcd60e51b81526004016109c49061185b565b6002600155600e54610100900460ff1615610ae35760405163a99e45dd60e01b815260040160405180910390fd5b610aef87878787610726565b60005b60ff8116831115610b4557610b33888886868560ff16818110610b1757610b1761199b565b9050602002016020810190610b2c919061158d565b338661105c565b80610b3d8161193b565b915050610af2565b505060018055505050505050565b600a546001600160a01b03163314610b7e57604051634755657960e01b815260040160405180910390fd5b600e805461ff0019166101001790556040517f123d4f203b2b83bfe9f45903402bb88193cc56a43371d97ab5a51bd1817d858690600090a1565b600054610100900460ff1615808015610bd85750600054600160ff909116105b80610bf25750303b158015610bf2575060005460ff166001145b610c555760405162461bcd60e51b815260206004820152602e60248201527f496e697469616c697a61626c653a20636f6e747261637420697320616c72656160448201526d191e481a5b9a5d1a585b1a5e995960921b60648201526084016109c4565b6000805460ff191660011790558015610c78576000805461ff0019166101001790555b6009889055600a80546001600160a01b03808a166001600160a01b031992831617909255600b80549289169290911691909117905584610cb85742610cba565b845b600755426008556002849055600383905560048290558015610d16576000805461ff0019169055604051600181527f7f26b83ff96e1f2b6a682f133852f6798a09c465da95921460cefb38474024989060200160405180910390a15b5050505050505050565b6001600160a01b038082166000908152600d60209081526040808320938716835292905290812054670de0b6b3a764000084610d5b856108df565b610d6591906118be565b610d6f91906118aa565b610d7991906118dd565b90505b9392505050565b60006001600160a01b03821615610e10576040516370a0823160e01b81523060048201526001600160a01b038316906370a082319060240160206040518083038186803b158015610dd357600080fd5b505afa158015610de7573d6000803e3d6000fd5b505050506040513d601f19601f82011682018060405250810190610e0b91906117f3565b61090b565b4792915050565b60026001541415610e3a5760405162461bcd60e51b81526004016109c49061185b565b6002600155600e54610100900460ff1615610f3d576001600160a01b03808216600090815260106020908152604080832054600f8352818420948716845293909152812054909190610e8b84610d83565b610e9591906118be565b610e9f91906118aa565b905080610ebf57604051635da3252f60e11b815260040160405180910390fd5b6001600160a01b038083166000908152600f60209081526040808320938716835292905290812055610ef283828461116f565b604080518281526001600160a01b0384811660208301528516917f56c54ba9bd38d8fd62012e42c7ee564519b09763c426d331b3661b537ead19b2910160405180910390a250610a24565b60405163209a769d60e11b815260040160405180910390fd5b600a546001600160a01b03163314610f8157604051634755657960e01b815260040160405180910390fd5b6007544210610fa557604051633e71b1bf60e11b81524260048201526024016109c4565b600060068190556040517fa0f4a9a971d0d41496054a6616f175690f8b322091fcd26dc9e81fc96d4124849190a1565b6040516001600160a01b03808516602483015283166044820152606481018290526110409085906323b872dd60e01b906084015b60408051601f198184030181529190526020810180516001600160e01b03166001600160e01b031990931692909217909152611231565b50505050565b6000826110538584611303565b14949350505050565b6000611069868686610d20565b6001600160a01b038086166000908152600d60209081526040808320938b168352929052908120805492935083929091906110a5908490611892565b90915550506001600160a01b0384166000908152600c6020526040812080548392906110d2908490611892565b90915550506001600160a01b038381169087161480156110fa57506001600160a01b03821615155b1561110f5761110a82828661116f565b61111a565b61111a86828661116f565b60408051868152602081018390526001600160a01b03868116828401529151918816917fb6fe5ce185a3773d47e919f57c7edfd102c91cb7833b2be405c4de89d9980fd79181900360600190a2505050505050565b6001600160a01b038116611218576000836001600160a01b03168360405160006040518083038185875af1925050503d80600081146111ca576040519150601f19603f3d011682016040523d82523d6000602084013e6111cf565b606091505b50509050806110405760405162461bcd60e51b8152602060048201526015602482015274195d1a195c881d1c985b9cd9995c8819985a5b1959605a1b60448201526064016109c4565b61122c6001600160a01b0382168484611350565b505050565b6000611286826040518060400160405280602081526020017f5361666545524332303a206c6f772d6c6576656c2063616c6c206661696c6564815250856001600160a01b03166113809092919063ffffffff16565b80519091501561122c57808060200190518101906112a49190611753565b61122c5760405162461bcd60e51b815260206004820152602a60248201527f5361666545524332303a204552433230206f7065726174696f6e20646964206e6044820152691bdd081cdd58d8d9595960b21b60648201526084016109c4565b600081815b845181101561134857611334828683815181106113275761132761199b565b602002602001015161138f565b91508061134081611920565b915050611308565b509392505050565b6040516001600160a01b03831660248201526044810182905261122c90849063a9059cbb60e01b90606401611009565b6060610d7984846000856113bb565b60008183106113ab576000828152602084905260409020610d7c565b5060009182526020526040902090565b60608247101561141c5760405162461bcd60e51b815260206004820152602660248201527f416464726573733a20696e73756666696369656e742062616c616e636520666f6044820152651c8818d85b1b60d21b60648201526084016109c4565b6001600160a01b0385163b6114735760405162461bcd60e51b815260206004820152601d60248201527f416464726573733a2063616c6c20746f206e6f6e2d636f6e747261637400000060448201526064016109c4565b600080866001600160a01b0316858760405161148f919061180c565b60006040518083038185875af1925050503d80600081146114cc576040519150601f19603f3d011682016040523d82523d6000602084013e6114d1565b606091505b50915091506114e18282866114ec565b979650505050505050565b606083156114fb575081610d7c565b82511561150b5782518084602001fd5b8160405162461bcd60e51b81526004016109c49190611828565b80356001600160a01b038116811461153c57600080fd5b919050565b60008083601f84011261155357600080fd5b50813567ffffffffffffffff81111561156b57600080fd5b6020830191508360208260051b850101111561158657600080fd5b9250929050565b60006020828403121561159f57600080fd5b610d7c82611525565b600080604083850312156115bb57600080fd5b6115c483611525565b91506115d260208401611525565b90509250929050565b600080604083850312156115ee57600080fd5b6115f783611525565b946020939093013593505050565b60008060006060848603121561161a57600080fd5b61162384611525565b92506020840135915061163860408501611525565b90509250925092565b6000806000806060858703121561165757600080fd5b61166085611525565b935060208501359250604085013567ffffffffffffffff81111561168357600080fd5b61168f87828801611541565b95989497509550505050565b600080600080600080600060a0888a0312156116b657600080fd5b6116bf88611525565b965060208801359550604088013567ffffffffffffffff808211156116e357600080fd5b6116ef8b838c01611541565b909750955060608a013591508082111561170857600080fd5b506117158a828b01611541565b9094509250611728905060808901611525565b905092959891949750929550565b60006020828403121561174857600080fd5b8135610d7c816119b1565b60006020828403121561176557600080fd5b8151610d7c816119b1565b600080600080600080600060e0888a03121561178b57600080fd5b8735965061179b60208901611525565b95506117a960408901611525565b969995985095966060810135965060808101359560a0820135955060c0909101359350915050565b600080604083850312156117e457600080fd5b50508035926020909101359150565b60006020828403121561180557600080fd5b5051919050565b6000825161181e8184602087016118f4565b9190910192915050565b60208152600082518060208401526118478160408501602087016118f4565b601f01601f19169190910160400192915050565b6020808252601f908201527f5265656e7472616e637947756172643a207265656e7472616e742063616c6c00604082015260600190565b600082198211156118a5576118a561196f565b500190565b6000826118b9576118b9611985565b500490565b60008160001904831182151516156118d8576118d861196f565b500290565b6000828210156118ef576118ef61196f565b500390565b60005b8381101561190f5781810151838201526020016118f7565b838111156110405750506000910152565b60006000198214156119345761193461196f565b5060010190565b600060ff821660ff8114156119525761195261196f565b60010192915050565b60008261196a5761196a611985565b500690565b634e487b7160e01b600052601160045260246000fd5b634e487b7160e01b600052601260045260246000fd5b634e487b7160e01b600052603260045260246000fd5b80151581146119bf57600080fd5b5056fea26469706673582212203b2b6641de37c1cab3b07367576eea4d8c76af903c16f2f0e7f5ba573ed1d4f164736f6c63430008060033","opcodes":"PUSH1 0x80 PUSH1 0x40 MSTORE CALLVALUE DUP1 ISZERO PUSH2 0x10 JUMPI PUSH1 0x0 DUP1 REVERT JUMPDEST POP PUSH1 0x1 DUP1 SSTORE PUSH2 0x19F8 DUP1 PUSH2 0x24 PUSH1 0x0 CODECOPY PUSH1 0x0 RETURN INVALID PUSH1 0x80 PUSH1 0x40 MSTORE PUSH1 0x4 CALLDATASIZE LT PUSH2 0x1FC JUMPI PUSH1 0x0 CALLDATALOAD PUSH1 0xE0 SHR DUP1 PUSH4 0x7CC0CDF2 GT PUSH2 0x10D JUMPI DUP1 PUSH4 0xA9EC3A1B GT PUSH2 0xA0 JUMPI DUP1 PUSH4 0xC3A079ED GT PUSH2 0x6F JUMPI DUP1 PUSH4 0xC3A079ED EQ PUSH2 0x5C1 JUMPI DUP1 PUSH4 0xD2EF7398 EQ PUSH2 0x5D7 JUMPI DUP1 PUSH4 0xDA4493F6 EQ PUSH2 0x5EC JUMPI DUP1 PUSH4 0xEF5D9AE8 EQ PUSH2 0x602 JUMPI DUP1 PUSH4 0xF851A440 EQ PUSH2 0x62F JUMPI PUSH1 0x0 DUP1 REVERT JUMPDEST DUP1 PUSH4 0xA9EC3A1B EQ PUSH2 0x54B JUMPI DUP1 PUSH4 0xBE8B7686 EQ PUSH2 0x561 JUMPI DUP1 PUSH4 0xC1D89941 EQ PUSH2 0x581 JUMPI DUP1 PUSH4 0xC24E4778 EQ PUSH2 0x5A1 JUMPI PUSH1 0x0 DUP1 REVERT JUMPDEST DUP1 PUSH4 0x9637F475 GT PUSH2 0xDC JUMPI DUP1 PUSH4 0x9637F475 EQ PUSH2 0x4EA JUMPI DUP1 PUSH4 0x977AA88B EQ PUSH2 0x500 JUMPI DUP1 PUSH4 0x980E7844 EQ PUSH2 0x516 JUMPI DUP1 PUSH4 0xA98ACB46 EQ PUSH2 0x52B JUMPI PUSH1 0x0 DUP1 REVERT JUMPDEST DUP1 PUSH4 0x7CC0CDF2 EQ PUSH2 0x45C JUMPI DUP1 PUSH4 0x7DC0D1D0 EQ PUSH2 0x476 JUMPI DUP1 PUSH4 0x85E3F997 EQ PUSH2 0x4AE JUMPI DUP1 PUSH4 0x8ABB5D22 EQ PUSH2 0x4CA JUMPI PUSH1 0x0 DUP1 REVERT JUMPDEST DUP1 PUSH4 0x4DF9CFB3 GT PUSH2 0x190 JUMPI DUP1 PUSH4 0x75E07C2D GT PUSH2 0x15F JUMPI DUP1 PUSH4 0x75E07C2D EQ PUSH2 0x3F4 JUMPI DUP1 PUSH4 0x7A40624B EQ PUSH2 0x409 JUMPI DUP1 PUSH4 0x7B1837DE EQ PUSH2 0x41F JUMPI DUP1 PUSH4 0x7C99CA6D EQ PUSH2 0x432 JUMPI DUP1 PUSH4 0x7CBB7D5E EQ PUSH2 0x447 JUMPI PUSH1 0x0 DUP1 REVERT JUMPDEST DUP1 PUSH4 0x4DF9CFB3 EQ PUSH2 0x37E JUMPI DUP1 PUSH4 0x531E050D EQ PUSH2 0x39E JUMPI DUP1 PUSH4 0x63A5B88D EQ PUSH2 0x3BE JUMPI DUP1 PUSH4 0x6C4FBC4A EQ PUSH2 0x3DD JUMPI PUSH1 0x0 DUP1 REVERT JUMPDEST DUP1 PUSH4 0x27CE11CB GT PUSH2 0x1CC JUMPI DUP1 PUSH4 0x27CE11CB EQ PUSH2 0x2DE JUMPI DUP1 PUSH4 0x3E161940 EQ PUSH2 0x30B JUMPI DUP1 PUSH4 0x40BCF748 EQ PUSH2 0x321 JUMPI DUP1 PUSH4 0x44949728 EQ PUSH2 0x359 JUMPI PUSH1 0x0 DUP1 REVERT JUMPDEST DUP1 PUSH3 0x7C4D51 EQ PUSH2 0x23D JUMPI DUP1 PUSH4 0xC9CBF0E EQ PUSH2 0x266 JUMPI DUP1 PUSH4 0x162DFE00 EQ PUSH2 0x29E JUMPI DUP1 PUSH4 0x17B9D05E EQ PUSH2 0x2BE JUMPI PUSH1 0x0 DUP1 REVERT JUMPDEST CALLDATASIZE PUSH2 0x238 JUMPI PUSH1 0xE SLOAD PUSH2 0x100 SWAP1 DIV PUSH1 0xFF AND ISZERO PUSH2 0x22A JUMPI PUSH1 0x40 MLOAD PUSH4 0xA99E45DD PUSH1 0xE0 SHL DUP2 MSTORE PUSH1 0x4 ADD PUSH1 0x40 MLOAD DUP1 SWAP2 SUB SWAP1 REVERT JUMPDEST PUSH2 0x236 CALLVALUE PUSH1 0x0 CALLER PUSH2 0x64F JUMP JUMPDEST STOP JUMPDEST PUSH1 0x0 DUP1 REVERT JUMPDEST CALLVALUE DUP1 ISZERO PUSH2 0x249 JUMPI PUSH1 0x0 DUP1 REVERT JUMPDEST POP PUSH2 0x253 PUSH1 0x4 SLOAD DUP2 JUMP JUMPDEST PUSH1 0x40 MLOAD SWAP1 DUP2 MSTORE PUSH1 0x20 ADD JUMPDEST PUSH1 0x40 MLOAD DUP1 SWAP2 SUB SWAP1 RETURN JUMPDEST CALLVALUE DUP1 ISZERO PUSH2 0x272 JUMPI PUSH1 0x0 DUP1 REVERT JUMPDEST POP PUSH2 0x253 PUSH2 0x281 CALLDATASIZE PUSH1 0x4 PUSH2 0x15A8 JUMP JUMPDEST PUSH1 0xD PUSH1 0x20 SWAP1 DUP2 MSTORE PUSH1 0x0 SWAP3 DUP4 MSTORE PUSH1 0x40 DUP1 DUP5 KECCAK256 SWAP1 SWAP2 MSTORE SWAP1 DUP3 MSTORE SWAP1 KECCAK256 SLOAD DUP2 JUMP JUMPDEST CALLVALUE DUP1 ISZERO PUSH2 0x2AA JUMPI PUSH1 0x0 DUP1 REVERT JUMPDEST POP PUSH2 0x236 PUSH2 0x2B9 CALLDATASIZE PUSH1 0x4 PUSH2 0x1641 JUMP JUMPDEST PUSH2 0x726 JUMP JUMPDEST CALLVALUE DUP1 ISZERO PUSH2 0x2CA JUMPI PUSH1 0x0 DUP1 REVERT JUMPDEST POP PUSH2 0x236 PUSH2 0x2D9 CALLDATASIZE PUSH1 0x4 PUSH2 0x17D1 JUMP JUMPDEST PUSH2 0x7D9 JUMP JUMPDEST CALLVALUE DUP1 ISZERO PUSH2 0x2EA JUMPI PUSH1 0x0 DUP1 REVERT JUMPDEST POP PUSH2 0x253 PUSH2 0x2F9 CALLDATASIZE PUSH1 0x4 PUSH2 0x158D JUMP JUMPDEST PUSH1 0x10 PUSH1 0x20 MSTORE PUSH1 0x0 SWAP1 DUP2 MSTORE PUSH1 0x40 SWAP1 KECCAK256 SLOAD DUP2 JUMP JUMPDEST CALLVALUE DUP1 ISZERO PUSH2 0x317 JUMPI PUSH1 0x0 DUP1 REVERT JUMPDEST POP PUSH2 0x253 PUSH1 0x3 SLOAD DUP2 JUMP JUMPDEST CALLVALUE DUP1 ISZERO PUSH2 0x32D JUMPI PUSH1 0x0 DUP1 REVERT JUMPDEST POP PUSH2 0x253 PUSH2 0x33C CALLDATASIZE PUSH1 0x4 PUSH2 0x15A8 JUMP JUMPDEST PUSH1 0xF PUSH1 0x20 SWAP1 DUP2 MSTORE PUSH1 0x0 SWAP3 DUP4 MSTORE PUSH1 0x40 DUP1 DUP5 KECCAK256 SWAP1 SWAP2 MSTORE SWAP1 DUP3 MSTORE SWAP1 KECCAK256 SLOAD DUP2 JUMP JUMPDEST CALLVALUE DUP1 ISZERO PUSH2 0x365 JUMPI PUSH1 0x0 DUP1 REVERT JUMPDEST POP PUSH2 0x36E PUSH2 0x8B9 JUMP JUMPDEST PUSH1 0x40 MLOAD SWAP1 ISZERO ISZERO DUP2 MSTORE PUSH1 0x20 ADD PUSH2 0x25D JUMP JUMPDEST CALLVALUE DUP1 ISZERO PUSH2 0x38A JUMPI PUSH1 0x0 DUP1 REVERT JUMPDEST POP PUSH2 0x253 PUSH2 0x399 CALLDATASIZE PUSH1 0x4 PUSH2 0x158D JUMP JUMPDEST PUSH2 0x8DF JUMP JUMPDEST CALLVALUE DUP1 ISZERO PUSH2 0x3AA JUMPI PUSH1 0x0 DUP1 REVERT JUMPDEST POP PUSH2 0x236 PUSH2 0x3B9 CALLDATASIZE PUSH1 0x4 PUSH2 0x1736 JUMP JUMPDEST PUSH2 0x911 JUMP JUMPDEST CALLVALUE DUP1 ISZERO PUSH2 0x3CA JUMPI PUSH1 0x0 DUP1 REVERT JUMPDEST POP PUSH1 0xE SLOAD PUSH2 0x36E SWAP1 PUSH2 0x100 SWAP1 DIV PUSH1 0xFF AND DUP2 JUMP JUMPDEST CALLVALUE DUP1 ISZERO PUSH2 0x3E9 JUMPI PUSH1 0x0 DUP1 REVERT JUMPDEST POP PUSH1 0x7 SLOAD TIMESTAMP LT PUSH2 0x36E JUMP JUMPDEST CALLVALUE DUP1 ISZERO PUSH2 0x400 JUMPI PUSH1 0x0 DUP1 REVERT JUMPDEST POP PUSH2 0x253 PUSH2 0x983 JUMP JUMPDEST CALLVALUE DUP1 ISZERO PUSH2 0x415 JUMPI PUSH1 0x0 DUP1 REVERT JUMPDEST POP PUSH2 0x253 PUSH1 0x8 SLOAD DUP2 JUMP JUMPDEST PUSH2 0x236 PUSH2 0x42D CALLDATASIZE PUSH1 0x4 PUSH2 0x15DB JUMP JUMPDEST PUSH2 0x9A1 JUMP JUMPDEST CALLVALUE DUP1 ISZERO PUSH2 0x43E JUMPI PUSH1 0x0 DUP1 REVERT JUMPDEST POP PUSH2 0x36E PUSH2 0xA2C JUMP JUMPDEST CALLVALUE DUP1 ISZERO PUSH2 0x453 JUMPI PUSH1 0x0 DUP1 REVERT JUMPDEST POP PUSH2 0x236 PUSH2 0xA44 JUMP JUMPDEST CALLVALUE DUP1 ISZERO PUSH2 0x468 JUMPI PUSH1 0x0 DUP1 REVERT JUMPDEST POP PUSH1 0xE SLOAD PUSH2 0x36E SWAP1 PUSH1 0xFF AND DUP2 JUMP JUMPDEST CALLVALUE DUP1 ISZERO PUSH2 0x482 JUMPI PUSH1 0x0 DUP1 REVERT JUMPDEST POP PUSH1 0xB SLOAD PUSH2 0x496 SWAP1 PUSH1 0x1 PUSH1 0x1 PUSH1 0xA0 SHL SUB AND DUP2 JUMP JUMPDEST PUSH1 0x40 MLOAD PUSH1 0x1 PUSH1 0x1 PUSH1 0xA0 SHL SUB SWAP1 SWAP2 AND DUP2 MSTORE PUSH1 0x20 ADD PUSH2 0x25D JUMP JUMPDEST CALLVALUE DUP1 ISZERO PUSH2 0x4BA JUMPI PUSH1 0x0 DUP1 REVERT JUMPDEST POP PUSH2 0x253 PUSH8 0xDE0B6B3A7640000 DUP2 JUMP JUMPDEST CALLVALUE DUP1 ISZERO PUSH2 0x4D6 JUMPI PUSH1 0x0 DUP1 REVERT JUMPDEST POP PUSH2 0x236 PUSH2 0x4E5 CALLDATASIZE PUSH1 0x4 PUSH2 0x169B JUMP JUMPDEST PUSH2 0xA92 JUMP JUMPDEST CALLVALUE DUP1 ISZERO PUSH2 0x4F6 JUMPI PUSH1 0x0 DUP1 REVERT JUMPDEST POP PUSH2 0x253 PUSH1 0x6 SLOAD DUP2 JUMP JUMPDEST CALLVALUE DUP1 ISZERO PUSH2 0x50C JUMPI PUSH1 0x0 DUP1 REVERT JUMPDEST POP PUSH2 0x253 PUSH1 0x9 SLOAD DUP2 JUMP JUMPDEST CALLVALUE DUP1 ISZERO PUSH2 0x522 JUMPI PUSH1 0x0 DUP1 REVERT JUMPDEST POP PUSH2 0x236 PUSH2 0xB53 JUMP JUMPDEST CALLVALUE DUP1 ISZERO PUSH2 0x537 JUMPI PUSH1 0x0 DUP1 REVERT JUMPDEST POP PUSH2 0x236 PUSH2 0x546 CALLDATASIZE PUSH1 0x4 PUSH2 0x1770 JUMP JUMPDEST PUSH2 0xBB8 JUMP JUMPDEST CALLVALUE DUP1 ISZERO PUSH2 0x557 JUMPI PUSH1 0x0 DUP1 REVERT JUMPDEST POP PUSH2 0x253 PUSH1 0x5 SLOAD DUP2 JUMP JUMPDEST CALLVALUE DUP1 ISZERO PUSH2 0x56D JUMPI PUSH1 0x0 DUP1 REVERT JUMPDEST POP PUSH2 0x253 PUSH2 0x57C CALLDATASIZE PUSH1 0x4 PUSH2 0x1605 JUMP JUMPDEST PUSH2 0xD20 JUMP JUMPDEST CALLVALUE DUP1 ISZERO PUSH2 0x58D JUMPI PUSH1 0x0 DUP1 REVERT JUMPDEST POP PUSH2 0x253 PUSH2 0x59C CALLDATASIZE PUSH1 0x4 PUSH2 0x158D JUMP JUMPDEST PUSH2 0xD83 JUMP JUMPDEST CALLVALUE DUP1 ISZERO PUSH2 0x5AD JUMPI PUSH1 0x0 DUP1 REVERT JUMPDEST POP PUSH2 0x236 PUSH2 0x5BC CALLDATASIZE PUSH1 0x4 PUSH2 0x15A8 JUMP JUMPDEST PUSH2 0xE17 JUMP JUMPDEST CALLVALUE DUP1 ISZERO PUSH2 0x5CD JUMPI PUSH1 0x0 DUP1 REVERT JUMPDEST POP PUSH2 0x253 PUSH1 0x2 SLOAD DUP2 JUMP JUMPDEST CALLVALUE DUP1 ISZERO PUSH2 0x5E3 JUMPI PUSH1 0x0 DUP1 REVERT JUMPDEST POP PUSH2 0x236 PUSH2 0xF56 JUMP JUMPDEST CALLVALUE DUP1 ISZERO PUSH2 0x5F8 JUMPI PUSH1 0x0 DUP1 REVERT JUMPDEST POP PUSH2 0x253 PUSH1 0x7 SLOAD DUP2 JUMP JUMPDEST CALLVALUE DUP1 ISZERO PUSH2 0x60E JUMPI PUSH1 0x0 DUP1 REVERT JUMPDEST POP PUSH2 0x253 PUSH2 0x61D CALLDATASIZE PUSH1 0x4 PUSH2 0x158D JUMP JUMPDEST PUSH1 0xC PUSH1 0x20 MSTORE PUSH1 0x0 SWAP1 DUP2 MSTORE PUSH1 0x40 SWAP1 KECCAK256 SLOAD DUP2 JUMP JUMPDEST CALLVALUE DUP1 ISZERO PUSH2 0x63B JUMPI PUSH1 0x0 DUP1 REVERT JUMPDEST POP PUSH1 0xA SLOAD PUSH2 0x496 SWAP1 PUSH1 0x1 PUSH1 0x1 PUSH1 0xA0 SHL SUB AND DUP2 JUMP JUMPDEST PUSH1 0x1 PUSH1 0x1 PUSH1 0xA0 SHL SUB DUP1 DUP4 AND PUSH1 0x0 SWAP1 DUP2 MSTORE PUSH1 0xF PUSH1 0x20 SWAP1 DUP2 MSTORE PUSH1 0x40 DUP1 DUP4 KECCAK256 SWAP4 DUP6 AND DUP4 MSTORE SWAP3 SWAP1 MSTORE SWAP1 DUP2 KECCAK256 DUP1 SLOAD DUP6 SWAP3 SWAP1 PUSH2 0x686 SWAP1 DUP5 SWAP1 PUSH2 0x1892 JUMP JUMPDEST SWAP1 SWAP2 SSTORE POP POP PUSH1 0x1 PUSH1 0x1 PUSH1 0xA0 SHL SUB DUP3 AND PUSH1 0x0 SWAP1 DUP2 MSTORE PUSH1 0x10 PUSH1 0x20 MSTORE PUSH1 0x40 DUP2 KECCAK256 DUP1 SLOAD DUP6 SWAP3 SWAP1 PUSH2 0x6B3 SWAP1 DUP5 SWAP1 PUSH2 0x1892 JUMP JUMPDEST SWAP1 SWAP2 SSTORE POP POP PUSH1 0x1 PUSH1 0x1 PUSH1 0xA0 SHL SUB DUP3 AND ISZERO PUSH2 0x6DC JUMPI PUSH2 0x6DC PUSH1 0x1 PUSH1 0x1 PUSH1 0xA0 SHL SUB DUP4 AND DUP3 ADDRESS DUP7 PUSH2 0xFD5 JUMP JUMPDEST PUSH1 0x40 DUP1 MLOAD DUP5 DUP2 MSTORE PUSH1 0x1 PUSH1 0x1 PUSH1 0xA0 SHL SUB DUP5 DUP2 AND PUSH1 0x20 DUP4 ADD MSTORE DUP4 AND SWAP2 PUSH32 0xA5E8482B3A4FBAC393476288E591DD9316D7304A537B26F9B67167F0CE19750F SWAP2 ADD PUSH1 0x40 MLOAD DUP1 SWAP2 SUB SWAP1 LOG2 POP POP POP JUMP JUMPDEST PUSH1 0x0 PUSH2 0x730 PUSH2 0x983 JUMP JUMPDEST PUSH1 0x40 MLOAD PUSH12 0xFFFFFFFFFFFFFFFFFFFFFFFF NOT PUSH1 0x60 DUP9 SWAP1 SHL AND PUSH1 0x20 DUP3 ADD MSTORE PUSH1 0x34 DUP2 ADD DUP7 SWAP1 MSTORE SWAP1 SWAP2 POP PUSH1 0x0 SWAP1 PUSH1 0x54 ADD PUSH1 0x40 MLOAD PUSH1 0x20 DUP2 DUP4 SUB SUB DUP2 MSTORE SWAP1 PUSH1 0x40 MSTORE DUP1 MLOAD SWAP1 PUSH1 0x20 ADD KECCAK256 SWAP1 POP PUSH2 0x7B4 DUP5 DUP5 DUP1 DUP1 PUSH1 0x20 MUL PUSH1 0x20 ADD PUSH1 0x40 MLOAD SWAP1 DUP2 ADD PUSH1 0x40 MSTORE DUP1 SWAP4 SWAP3 SWAP2 SWAP1 DUP2 DUP2 MSTORE PUSH1 0x20 ADD DUP4 DUP4 PUSH1 0x20 MUL DUP1 DUP3 DUP5 CALLDATACOPY PUSH1 0x0 SWAP3 ADD SWAP2 SWAP1 SWAP2 MSTORE POP DUP7 SWAP3 POP DUP6 SWAP2 POP PUSH2 0x1046 SWAP1 POP JUMP JUMPDEST PUSH2 0x7D1 JUMPI PUSH1 0x40 MLOAD PUSH4 0x9BDE339 PUSH1 0xE0 SHL DUP2 MSTORE PUSH1 0x4 ADD PUSH1 0x40 MLOAD DUP1 SWAP2 SUB SWAP1 REVERT JUMPDEST POP POP POP POP POP POP JUMP JUMPDEST PUSH1 0xB SLOAD PUSH1 0x1 PUSH1 0x1 PUSH1 0xA0 SHL SUB AND CALLER EQ PUSH2 0x804 JUMPI PUSH1 0x40 MLOAD PUSH4 0x80FEE105 PUSH1 0xE0 SHL DUP2 MSTORE PUSH1 0x4 ADD PUSH1 0x40 MLOAD DUP1 SWAP2 SUB SWAP1 REVERT JUMPDEST PUSH1 0xE SLOAD PUSH1 0xFF AND ISZERO PUSH2 0x828 JUMPI PUSH1 0x40 MLOAD PUSH4 0x4C167E3B PUSH1 0xE0 SHL DUP2 MSTORE PUSH1 0x4 ADD PUSH1 0x40 MLOAD DUP1 SWAP2 SUB SWAP1 REVERT JUMPDEST PUSH1 0xE SLOAD PUSH2 0x100 SWAP1 DIV PUSH1 0xFF AND ISZERO PUSH2 0x851 JUMPI PUSH1 0x40 MLOAD PUSH4 0xA99E45DD PUSH1 0xE0 SHL DUP2 MSTORE PUSH1 0x4 ADD PUSH1 0x40 MLOAD DUP1 SWAP2 SUB SWAP1 REVERT JUMPDEST PUSH2 0x859 PUSH2 0xA44 JUMP JUMPDEST PUSH1 0x6 DUP1 SLOAD PUSH1 0x5 SSTORE DUP3 SWAP1 SSTORE PUSH1 0x2 SLOAD PUSH2 0x870 SWAP1 TIMESTAMP PUSH2 0x1892 JUMP JUMPDEST PUSH1 0x7 DUP2 SWAP1 SSTORE PUSH1 0x40 DUP1 MLOAD DUP5 DUP2 MSTORE PUSH1 0x20 DUP2 ADD DUP5 SWAP1 MSTORE DUP1 DUP3 ADD SWAP3 SWAP1 SWAP3 MSTORE MLOAD PUSH32 0x93D244AC7B8F4282B061B1DCB3F543F36F06AF40A7BFDEFE04FC913EF7EA54F9 SWAP2 DUP2 SWAP1 SUB PUSH1 0x60 ADD SWAP1 LOG1 POP POP JUMP JUMPDEST PUSH1 0x0 PUSH1 0x4 SLOAD PUSH1 0x3 SLOAD PUSH1 0x8 SLOAD TIMESTAMP PUSH2 0x8CF SWAP2 SWAP1 PUSH2 0x18DD JUMP JUMPDEST PUSH2 0x8D9 SWAP2 SWAP1 PUSH2 0x195B JUMP JUMPDEST LT SWAP1 POP SWAP1 JUMP JUMPDEST PUSH1 0x1 PUSH1 0x1 PUSH1 0xA0 SHL SUB DUP2 AND PUSH1 0x0 SWAP1 DUP2 MSTORE PUSH1 0xC PUSH1 0x20 MSTORE PUSH1 0x40 DUP2 KECCAK256 SLOAD PUSH2 0x901 DUP4 PUSH2 0xD83 JUMP JUMPDEST PUSH2 0x90B SWAP2 SWAP1 PUSH2 0x1892 JUMP JUMPDEST SWAP3 SWAP2 POP POP JUMP JUMPDEST PUSH1 0xA SLOAD PUSH1 0x1 PUSH1 0x1 PUSH1 0xA0 SHL SUB AND CALLER EQ PUSH2 0x93C JUMPI PUSH1 0x40 MLOAD PUSH4 0x47556579 PUSH1 0xE0 SHL DUP2 MSTORE PUSH1 0x4 ADD PUSH1 0x40 MLOAD DUP1 SWAP2 SUB SWAP1 REVERT JUMPDEST PUSH1 0xE DUP1 SLOAD PUSH1 0xFF NOT AND DUP3 ISZERO ISZERO SWAP1 DUP2 OR SWAP1 SWAP2 SSTORE PUSH1 0x40 MLOAD SWAP1 DUP2 MSTORE PUSH32 0x161C6403EFB8E4C55A592EBBE46F13BA803DD00CB970B735606B6518EB5475FF SWAP1 PUSH1 0x20 ADD PUSH1 0x40 MLOAD DUP1 SWAP2 SUB SWAP1 LOG1 POP JUMP JUMPDEST PUSH1 0x0 PUSH2 0x98D PUSH2 0xA2C JUMP JUMPDEST PUSH2 0x998 JUMPI POP PUSH1 0x5 SLOAD SWAP1 JUMP JUMPDEST PUSH1 0x6 SLOAD JUMPDEST SWAP1 POP SWAP1 JUMP JUMPDEST PUSH1 0x2 PUSH1 0x1 SLOAD EQ ISZERO PUSH2 0x9CD JUMPI PUSH1 0x40 MLOAD PUSH3 0x461BCD PUSH1 0xE5 SHL DUP2 MSTORE PUSH1 0x4 ADD PUSH2 0x9C4 SWAP1 PUSH2 0x185B JUMP JUMPDEST PUSH1 0x40 MLOAD DUP1 SWAP2 SUB SWAP1 REVERT JUMPDEST PUSH1 0x2 PUSH1 0x1 SSTORE PUSH1 0xE SLOAD PUSH2 0x100 SWAP1 DIV PUSH1 0xFF AND ISZERO PUSH2 0x9FB JUMPI PUSH1 0x40 MLOAD PUSH4 0xA99E45DD PUSH1 0xE0 SHL DUP2 MSTORE PUSH1 0x4 ADD PUSH1 0x40 MLOAD DUP1 SWAP2 SUB SWAP1 REVERT JUMPDEST PUSH1 0x1 PUSH1 0x1 PUSH1 0xA0 SHL SUB DUP3 AND PUSH2 0xA19 JUMPI PUSH2 0xA14 CALLVALUE DUP4 CALLER PUSH2 0x64F JUMP JUMPDEST PUSH2 0xA24 JUMP JUMPDEST PUSH2 0xA24 DUP2 DUP4 CALLER PUSH2 0x64F JUMP JUMPDEST POP POP PUSH1 0x1 DUP1 SSTORE JUMP JUMPDEST PUSH1 0x6 SLOAD PUSH1 0x0 SWAP1 ISZERO DUP1 ISZERO SWAP1 PUSH2 0x99C JUMPI POP POP PUSH1 0x7 SLOAD TIMESTAMP GT SWAP1 JUMP JUMPDEST PUSH1 0x7 SLOAD TIMESTAMP LT ISZERO PUSH2 0xA69 JUMPI PUSH1 0x40 MLOAD PUSH4 0xDDC07F71 PUSH1 0xE0 SHL DUP2 MSTORE TIMESTAMP PUSH1 0x4 DUP3 ADD MSTORE PUSH1 0x24 ADD PUSH2 0x9C4 JUMP JUMPDEST PUSH2 0xA71 PUSH2 0x8B9 JUMP JUMPDEST PUSH2 0xA90 JUMPI PUSH1 0x40 MLOAD PUSH4 0x3AB46C1 PUSH1 0xE1 SHL DUP2 MSTORE TIMESTAMP PUSH1 0x4 DUP3 ADD MSTORE PUSH1 0x24 ADD PUSH2 0x9C4 JUMP JUMPDEST JUMP JUMPDEST PUSH1 0x2 PUSH1 0x1 SLOAD EQ ISZERO PUSH2 0xAB5 JUMPI PUSH1 0x40 MLOAD PUSH3 0x461BCD PUSH1 0xE5 SHL DUP2 MSTORE PUSH1 0x4 ADD PUSH2 0x9C4 SWAP1 PUSH2 0x185B JUMP JUMPDEST PUSH1 0x2 PUSH1 0x1 SSTORE PUSH1 0xE SLOAD PUSH2 0x100 SWAP1 DIV PUSH1 0xFF AND ISZERO PUSH2 0xAE3 JUMPI PUSH1 0x40 MLOAD PUSH4 0xA99E45DD PUSH1 0xE0 SHL DUP2 MSTORE PUSH1 0x4 ADD PUSH1 0x40 MLOAD DUP1 SWAP2 SUB SWAP1 REVERT JUMPDEST PUSH2 0xAEF DUP8 DUP8 DUP8 DUP8 PUSH2 0x726 JUMP JUMPDEST PUSH1 0x0 JUMPDEST PUSH1 0xFF DUP2 AND DUP4 GT ISZERO PUSH2 0xB45 JUMPI PUSH2 0xB33 DUP9 DUP9 DUP7 DUP7 DUP6 PUSH1 0xFF AND DUP2 DUP2 LT PUSH2 0xB17 JUMPI PUSH2 0xB17 PUSH2 0x199B JUMP JUMPDEST SWAP1 POP PUSH1 0x20 MUL ADD PUSH1 0x20 DUP2 ADD SWAP1 PUSH2 0xB2C SWAP2 SWAP1 PUSH2 0x158D JUMP JUMPDEST CALLER DUP7 PUSH2 0x105C JUMP JUMPDEST DUP1 PUSH2 0xB3D DUP2 PUSH2 0x193B JUMP JUMPDEST SWAP2 POP POP PUSH2 0xAF2 JUMP JUMPDEST POP POP PUSH1 0x1 DUP1 SSTORE POP POP POP POP POP POP JUMP JUMPDEST PUSH1 0xA SLOAD PUSH1 0x1 PUSH1 0x1 PUSH1 0xA0 SHL SUB AND CALLER EQ PUSH2 0xB7E JUMPI PUSH1 0x40 MLOAD PUSH4 0x47556579 PUSH1 0xE0 SHL DUP2 MSTORE PUSH1 0x4 ADD PUSH1 0x40 MLOAD DUP1 SWAP2 SUB SWAP1 REVERT JUMPDEST PUSH1 0xE DUP1 SLOAD PUSH2 0xFF00 NOT AND PUSH2 0x100 OR SWAP1 SSTORE PUSH1 0x40 MLOAD PUSH32 0x123D4F203B2B83BFE9F45903402BB88193CC56A43371D97AB5A51BD1817D8586 SWAP1 PUSH1 0x0 SWAP1 LOG1 JUMP JUMPDEST PUSH1 0x0 SLOAD PUSH2 0x100 SWAP1 DIV PUSH1 0xFF AND ISZERO DUP1 DUP1 ISZERO PUSH2 0xBD8 JUMPI POP PUSH1 0x0 SLOAD PUSH1 0x1 PUSH1 0xFF SWAP1 SWAP2 AND LT JUMPDEST DUP1 PUSH2 0xBF2 JUMPI POP ADDRESS EXTCODESIZE ISZERO DUP1 ISZERO PUSH2 0xBF2 JUMPI POP PUSH1 0x0 SLOAD PUSH1 0xFF AND PUSH1 0x1 EQ JUMPDEST PUSH2 0xC55 JUMPI PUSH1 0x40 MLOAD PUSH3 0x461BCD PUSH1 0xE5 SHL DUP2 MSTORE PUSH1 0x20 PUSH1 0x4 DUP3 ADD MSTORE PUSH1 0x2E PUSH1 0x24 DUP3 ADD MSTORE PUSH32 0x496E697469616C697A61626C653A20636F6E747261637420697320616C726561 PUSH1 0x44 DUP3 ADD MSTORE PUSH14 0x191E481A5B9A5D1A585B1A5E9959 PUSH1 0x92 SHL PUSH1 0x64 DUP3 ADD MSTORE PUSH1 0x84 ADD PUSH2 0x9C4 JUMP JUMPDEST PUSH1 0x0 DUP1 SLOAD PUSH1 0xFF NOT AND PUSH1 0x1 OR SWAP1 SSTORE DUP1 ISZERO PUSH2 0xC78 JUMPI PUSH1 0x0 DUP1 SLOAD PUSH2 0xFF00 NOT AND PUSH2 0x100 OR SWAP1 SSTORE JUMPDEST PUSH1 0x9 DUP9 SWAP1 SSTORE PUSH1 0xA DUP1 SLOAD PUSH1 0x1 PUSH1 0x1 PUSH1 0xA0 SHL SUB DUP1 DUP11 AND PUSH1 0x1 PUSH1 0x1 PUSH1 0xA0 SHL SUB NOT SWAP3 DUP4 AND OR SWAP1 SWAP3 SSTORE PUSH1 0xB DUP1 SLOAD SWAP3 DUP10 AND SWAP3 SWAP1 SWAP2 AND SWAP2 SWAP1 SWAP2 OR SWAP1 SSTORE DUP5 PUSH2 0xCB8 JUMPI TIMESTAMP PUSH2 0xCBA JUMP JUMPDEST DUP5 JUMPDEST PUSH1 0x7 SSTORE TIMESTAMP PUSH1 0x8 SSTORE PUSH1 0x2 DUP5 SWAP1 SSTORE PUSH1 0x3 DUP4 SWAP1 SSTORE PUSH1 0x4 DUP3 SWAP1 SSTORE DUP1 ISZERO PUSH2 0xD16 JUMPI PUSH1 0x0 DUP1 SLOAD PUSH2 0xFF00 NOT AND SWAP1 SSTORE PUSH1 0x40 MLOAD PUSH1 0x1 DUP2 MSTORE PUSH32 0x7F26B83FF96E1F2B6A682F133852F6798A09C465DA95921460CEFB3847402498 SWAP1 PUSH1 0x20 ADD PUSH1 0x40 MLOAD DUP1 SWAP2 SUB SWAP1 LOG1 JUMPDEST POP POP POP POP POP POP POP POP JUMP JUMPDEST PUSH1 0x1 PUSH1 0x1 PUSH1 0xA0 SHL SUB DUP1 DUP3 AND PUSH1 0x0 SWAP1 DUP2 MSTORE PUSH1 0xD PUSH1 0x20 SWAP1 DUP2 MSTORE PUSH1 0x40 DUP1 DUP4 KECCAK256 SWAP4 DUP8 AND DUP4 MSTORE SWAP3 SWAP1 MSTORE SWAP1 DUP2 KECCAK256 SLOAD PUSH8 0xDE0B6B3A7640000 DUP5 PUSH2 0xD5B DUP6 PUSH2 0x8DF JUMP JUMPDEST PUSH2 0xD65 SWAP2 SWAP1 PUSH2 0x18BE JUMP JUMPDEST PUSH2 0xD6F SWAP2 SWAP1 PUSH2 0x18AA JUMP JUMPDEST PUSH2 0xD79 SWAP2 SWAP1 PUSH2 0x18DD JUMP JUMPDEST SWAP1 POP JUMPDEST SWAP4 SWAP3 POP POP POP JUMP JUMPDEST PUSH1 0x0 PUSH1 0x1 PUSH1 0x1 PUSH1 0xA0 SHL SUB DUP3 AND ISZERO PUSH2 0xE10 JUMPI PUSH1 0x40 MLOAD PUSH4 0x70A08231 PUSH1 0xE0 SHL DUP2 MSTORE ADDRESS PUSH1 0x4 DUP3 ADD MSTORE PUSH1 0x1 PUSH1 0x1 PUSH1 0xA0 SHL SUB DUP4 AND SWAP1 PUSH4 0x70A08231 SWAP1 PUSH1 0x24 ADD PUSH1 0x20 PUSH1 0x40 MLOAD DUP1 DUP4 SUB DUP2 DUP7 DUP1 EXTCODESIZE ISZERO DUP1 ISZERO PUSH2 0xDD3 JUMPI PUSH1 0x0 DUP1 REVERT JUMPDEST POP GAS STATICCALL ISZERO DUP1 ISZERO PUSH2 0xDE7 JUMPI RETURNDATASIZE PUSH1 0x0 DUP1 RETURNDATACOPY RETURNDATASIZE PUSH1 0x0 REVERT JUMPDEST POP POP POP POP PUSH1 0x40 MLOAD RETURNDATASIZE PUSH1 0x1F NOT PUSH1 0x1F DUP3 ADD AND DUP3 ADD DUP1 PUSH1 0x40 MSTORE POP DUP2 ADD SWAP1 PUSH2 0xE0B SWAP2 SWAP1 PUSH2 0x17F3 JUMP JUMPDEST PUSH2 0x90B JUMP JUMPDEST SELFBALANCE SWAP3 SWAP2 POP POP JUMP JUMPDEST PUSH1 0x2 PUSH1 0x1 SLOAD EQ ISZERO PUSH2 0xE3A JUMPI PUSH1 0x40 MLOAD PUSH3 0x461BCD PUSH1 0xE5 SHL DUP2 MSTORE PUSH1 0x4 ADD PUSH2 0x9C4 SWAP1 PUSH2 0x185B JUMP JUMPDEST PUSH1 0x2 PUSH1 0x1 SSTORE PUSH1 0xE SLOAD PUSH2 0x100 SWAP1 DIV PUSH1 0xFF AND ISZERO PUSH2 0xF3D JUMPI PUSH1 0x1 PUSH1 0x1 PUSH1 0xA0 SHL SUB DUP1 DUP3 AND PUSH1 0x0 SWAP1 DUP2 MSTORE PUSH1 0x10 PUSH1 0x20 SWAP1 DUP2 MSTORE PUSH1 0x40 DUP1 DUP4 KECCAK256 SLOAD PUSH1 0xF DUP4 MSTORE DUP2 DUP5 KECCAK256 SWAP5 DUP8 AND DUP5 MSTORE SWAP4 SWAP1 SWAP2 MSTORE DUP2 KECCAK256 SLOAD SWAP1 SWAP2 SWAP1 PUSH2 0xE8B DUP5 PUSH2 0xD83 JUMP JUMPDEST PUSH2 0xE95 SWAP2 SWAP1 PUSH2 0x18BE JUMP JUMPDEST PUSH2 0xE9F SWAP2 SWAP1 PUSH2 0x18AA JUMP JUMPDEST SWAP1 POP DUP1 PUSH2 0xEBF JUMPI PUSH1 0x40 MLOAD PUSH4 0x5DA3252F PUSH1 0xE1 SHL DUP2 MSTORE PUSH1 0x4 ADD PUSH1 0x40 MLOAD DUP1 SWAP2 SUB SWAP1 REVERT JUMPDEST PUSH1 0x1 PUSH1 0x1 PUSH1 0xA0 SHL SUB DUP1 DUP4 AND PUSH1 0x0 SWAP1 DUP2 MSTORE PUSH1 0xF PUSH1 0x20 SWAP1 DUP2 MSTORE PUSH1 0x40 DUP1 DUP4 KECCAK256 SWAP4 DUP8 AND DUP4 MSTORE SWAP3 SWAP1 MSTORE SWAP1 DUP2 KECCAK256 SSTORE PUSH2 0xEF2 DUP4 DUP3 DUP5 PUSH2 0x116F JUMP JUMPDEST PUSH1 0x40 DUP1 MLOAD DUP3 DUP2 MSTORE PUSH1 0x1 PUSH1 0x1 PUSH1 0xA0 SHL SUB DUP5 DUP2 AND PUSH1 0x20 DUP4 ADD MSTORE DUP6 AND SWAP2 PUSH32 0x56C54BA9BD38D8FD62012E42C7EE564519B09763C426D331B3661B537EAD19B2 SWAP2 ADD PUSH1 0x40 MLOAD DUP1 SWAP2 SUB SWAP1 LOG2 POP PUSH2 0xA24 JUMP JUMPDEST PUSH1 0x40 MLOAD PUSH4 0x209A769D PUSH1 0xE1 SHL DUP2 MSTORE PUSH1 0x4 ADD PUSH1 0x40 MLOAD DUP1 SWAP2 SUB SWAP1 REVERT JUMPDEST PUSH1 0xA SLOAD PUSH1 0x1 PUSH1 0x1 PUSH1 0xA0 SHL SUB AND CALLER EQ PUSH2 0xF81 JUMPI PUSH1 0x40 MLOAD PUSH4 0x47556579 PUSH1 0xE0 SHL DUP2 MSTORE PUSH1 0x4 ADD PUSH1 0x40 MLOAD DUP1 SWAP2 SUB SWAP1 REVERT JUMPDEST PUSH1 0x7 SLOAD TIMESTAMP LT PUSH2 0xFA5 JUMPI PUSH1 0x40 MLOAD PUSH4 0x3E71B1BF PUSH1 0xE1 SHL DUP2 MSTORE TIMESTAMP PUSH1 0x4 DUP3 ADD MSTORE PUSH1 0x24 ADD PUSH2 0x9C4 JUMP JUMPDEST PUSH1 0x0 PUSH1 0x6 DUP2 SWAP1 SSTORE PUSH1 0x40 MLOAD PUSH32 0xA0F4A9A971D0D41496054A6616F175690F8B322091FCD26DC9E81FC96D412484 SWAP2 SWAP1 LOG1 JUMP JUMPDEST PUSH1 0x40 MLOAD PUSH1 0x1 PUSH1 0x1 PUSH1 0xA0 SHL SUB DUP1 DUP6 AND PUSH1 0x24 DUP4 ADD MSTORE DUP4 AND PUSH1 0x44 DUP3 ADD MSTORE PUSH1 0x64 DUP2 ADD DUP3 SWAP1 MSTORE PUSH2 0x1040 SWAP1 DUP6 SWAP1 PUSH4 0x23B872DD PUSH1 0xE0 SHL SWAP1 PUSH1 0x84 ADD JUMPDEST PUSH1 0x40 DUP1 MLOAD PUSH1 0x1F NOT DUP2 DUP5 SUB ADD DUP2 MSTORE SWAP2 SWAP1 MSTORE PUSH1 0x20 DUP2 ADD DUP1 MLOAD PUSH1 0x1 PUSH1 0x1 PUSH1 0xE0 SHL SUB AND PUSH1 0x1 PUSH1 0x1 PUSH1 0xE0 SHL SUB NOT SWAP1 SWAP4 AND SWAP3 SWAP1 SWAP3 OR SWAP1 SWAP2 MSTORE PUSH2 0x1231 JUMP JUMPDEST POP POP POP POP JUMP JUMPDEST PUSH1 0x0 DUP3 PUSH2 0x1053 DUP6 DUP5 PUSH2 0x1303 JUMP JUMPDEST EQ SWAP5 SWAP4 POP POP POP POP JUMP JUMPDEST PUSH1 0x0 PUSH2 0x1069 DUP7 DUP7 DUP7 PUSH2 0xD20 JUMP JUMPDEST PUSH1 0x1 PUSH1 0x1 PUSH1 0xA0 SHL SUB DUP1 DUP7 AND PUSH1 0x0 SWAP1 DUP2 MSTORE PUSH1 0xD PUSH1 0x20 SWAP1 DUP2 MSTORE PUSH1 0x40 DUP1 DUP4 KECCAK256 SWAP4 DUP12 AND DUP4 MSTORE SWAP3 SWAP1 MSTORE SWAP1 DUP2 KECCAK256 DUP1 SLOAD SWAP3 SWAP4 POP DUP4 SWAP3 SWAP1 SWAP2 SWAP1 PUSH2 0x10A5 SWAP1 DUP5 SWAP1 PUSH2 0x1892 JUMP JUMPDEST SWAP1 SWAP2 SSTORE POP POP PUSH1 0x1 PUSH1 0x1 PUSH1 0xA0 SHL SUB DUP5 AND PUSH1 0x0 SWAP1 DUP2 MSTORE PUSH1 0xC PUSH1 0x20 MSTORE PUSH1 0x40 DUP2 KECCAK256 DUP1 SLOAD DUP4 SWAP3 SWAP1 PUSH2 0x10D2 SWAP1 DUP5 SWAP1 PUSH2 0x1892 JUMP JUMPDEST SWAP1 SWAP2 SSTORE POP POP PUSH1 0x1 PUSH1 0x1 PUSH1 0xA0 SHL SUB DUP4 DUP2 AND SWAP1 DUP8 AND EQ DUP1 ISZERO PUSH2 0x10FA JUMPI POP PUSH1 0x1 PUSH1 0x1 PUSH1 0xA0 SHL SUB DUP3 AND ISZERO ISZERO JUMPDEST ISZERO PUSH2 0x110F JUMPI PUSH2 0x110A DUP3 DUP3 DUP7 PUSH2 0x116F JUMP JUMPDEST PUSH2 0x111A JUMP JUMPDEST PUSH2 0x111A DUP7 DUP3 DUP7 PUSH2 0x116F JUMP JUMPDEST PUSH1 0x40 DUP1 MLOAD DUP7 DUP2 MSTORE PUSH1 0x20 DUP2 ADD DUP4 SWAP1 MSTORE PUSH1 0x1 PUSH1 0x1 PUSH1 0xA0 SHL SUB DUP7 DUP2 AND DUP3 DUP5 ADD MSTORE SWAP2 MLOAD SWAP2 DUP9 AND SWAP2 PUSH32 0xB6FE5CE185A3773D47E919F57C7EDFD102C91CB7833B2BE405C4DE89D9980FD7 SWAP2 DUP2 SWAP1 SUB PUSH1 0x60 ADD SWAP1 LOG2 POP POP POP POP POP POP JUMP JUMPDEST PUSH1 0x1 PUSH1 0x1 PUSH1 0xA0 SHL SUB DUP2 AND PUSH2 0x1218 JUMPI PUSH1 0x0 DUP4 PUSH1 0x1 PUSH1 0x1 PUSH1 0xA0 SHL SUB AND DUP4 PUSH1 0x40 MLOAD PUSH1 0x0 PUSH1 0x40 MLOAD DUP1 DUP4 SUB DUP2 DUP6 DUP8 GAS CALL SWAP3 POP POP POP RETURNDATASIZE DUP1 PUSH1 0x0 DUP2 EQ PUSH2 0x11CA JUMPI PUSH1 0x40 MLOAD SWAP2 POP PUSH1 0x1F NOT PUSH1 0x3F RETURNDATASIZE ADD AND DUP3 ADD PUSH1 0x40 MSTORE RETURNDATASIZE DUP3 MSTORE RETURNDATASIZE PUSH1 0x0 PUSH1 0x20 DUP5 ADD RETURNDATACOPY PUSH2 0x11CF JUMP JUMPDEST PUSH1 0x60 SWAP2 POP JUMPDEST POP POP SWAP1 POP DUP1 PUSH2 0x1040 JUMPI PUSH1 0x40 MLOAD PUSH3 0x461BCD PUSH1 0xE5 SHL DUP2 MSTORE PUSH1 0x20 PUSH1 0x4 DUP3 ADD MSTORE PUSH1 0x15 PUSH1 0x24 DUP3 ADD MSTORE PUSH21 0x195D1A195C881D1C985B9CD9995C8819985A5B1959 PUSH1 0x5A SHL PUSH1 0x44 DUP3 ADD MSTORE PUSH1 0x64 ADD PUSH2 0x9C4 JUMP JUMPDEST PUSH2 0x122C PUSH1 0x1 PUSH1 0x1 PUSH1 0xA0 SHL SUB DUP3 AND DUP5 DUP5 PUSH2 0x1350 JUMP JUMPDEST POP POP POP JUMP JUMPDEST PUSH1 0x0 PUSH2 0x1286 DUP3 PUSH1 0x40 MLOAD DUP1 PUSH1 0x40 ADD PUSH1 0x40 MSTORE DUP1 PUSH1 0x20 DUP2 MSTORE PUSH1 0x20 ADD PUSH32 0x5361666545524332303A206C6F772D6C6576656C2063616C6C206661696C6564 DUP2 MSTORE POP DUP6 PUSH1 0x1 PUSH1 0x1 PUSH1 0xA0 SHL SUB AND PUSH2 0x1380 SWAP1 SWAP3 SWAP2 SWAP1 PUSH4 0xFFFFFFFF AND JUMP JUMPDEST DUP1 MLOAD SWAP1 SWAP2 POP ISZERO PUSH2 0x122C JUMPI DUP1 DUP1 PUSH1 0x20 ADD SWAP1 MLOAD DUP2 ADD SWAP1 PUSH2 0x12A4 SWAP2 SWAP1 PUSH2 0x1753 JUMP JUMPDEST PUSH2 0x122C JUMPI PUSH1 0x40 MLOAD PUSH3 0x461BCD PUSH1 0xE5 SHL DUP2 MSTORE PUSH1 0x20 PUSH1 0x4 DUP3 ADD MSTORE PUSH1 0x2A PUSH1 0x24 DUP3 ADD MSTORE PUSH32 0x5361666545524332303A204552433230206F7065726174696F6E20646964206E PUSH1 0x44 DUP3 ADD MSTORE PUSH10 0x1BDD081CDD58D8D95959 PUSH1 0xB2 SHL PUSH1 0x64 DUP3 ADD MSTORE PUSH1 0x84 ADD PUSH2 0x9C4 JUMP JUMPDEST PUSH1 0x0 DUP2 DUP2 JUMPDEST DUP5 MLOAD DUP2 LT ISZERO PUSH2 0x1348 JUMPI PUSH2 0x1334 DUP3 DUP7 DUP4 DUP2 MLOAD DUP2 LT PUSH2 0x1327 JUMPI PUSH2 0x1327 PUSH2 0x199B JUMP JUMPDEST PUSH1 0x20 MUL PUSH1 0x20 ADD ADD MLOAD PUSH2 0x138F JUMP JUMPDEST SWAP2 POP DUP1 PUSH2 0x1340 DUP2 PUSH2 0x1920 JUMP JUMPDEST SWAP2 POP POP PUSH2 0x1308 JUMP JUMPDEST POP SWAP4 SWAP3 POP POP POP JUMP JUMPDEST PUSH1 0x40 MLOAD PUSH1 0x1 PUSH1 0x1 PUSH1 0xA0 SHL SUB DUP4 AND PUSH1 0x24 DUP3 ADD MSTORE PUSH1 0x44 DUP2 ADD DUP3 SWAP1 MSTORE PUSH2 0x122C SWAP1 DUP5 SWAP1 PUSH4 0xA9059CBB PUSH1 0xE0 SHL SWAP1 PUSH1 0x64 ADD PUSH2 0x1009 JUMP JUMPDEST PUSH1 0x60 PUSH2 0xD79 DUP5 DUP5 PUSH1 0x0 DUP6 PUSH2 0x13BB JUMP JUMPDEST PUSH1 0x0 DUP2 DUP4 LT PUSH2 0x13AB JUMPI PUSH1 0x0 DUP3 DUP2 MSTORE PUSH1 0x20 DUP5 SWAP1 MSTORE PUSH1 0x40 SWAP1 KECCAK256 PUSH2 0xD7C JUMP JUMPDEST POP PUSH1 0x0 SWAP2 DUP3 MSTORE PUSH1 0x20 MSTORE PUSH1 0x40 SWAP1 KECCAK256 SWAP1 JUMP JUMPDEST PUSH1 0x60 DUP3 SELFBALANCE LT ISZERO PUSH2 0x141C JUMPI PUSH1 0x40 MLOAD PUSH3 0x461BCD PUSH1 0xE5 SHL DUP2 MSTORE PUSH1 0x20 PUSH1 0x4 DUP3 ADD MSTORE PUSH1 0x26 PUSH1 0x24 DUP3 ADD MSTORE PUSH32 0x416464726573733A20696E73756666696369656E742062616C616E636520666F PUSH1 0x44 DUP3 ADD MSTORE PUSH6 0x1C8818D85B1B PUSH1 0xD2 SHL PUSH1 0x64 DUP3 ADD MSTORE PUSH1 0x84 ADD PUSH2 0x9C4 JUMP JUMPDEST PUSH1 0x1 PUSH1 0x1 PUSH1 0xA0 SHL SUB DUP6 AND EXTCODESIZE PUSH2 0x1473 JUMPI PUSH1 0x40 MLOAD PUSH3 0x461BCD PUSH1 0xE5 SHL DUP2 MSTORE PUSH1 0x20 PUSH1 0x4 DUP3 ADD MSTORE PUSH1 0x1D PUSH1 0x24 DUP3 ADD MSTORE PUSH32 0x416464726573733A2063616C6C20746F206E6F6E2D636F6E7472616374000000 PUSH1 0x44 DUP3 ADD MSTORE PUSH1 0x64 ADD PUSH2 0x9C4 JUMP JUMPDEST PUSH1 0x0 DUP1 DUP7 PUSH1 0x1 PUSH1 0x1 PUSH1 0xA0 SHL SUB AND DUP6 DUP8 PUSH1 0x40 MLOAD PUSH2 0x148F SWAP2 SWAP1 PUSH2 0x180C JUMP JUMPDEST PUSH1 0x0 PUSH1 0x40 MLOAD DUP1 DUP4 SUB DUP2 DUP6 DUP8 GAS CALL SWAP3 POP POP POP RETURNDATASIZE DUP1 PUSH1 0x0 DUP2 EQ PUSH2 0x14CC JUMPI PUSH1 0x40 MLOAD SWAP2 POP PUSH1 0x1F NOT PUSH1 0x3F RETURNDATASIZE ADD AND DUP3 ADD PUSH1 0x40 MSTORE RETURNDATASIZE DUP3 MSTORE RETURNDATASIZE PUSH1 0x0 PUSH1 0x20 DUP5 ADD RETURNDATACOPY PUSH2 0x14D1 JUMP JUMPDEST PUSH1 0x60 SWAP2 POP JUMPDEST POP SWAP2 POP SWAP2 POP PUSH2 0x14E1 DUP3 DUP3 DUP7 PUSH2 0x14EC JUMP JUMPDEST SWAP8 SWAP7 POP POP POP POP POP POP POP JUMP JUMPDEST PUSH1 0x60 DUP4 ISZERO PUSH2 0x14FB JUMPI POP DUP2 PUSH2 0xD7C JUMP JUMPDEST DUP3 MLOAD ISZERO PUSH2 0x150B JUMPI DUP3 MLOAD DUP1 DUP5 PUSH1 0x20 ADD REVERT JUMPDEST DUP2 PUSH1 0x40 MLOAD PUSH3 0x461BCD PUSH1 0xE5 SHL DUP2 MSTORE PUSH1 0x4 ADD PUSH2 0x9C4 SWAP2 SWAP1 PUSH2 0x1828 JUMP JUMPDEST DUP1 CALLDATALOAD PUSH1 0x1 PUSH1 0x1 PUSH1 0xA0 SHL SUB DUP2 AND DUP2 EQ PUSH2 0x153C JUMPI PUSH1 0x0 DUP1 REVERT JUMPDEST SWAP2 SWAP1 POP JUMP JUMPDEST PUSH1 0x0 DUP1 DUP4 PUSH1 0x1F DUP5 ADD SLT PUSH2 0x1553 JUMPI PUSH1 0x0 DUP1 REVERT JUMPDEST POP DUP2 CALLDATALOAD PUSH8 0xFFFFFFFFFFFFFFFF DUP2 GT ISZERO PUSH2 0x156B JUMPI PUSH1 0x0 DUP1 REVERT JUMPDEST PUSH1 0x20 DUP4 ADD SWAP2 POP DUP4 PUSH1 0x20 DUP3 PUSH1 0x5 SHL DUP6 ADD ADD GT ISZERO PUSH2 0x1586 JUMPI PUSH1 0x0 DUP1 REVERT JUMPDEST SWAP3 POP SWAP3 SWAP1 POP JUMP JUMPDEST PUSH1 0x0 PUSH1 0x20 DUP3 DUP5 SUB SLT ISZERO PUSH2 0x159F JUMPI PUSH1 0x0 DUP1 REVERT JUMPDEST PUSH2 0xD7C DUP3 PUSH2 0x1525 JUMP JUMPDEST PUSH1 0x0 DUP1 PUSH1 0x40 DUP4 DUP6 SUB SLT ISZERO PUSH2 0x15BB JUMPI PUSH1 0x0 DUP1 REVERT JUMPDEST PUSH2 0x15C4 DUP4 PUSH2 0x1525 JUMP JUMPDEST SWAP2 POP PUSH2 0x15D2 PUSH1 0x20 DUP5 ADD PUSH2 0x1525 JUMP JUMPDEST SWAP1 POP SWAP3 POP SWAP3 SWAP1 POP JUMP JUMPDEST PUSH1 0x0 DUP1 PUSH1 0x40 DUP4 DUP6 SUB SLT ISZERO PUSH2 0x15EE JUMPI PUSH1 0x0 DUP1 REVERT JUMPDEST PUSH2 0x15F7 DUP4 PUSH2 0x1525 JUMP JUMPDEST SWAP5 PUSH1 0x20 SWAP4 SWAP1 SWAP4 ADD CALLDATALOAD SWAP4 POP POP POP JUMP JUMPDEST PUSH1 0x0 DUP1 PUSH1 0x0 PUSH1 0x60 DUP5 DUP7 SUB SLT ISZERO PUSH2 0x161A JUMPI PUSH1 0x0 DUP1 REVERT JUMPDEST PUSH2 0x1623 DUP5 PUSH2 0x1525 JUMP JUMPDEST SWAP3 POP PUSH1 0x20 DUP5 ADD CALLDATALOAD SWAP2 POP PUSH2 0x1638 PUSH1 0x40 DUP6 ADD PUSH2 0x1525 JUMP JUMPDEST SWAP1 POP SWAP3 POP SWAP3 POP SWAP3 JUMP JUMPDEST PUSH1 0x0 DUP1 PUSH1 0x0 DUP1 PUSH1 0x60 DUP6 DUP8 SUB SLT ISZERO PUSH2 0x1657 JUMPI PUSH1 0x0 DUP1 REVERT JUMPDEST PUSH2 0x1660 DUP6 PUSH2 0x1525 JUMP JUMPDEST SWAP4 POP PUSH1 0x20 DUP6 ADD CALLDATALOAD SWAP3 POP PUSH1 0x40 DUP6 ADD CALLDATALOAD PUSH8 0xFFFFFFFFFFFFFFFF DUP2 GT ISZERO PUSH2 0x1683 JUMPI PUSH1 0x0 DUP1 REVERT JUMPDEST PUSH2 0x168F DUP8 DUP3 DUP9 ADD PUSH2 0x1541 JUMP JUMPDEST SWAP6 SWAP9 SWAP5 SWAP8 POP SWAP6 POP POP POP POP JUMP JUMPDEST PUSH1 0x0 DUP1 PUSH1 0x0 DUP1 PUSH1 0x0 DUP1 PUSH1 0x0 PUSH1 0xA0 DUP9 DUP11 SUB SLT ISZERO PUSH2 0x16B6 JUMPI PUSH1 0x0 DUP1 REVERT JUMPDEST PUSH2 0x16BF DUP9 PUSH2 0x1525 JUMP JUMPDEST SWAP7 POP PUSH1 0x20 DUP9 ADD CALLDATALOAD SWAP6 POP PUSH1 0x40 DUP9 ADD CALLDATALOAD PUSH8 0xFFFFFFFFFFFFFFFF DUP1 DUP3 GT ISZERO PUSH2 0x16E3 JUMPI PUSH1 0x0 DUP1 REVERT JUMPDEST PUSH2 0x16EF DUP12 DUP4 DUP13 ADD PUSH2 0x1541 JUMP JUMPDEST SWAP1 SWAP8 POP SWAP6 POP PUSH1 0x60 DUP11 ADD CALLDATALOAD SWAP2 POP DUP1 DUP3 GT ISZERO PUSH2 0x1708 JUMPI PUSH1 0x0 DUP1 REVERT JUMPDEST POP PUSH2 0x1715 DUP11 DUP3 DUP12 ADD PUSH2 0x1541 JUMP JUMPDEST SWAP1 SWAP5 POP SWAP3 POP PUSH2 0x1728 SWAP1 POP PUSH1 0x80 DUP10 ADD PUSH2 0x1525 JUMP JUMPDEST SWAP1 POP SWAP3 SWAP6 SWAP9 SWAP2 SWAP5 SWAP8 POP SWAP3 SWAP6 POP JUMP JUMPDEST PUSH1 0x0 PUSH1 0x20 DUP3 DUP5 SUB SLT ISZERO PUSH2 0x1748 JUMPI PUSH1 0x0 DUP1 REVERT JUMPDEST DUP2 CALLDATALOAD PUSH2 0xD7C DUP2 PUSH2 0x19B1 JUMP JUMPDEST PUSH1 0x0 PUSH1 0x20 DUP3 DUP5 SUB SLT ISZERO PUSH2 0x1765 JUMPI PUSH1 0x0 DUP1 REVERT JUMPDEST DUP2 MLOAD PUSH2 0xD7C DUP2 PUSH2 0x19B1 JUMP JUMPDEST PUSH1 0x0 DUP1 PUSH1 0x0 DUP1 PUSH1 0x0 DUP1 PUSH1 0x0 PUSH1 0xE0 DUP9 DUP11 SUB SLT ISZERO PUSH2 0x178B JUMPI PUSH1 0x0 DUP1 REVERT JUMPDEST DUP8 CALLDATALOAD SWAP7 POP PUSH2 0x179B PUSH1 0x20 DUP10 ADD PUSH2 0x1525 JUMP JUMPDEST SWAP6 POP PUSH2 0x17A9 PUSH1 0x40 DUP10 ADD PUSH2 0x1525 JUMP JUMPDEST SWAP7 SWAP10 SWAP6 SWAP9 POP SWAP6 SWAP7 PUSH1 0x60 DUP2 ADD CALLDATALOAD SWAP7 POP PUSH1 0x80 DUP2 ADD CALLDATALOAD SWAP6 PUSH1 0xA0 DUP3 ADD CALLDATALOAD SWAP6 POP PUSH1 0xC0 SWAP1 SWAP2 ADD CALLDATALOAD SWAP4 POP SWAP2 POP POP JUMP JUMPDEST PUSH1 0x0 DUP1 PUSH1 0x40 DUP4 DUP6 SUB SLT ISZERO PUSH2 0x17E4 JUMPI PUSH1 0x0 DUP1 REVERT JUMPDEST POP POP DUP1 CALLDATALOAD SWAP3 PUSH1 0x20 SWAP1 SWAP2 ADD CALLDATALOAD SWAP2 POP JUMP JUMPDEST PUSH1 0x0 PUSH1 0x20 DUP3 DUP5 SUB SLT ISZERO PUSH2 0x1805 JUMPI PUSH1 0x0 DUP1 REVERT JUMPDEST POP MLOAD SWAP2 SWAP1 POP JUMP JUMPDEST PUSH1 0x0 DUP3 MLOAD PUSH2 0x181E DUP2 DUP5 PUSH1 0x20 DUP8 ADD PUSH2 0x18F4 JUMP JUMPDEST SWAP2 SWAP1 SWAP2 ADD SWAP3 SWAP2 POP POP JUMP JUMPDEST PUSH1 0x20 DUP2 MSTORE PUSH1 0x0 DUP3 MLOAD DUP1 PUSH1 0x20 DUP5 ADD MSTORE PUSH2 0x1847 DUP2 PUSH1 0x40 DUP6 ADD PUSH1 0x20 DUP8 ADD PUSH2 0x18F4 JUMP JUMPDEST PUSH1 0x1F ADD PUSH1 0x1F NOT AND SWAP2 SWAP1 SWAP2 ADD PUSH1 0x40 ADD SWAP3 SWAP2 POP POP JUMP JUMPDEST PUSH1 0x20 DUP1 DUP3 MSTORE PUSH1 0x1F SWAP1 DUP3 ADD MSTORE PUSH32 0x5265656E7472616E637947756172643A207265656E7472616E742063616C6C00 PUSH1 0x40 DUP3 ADD MSTORE PUSH1 0x60 ADD SWAP1 JUMP JUMPDEST PUSH1 0x0 DUP3 NOT DUP3 GT ISZERO PUSH2 0x18A5 JUMPI PUSH2 0x18A5 PUSH2 0x196F JUMP JUMPDEST POP ADD SWAP1 JUMP JUMPDEST PUSH1 0x0 DUP3 PUSH2 0x18B9 JUMPI PUSH2 0x18B9 PUSH2 0x1985 JUMP JUMPDEST POP DIV SWAP1 JUMP JUMPDEST PUSH1 0x0 DUP2 PUSH1 0x0 NOT DIV DUP4 GT DUP3 ISZERO ISZERO AND ISZERO PUSH2 0x18D8 JUMPI PUSH2 0x18D8 PUSH2 0x196F JUMP JUMPDEST POP MUL SWAP1 JUMP JUMPDEST PUSH1 0x0 DUP3 DUP3 LT ISZERO PUSH2 0x18EF JUMPI PUSH2 0x18EF PUSH2 0x196F JUMP JUMPDEST POP SUB SWAP1 JUMP JUMPDEST PUSH1 0x0 JUMPDEST DUP4 DUP2 LT ISZERO PUSH2 0x190F JUMPI DUP2 DUP2 ADD MLOAD DUP4 DUP3 ADD MSTORE PUSH1 0x20 ADD PUSH2 0x18F7 JUMP JUMPDEST DUP4 DUP2 GT ISZERO PUSH2 0x1040 JUMPI POP POP PUSH1 0x0 SWAP2 ADD MSTORE JUMP JUMPDEST PUSH1 0x0 PUSH1 0x0 NOT DUP3 EQ ISZERO PUSH2 0x1934 JUMPI PUSH2 0x1934 PUSH2 0x196F JUMP JUMPDEST POP PUSH1 0x1 ADD SWAP1 JUMP JUMPDEST PUSH1 0x0 PUSH1 0xFF DUP3 AND PUSH1 0xFF DUP2 EQ ISZERO PUSH2 0x1952 JUMPI PUSH2 0x1952 PUSH2 0x196F JUMP JUMPDEST PUSH1 0x1 ADD SWAP3 SWAP2 POP POP JUMP JUMPDEST PUSH1 0x0 DUP3 PUSH2 0x196A JUMPI PUSH2 0x196A PUSH2 0x1985 JUMP JUMPDEST POP MOD SWAP1 JUMP JUMPDEST PUSH4 0x4E487B71 PUSH1 0xE0 SHL PUSH1 0x0 MSTORE PUSH1 0x11 PUSH1 0x4 MSTORE PUSH1 0x24 PUSH1 0x0 REVERT JUMPDEST PUSH4 0x4E487B71 PUSH1 0xE0 SHL PUSH1 0x0 MSTORE PUSH1 0x12 PUSH1 0x4 MSTORE PUSH1 0x24 PUSH1 0x0 REVERT JUMPDEST PUSH4 0x4E487B71 PUSH1 0xE0 SHL PUSH1 0x0 MSTORE PUSH1 0x32 PUSH1 0x4 MSTORE PUSH1 0x24 PUSH1 0x0 REVERT JUMPDEST DUP1 ISZERO ISZERO DUP2 EQ PUSH2 0x19BF JUMPI PUSH1 0x0 DUP1 REVERT JUMPDEST POP JUMP INVALID LOG2 PUSH5 0x6970667358 0x22 SLT KECCAK256 EXTCODESIZE 0x2B PUSH7 0x41DE37C1CAB3B0 PUSH20 0x67576EEA4D8C76AF903C16F2F0E7F5BA573ED1D4 CALL PUSH5 0x736F6C6343 STOP ADDMOD MOD STOP CALLER "},"gasEstimates":{"creation":{"codeDepositCost":"1329600","executionCost":"23489","totalCost":"1353089"},"external":{"ACTIVATION_PERIOD()":"2352","ACTIVE_DURATION()":"2331","CHALLENGE_PERIOD()":"2328","TOTAL_SHARES()":"274","activationTime()":"2372","admin()":"2469","approvedMerkleRoot()":"2329","balanceOfAsset(address)":"infinite","campaignCancelled()":"2411","cancelCampaign()":"27365","challenge()":"10249","checkMerkleRootUpdateAllowed()":"8962","claim(address,uint256,bytes32[],address[],address)":"infinite","claimed(address,address)":"infinite","deployTime()":"2351","fund(address,uint256)":"infinite","getValidRoot()":"6637","initCampaign(bytes32,address,address,uint256,uint256,uint256,uint256)":"infinite","isChallengePeriod()":"2415","isPendingActive()":"4567","isProposeWindowActive()":"6771","oracle()":"2405","pendingMerkleRoot()":"2329","proposeShares(bytes32,bytes32)":"87613","providers(address,address)":"infinite","rewardRulesetUri()":"2351","rewardsAvailableToClaimer(address,uint256,address)":"infinite","setSharesLock(bool)":"27790","sharesLocked()":"2356","totalClaimed(address)":"2618","totalProvided(address)":"2554","totalReceived(address)":"infinite","verifyShares(address,uint256,bytes32[])":"infinite","withdrawAssets(address,address)":"infinite"},"internal":{"_claim(address,uint256,address,address,address)":"infinite","_fund(uint256,address,address)":"infinite","transferAssetOut(address,uint256,address)":"infinite"}},"methodIdentifiers":{"ACTIVATION_PERIOD()":"3e161940","ACTIVE_DURATION()":"007c4d51","CHALLENGE_PERIOD()":"c3a079ed","TOTAL_SHARES()":"85e3f997","activationTime()":"da4493f6","admin()":"f851a440","approvedMerkleRoot()":"a9ec3a1b","balanceOfAsset(address)":"c1d89941","campaignCancelled()":"63a5b88d","cancelCampaign()":"980e7844","challenge()":"d2ef7398","checkMerkleRootUpdateAllowed()":"7cbb7d5e","claim(address,uint256,bytes32[],address[],address)":"8abb5d22","claimed(address,address)":"0c9cbf0e","deployTime()":"7a40624b","fund(address,uint256)":"7b1837de","getValidRoot()":"75e07c2d","initCampaign(bytes32,address,address,uint256,uint256,uint256,uint256)":"a98acb46","isChallengePeriod()":"6c4fbc4a","isPendingActive()":"7c99ca6d","isProposeWindowActive()":"44949728","oracle()":"7dc0d1d0","pendingMerkleRoot()":"9637f475","proposeShares(bytes32,bytes32)":"17b9d05e","providers(address,address)":"40bcf748","rewardRulesetUri()":"977aa88b","rewardsAvailableToClaimer(address,uint256,address)":"be8b7686","setSharesLock(bool)":"531e050d","sharesLocked()":"7cc0cdf2","totalClaimed(address)":"ef5d9ae8","totalProvided(address)":"27ce11cb","totalReceived(address)":"4df9cfb3","verifyShares(address,uint256,bytes32[])":"162dfe00","withdrawAssets(address,address)":"c24e4778"}},"storageLayout":{"storage":[{"astId":86,"contract":"contracts/Campaign.sol:Campaign","label":"_initialized","offset":0,"slot":"0","type":"t_uint8"},{"astId":89,"contract":"contracts/Campaign.sol:Campaign","label":"_initializing","offset":1,"slot":"0","type":"t_bool"},{"astId":241,"contract":"contracts/Campaign.sol:Campaign","label":"_status","offset":0,"slot":"1","type":"t_uint256"},{"astId":1533,"contract":"contracts/Campaign.sol:Campaign","label":"CHALLENGE_PERIOD","offset":0,"slot":"2","type":"t_uint256"},{"astId":1535,"contract":"contracts/Campaign.sol:Campaign","label":"ACTIVATION_PERIOD","offset":0,"slot":"3","type":"t_uint256"},{"astId":1537,"contract":"contracts/Campaign.sol:Campaign","label":"ACTIVE_DURATION","offset":0,"slot":"4","type":"t_uint256"},{"astId":1539,"contract":"contracts/Campaign.sol:Campaign","label":"approvedMerkleRoot","offset":0,"slot":"5","type":"t_bytes32"},{"astId":1542,"contract":"contracts/Campaign.sol:Campaign","label":"pendingMerkleRoot","offset":0,"slot":"6","type":"t_bytes32"},{"astId":1544,"contract":"contracts/Campaign.sol:Campaign","label":"activationTime","offset":0,"slot":"7","type":"t_uint256"},{"astId":1546,"contract":"contracts/Campaign.sol:Campaign","label":"deployTime","offset":0,"slot":"8","type":"t_uint256"},{"astId":1549,"contract":"contracts/Campaign.sol:Campaign","label":"rewardRulesetUri","offset":0,"slot":"9","type":"t_bytes32"},{"astId":1551,"contract":"contracts/Campaign.sol:Campaign","label":"admin","offset":0,"slot":"10","type":"t_address"},{"astId":1553,"contract":"contracts/Campaign.sol:Campaign","label":"oracle","offset":0,"slot":"11","type":"t_address"},{"astId":1558,"contract":"contracts/Campaign.sol:Campaign","label":"totalClaimed","offset":0,"slot":"12","type":"t_mapping(t_address,t_uint256)"},{"astId":1565,"contract":"contracts/Campaign.sol:Campaign","label":"claimed","offset":0,"slot":"13","type":"t_mapping(t_address,t_mapping(t_address,t_uint256))"},{"astId":1568,"contract":"contracts/Campaign.sol:Campaign","label":"sharesLocked","offset":0,"slot":"14","type":"t_bool"},{"astId":1571,"contract":"contracts/Campaign.sol:Campaign","label":"campaignCancelled","offset":1,"slot":"14","type":"t_bool"},{"astId":1578,"contract":"contracts/Campaign.sol:Campaign","label":"providers","offset":0,"slot":"15","type":"t_mapping(t_address,t_mapping(t_address,t_uint256))"},{"astId":1583,"contract":"contracts/Campaign.sol:Campaign","label":"totalProvided","offset":0,"slot":"16","type":"t_mapping(t_address,t_uint256)"}],"types":{"t_address":{"encoding":"inplace","label":"address","numberOfBytes":"20"},"t_bool":{"encoding":"inplace","label":"bool","numberOfBytes":"1"},"t_bytes32":{"encoding":"inplace","label":"bytes32","numberOfBytes":"32"},"t_mapping(t_address,t_mapping(t_address,t_uint256))":{"encoding":"mapping","key":"t_address","label":"mapping(address => mapping(address => uint256))","numberOfBytes":"32","value":"t_mapping(t_address,t_uint256)"},"t_mapping(t_address,t_uint256)":{"encoding":"mapping","key":"t_address","label":"mapping(address => uint256)","numberOfBytes":"32","value":"t_uint256"},"t_uint256":{"encoding":"inplace","label":"uint256","numberOfBytes":"32"},"t_uint8":{"encoding":"inplace","label":"uint8","numberOfBytes":"1"}}},"userdoc":{"kind":"user","methods":{"TOTAL_SHARES()":{"notice":"Shares are considered a ratio [0-1] with 18 digits where 1E18 = 1 "},"balanceOfAsset(address)":{"notice":"Returns the currrent balance that the campaign holds for an asset. For the native token, asset is the zero address"},"campaignCancelled()":{"notice":"Once cancelled, the assets providers can withdraw "},"cancelCampaign()":{"notice":"Admin can cancel the campaign. After cancellation, asset providers can withdraw their assets and claims are disabled "},"challenge()":{"notice":"Admin can cancel the pending merkle root while in challenge period. Previously approved root will stay active "},"checkMerkleRootUpdateAllowed()":{"notice":"Returns true if the oracle can propose a new merkle root "},"claim(address,uint256,bytes32[],address[],address)":{"notice":"Claim rewards from one or more assets "},"claimed(address,address)":{"notice":"amount of assets already claimed per claimer address, per asset address (zero address represents the native token) "},"fund(address,uint256)":{"notice":"Fund campaign with native or any ERC20 token. For native token, asset is the zero address.  "},"getValidRoot()":{"notice":"Valid root is either the approved or pending one depending on the activation time "},"initCampaign(bytes32,address,address,uint256,uint256,uint256,uint256)":{"notice":"Campaign initialization, called once at deploy (using the campaign factory). CHALLENGE_PERIOD > ACTIVE_DURATION is recommended to limite one proposeal per active window"},"isChallengePeriod()":{"notice":"Indicates whether the campaign is currently at a challenge period "},"isPendingActive()":{"notice":"Returns true if the active root is the pending one "},"isProposeWindowActive()":{"notice":"Returns true if propose window for the oracle is active "},"pendingMerkleRoot()":{"notice":"Optimistic flow used to update merkleRoot. - Oracle propose update and Admin can block - Admin cannot initiate an update "},"proposeShares(bytes32,bytes32)":{"notice":"Only the oracle can propose a new merkleRoot. The proposed root becomes active only after a CHALLENGE_PERIOD "},"providers(address,address)":{"notice":"amount of rewards provided per address of provider, per asset address (zero address represents the native token) "},"rewardRulesetUri()":{"notice":"Uri pointing to the campaign's reward ruleset "},"rewardsAvailableToClaimer(address,uint256,address)":{"notice":"Calculates the amount of available rewards to claim for an account "},"setSharesLock(bool)":{"notice":"Admin can lock the campaign, meaning disable future merkle root updates "},"sharesLocked()":{"notice":"Once locked, the merkleRoot cannot be updated anymore until unlocked "},"totalClaimed(address)":{"notice":"amount of total assets already claimed per asset address (zero address represents the native token) "},"totalProvided(address)":{"notice":"amount of total rewards provided per asset address (zero address represents the native token) "},"totalReceived(address)":{"notice":"Total assets received by the contract. For the native token, asset is the zero address"},"verifyShares(address,uint256,bytes32[])":{"notice":"Validates the shares of an account "},"withdrawAssets(address,address)":{"notice":"asset providers can withdraw their proportion of assets only in case the campaign was cancelled by the admin "}},"version":1}}}}