{"contracts/CampaignFactory.sol":{"CampaignFactory":{"abi":[{"inputs":[{"internalType":"address payable","name":"_master","type":"address"}],"stateMutability":"nonpayable","type":"constructor"},{"anonymous":false,"inputs":[{"indexed":false,"internalType":"address","name":"creator","type":"address"},{"indexed":false,"internalType":"address","name":"newCampaign","type":"address"},{"indexed":false,"internalType":"bytes32","name":"_strategyUri","type":"bytes32"},{"indexed":false,"internalType":"address","name":"_admin","type":"address"},{"indexed":false,"internalType":"address","name":"_oracle","type":"address"},{"indexed":false,"internalType":"uint256","name":"activationTime","type":"uint256"},{"indexed":false,"internalType":"bytes32","name":"salt","type":"bytes32"}],"name":"CampaignCreated","type":"event"},{"inputs":[{"internalType":"bytes32","name":"salt","type":"bytes32"}],"name":"campaignAddress","outputs":[{"internalType":"address","name":"","type":"address"}],"stateMutability":"view","type":"function"},{"inputs":[{"internalType":"bytes32","name":"_rewardRulesetUri","type":"bytes32"},{"internalType":"bytes32","name":"_sharesUri","type":"bytes32"},{"internalType":"bytes32","name":"_strategyUri","type":"bytes32"},{"internalType":"address","name":"_admin","type":"address"},{"internalType":"address","name":"_oracle","type":"address"},{"internalType":"uint256","name":"_activationTime","type":"uint256"},{"internalType":"uint256","name":"_CHALLENGE_PERIOD","type":"uint256"},{"internalType":"uint256","name":"_ACTIVATION_PERIOD","type":"uint256"},{"internalType":"uint256","name":"_ACTIVE_DURATION","type":"uint256"},{"internalType":"bytes32","name":"salt","type":"bytes32"}],"name":"createAndPublishCampaign","outputs":[],"stateMutability":"nonpayable","type":"function"},{"inputs":[{"internalType":"bytes32","name":"_rewardRulesetUri","type":"bytes32"},{"internalType":"address","name":"_admin","type":"address"},{"internalType":"address","name":"_oracle","type":"address"},{"internalType":"uint256","name":"_activationTime","type":"uint256"},{"internalType":"uint256","name":"_CHALLENGE_PERIOD","type":"uint256"},{"internalType":"uint256","name":"_ACTIVATION_PERIOD","type":"uint256"},{"internalType":"uint256","name":"_ACTIVE_DURATION","type":"uint256"},{"internalType":"bytes32","name":"salt","type":"bytes32"}],"name":"createCampaign","outputs":[{"internalType":"address payable","name":"proxy","type":"address"}],"stateMutability":"nonpayable","type":"function"}],"devdoc":{"kind":"dev","methods":{},"version":1},"evm":{"bytecode":{"linkReferences":{},"object":"608060405234801561001057600080fd5b5060405161060638038061060683398101604081905261002f91610054565b600080546001600160a01b0319166001600160a01b0392909216919091179055610084565b60006020828403121561006657600080fd5b81516001600160a01b038116811461007d57600080fd5b9392505050565b610573806100936000396000f3fe608060405234801561001057600080fd5b50600436106100415760003560e01c80635357af3b146100465780636e1a1fac1461005b578063a8e0bb661461008a575b600080fd5b6100596100543660046104a3565b61009d565b005b61006e61006936600461041c565b6101bd565b6040516001600160a01b03909116815260200160405180910390f35b61006e610098366004610435565b6101da565b6040516354705db360e11b8152600481018990526001600160a01b03808916602483015287166044820152606481018690526084810185905260a4810184905260c4810183905260e48101829052600090309063a8e0bb669061010401602060405180830381600087803b15801561011457600080fd5b505af1158015610128573d6000803e3d6000fd5b505050506040513d601f19601f8201168201806040525081019061014c91906103ff565b604051630bdce82f60e11b8152600481018d9052602481018c90529091506001600160a01b038216906317b9d05e90604401600060405180830381600087803b15801561019857600080fd5b505af11580156101ac573d6000803e3d6000fd5b505050505050505050505050505050565b600080546101d4906001600160a01b0316836102ee565b92915050565b600080546101f1906001600160a01b03168361035b565b6040516354c565a360e11b8152600481018b90526001600160a01b038a811660248301528981166044830152606482018990526084820188905260a4820187905260c482018690529192509082169063a98acb469060e401600060405180830381600087803b15801561026357600080fd5b505af1158015610277573d6000803e3d6000fd5b5050604080513381526001600160a01b0385811660208301528183018e90528c811660608301528b16608082015260a081018a905260c0810186905290517f5e2acb8aee19e83f63206e8fd625b2113a58e47d6986e1e5514d514f8e19411093509081900360e0019150a198975050505050505050565b6000610354838330604051733d602d80600a3d3981f3363d3d373d3d3d363d7360601b8152606093841b60148201526f5af43d82803e903d91602b57fd5bf3ff60801b6028820152921b6038830152604c8201526037808220606c830152605591012090565b9392505050565b6000604051733d602d80600a3d3981f3363d3d373d3d3d363d7360601b81528360601b60148201526e5af43d82803e903d91602b57fd5bf360881b6028820152826037826000f59150506001600160a01b0381166101d45760405162461bcd60e51b815260206004820152601760248201527f455243313136373a2063726561746532206661696c6564000000000000000000604482015260640160405180910390fd5b60006020828403121561041157600080fd5b815161035481610525565b60006020828403121561042e57600080fd5b5035919050565b600080600080600080600080610100898b03121561045257600080fd5b88359750602089013561046481610525565b9650604089013561047481610525565b979a96995096976060810135975060808101359660a0820135965060c0820135955060e0909101359350915050565b6000806000806000806000806000806101408b8d0312156104c357600080fd5b8a35995060208b0135985060408b0135975060608b01356104e381610525565b965060808b01356104f381610525565b999c989b50969995989760a0870135975060c08701359660e08101359650610100810135955061012001359350915050565b6001600160a01b038116811461053a57600080fd5b5056fea2646970667358221220df7e6eec0079e25cf22ab6b5b0ea3afdff2332f254f13d5a46d119c76eb22c6564736f6c63430008060033","opcodes":"PUSH1 0x80 PUSH1 0x40 MSTORE CALLVALUE DUP1 ISZERO PUSH2 0x10 JUMPI PUSH1 0x0 DUP1 REVERT JUMPDEST POP PUSH1 0x40 MLOAD PUSH2 0x606 CODESIZE SUB DUP1 PUSH2 0x606 DUP4 CODECOPY DUP2 ADD PUSH1 0x40 DUP2 SWAP1 MSTORE PUSH2 0x2F SWAP2 PUSH2 0x54 JUMP JUMPDEST PUSH1 0x0 DUP1 SLOAD PUSH1 0x1 PUSH1 0x1 PUSH1 0xA0 SHL SUB NOT AND PUSH1 0x1 PUSH1 0x1 PUSH1 0xA0 SHL SUB SWAP3 SWAP1 SWAP3 AND SWAP2 SWAP1 SWAP2 OR SWAP1 SSTORE PUSH2 0x84 JUMP JUMPDEST PUSH1 0x0 PUSH1 0x20 DUP3 DUP5 SUB SLT ISZERO PUSH2 0x66 JUMPI PUSH1 0x0 DUP1 REVERT JUMPDEST DUP2 MLOAD PUSH1 0x1 PUSH1 0x1 PUSH1 0xA0 SHL SUB DUP2 AND DUP2 EQ PUSH2 0x7D JUMPI PUSH1 0x0 DUP1 REVERT JUMPDEST SWAP4 SWAP3 POP POP POP JUMP JUMPDEST PUSH2 0x573 DUP1 PUSH2 0x93 PUSH1 0x0 CODECOPY PUSH1 0x0 RETURN INVALID PUSH1 0x80 PUSH1 0x40 MSTORE CALLVALUE DUP1 ISZERO PUSH2 0x10 JUMPI PUSH1 0x0 DUP1 REVERT JUMPDEST POP PUSH1 0x4 CALLDATASIZE LT PUSH2 0x41 JUMPI PUSH1 0x0 CALLDATALOAD PUSH1 0xE0 SHR DUP1 PUSH4 0x5357AF3B EQ PUSH2 0x46 JUMPI DUP1 PUSH4 0x6E1A1FAC EQ PUSH2 0x5B JUMPI DUP1 PUSH4 0xA8E0BB66 EQ PUSH2 0x8A JUMPI JUMPDEST PUSH1 0x0 DUP1 REVERT JUMPDEST PUSH2 0x59 PUSH2 0x54 CALLDATASIZE PUSH1 0x4 PUSH2 0x4A3 JUMP JUMPDEST PUSH2 0x9D JUMP JUMPDEST STOP JUMPDEST PUSH2 0x6E PUSH2 0x69 CALLDATASIZE PUSH1 0x4 PUSH2 0x41C JUMP JUMPDEST PUSH2 0x1BD JUMP JUMPDEST PUSH1 0x40 MLOAD PUSH1 0x1 PUSH1 0x1 PUSH1 0xA0 SHL SUB SWAP1 SWAP2 AND DUP2 MSTORE PUSH1 0x20 ADD PUSH1 0x40 MLOAD DUP1 SWAP2 SUB SWAP1 RETURN JUMPDEST PUSH2 0x6E PUSH2 0x98 CALLDATASIZE PUSH1 0x4 PUSH2 0x435 JUMP JUMPDEST PUSH2 0x1DA JUMP JUMPDEST PUSH1 0x40 MLOAD PUSH4 0x54705DB3 PUSH1 0xE1 SHL DUP2 MSTORE PUSH1 0x4 DUP2 ADD DUP10 SWAP1 MSTORE PUSH1 0x1 PUSH1 0x1 PUSH1 0xA0 SHL SUB DUP1 DUP10 AND PUSH1 0x24 DUP4 ADD MSTORE DUP8 AND PUSH1 0x44 DUP3 ADD MSTORE PUSH1 0x64 DUP2 ADD DUP7 SWAP1 MSTORE PUSH1 0x84 DUP2 ADD DUP6 SWAP1 MSTORE PUSH1 0xA4 DUP2 ADD DUP5 SWAP1 MSTORE PUSH1 0xC4 DUP2 ADD DUP4 SWAP1 MSTORE PUSH1 0xE4 DUP2 ADD DUP3 SWAP1 MSTORE PUSH1 0x0 SWAP1 ADDRESS SWAP1 PUSH4 0xA8E0BB66 SWAP1 PUSH2 0x104 ADD PUSH1 0x20 PUSH1 0x40 MLOAD DUP1 DUP4 SUB DUP2 PUSH1 0x0 DUP8 DUP1 EXTCODESIZE ISZERO DUP1 ISZERO PUSH2 0x114 JUMPI PUSH1 0x0 DUP1 REVERT JUMPDEST POP GAS CALL ISZERO DUP1 ISZERO PUSH2 0x128 JUMPI RETURNDATASIZE PUSH1 0x0 DUP1 RETURNDATACOPY RETURNDATASIZE PUSH1 0x0 REVERT JUMPDEST POP POP POP POP PUSH1 0x40 MLOAD RETURNDATASIZE PUSH1 0x1F NOT PUSH1 0x1F DUP3 ADD AND DUP3 ADD DUP1 PUSH1 0x40 MSTORE POP DUP2 ADD SWAP1 PUSH2 0x14C SWAP2 SWAP1 PUSH2 0x3FF JUMP JUMPDEST PUSH1 0x40 MLOAD PUSH4 0xBDCE82F PUSH1 0xE1 SHL DUP2 MSTORE PUSH1 0x4 DUP2 ADD DUP14 SWAP1 MSTORE PUSH1 0x24 DUP2 ADD DUP13 SWAP1 MSTORE SWAP1 SWAP2 POP PUSH1 0x1 PUSH1 0x1 PUSH1 0xA0 SHL SUB DUP3 AND SWAP1 PUSH4 0x17B9D05E SWAP1 PUSH1 0x44 ADD PUSH1 0x0 PUSH1 0x40 MLOAD DUP1 DUP4 SUB DUP2 PUSH1 0x0 DUP8 DUP1 EXTCODESIZE ISZERO DUP1 ISZERO PUSH2 0x198 JUMPI PUSH1 0x0 DUP1 REVERT JUMPDEST POP GAS CALL ISZERO DUP1 ISZERO PUSH2 0x1AC JUMPI RETURNDATASIZE PUSH1 0x0 DUP1 RETURNDATACOPY RETURNDATASIZE PUSH1 0x0 REVERT JUMPDEST POP POP POP POP POP POP POP POP POP POP POP POP POP POP POP JUMP JUMPDEST PUSH1 0x0 DUP1 SLOAD PUSH2 0x1D4 SWAP1 PUSH1 0x1 PUSH1 0x1 PUSH1 0xA0 SHL SUB AND DUP4 PUSH2 0x2EE JUMP JUMPDEST SWAP3 SWAP2 POP POP JUMP JUMPDEST PUSH1 0x0 DUP1 SLOAD PUSH2 0x1F1 SWAP1 PUSH1 0x1 PUSH1 0x1 PUSH1 0xA0 SHL SUB AND DUP4 PUSH2 0x35B JUMP JUMPDEST PUSH1 0x40 MLOAD PUSH4 0x54C565A3 PUSH1 0xE1 SHL DUP2 MSTORE PUSH1 0x4 DUP2 ADD DUP12 SWAP1 MSTORE PUSH1 0x1 PUSH1 0x1 PUSH1 0xA0 SHL SUB DUP11 DUP2 AND PUSH1 0x24 DUP4 ADD MSTORE DUP10 DUP2 AND PUSH1 0x44 DUP4 ADD MSTORE PUSH1 0x64 DUP3 ADD DUP10 SWAP1 MSTORE PUSH1 0x84 DUP3 ADD DUP9 SWAP1 MSTORE PUSH1 0xA4 DUP3 ADD DUP8 SWAP1 MSTORE PUSH1 0xC4 DUP3 ADD DUP7 SWAP1 MSTORE SWAP2 SWAP3 POP SWAP1 DUP3 AND SWAP1 PUSH4 0xA98ACB46 SWAP1 PUSH1 0xE4 ADD PUSH1 0x0 PUSH1 0x40 MLOAD DUP1 DUP4 SUB DUP2 PUSH1 0x0 DUP8 DUP1 EXTCODESIZE ISZERO DUP1 ISZERO PUSH2 0x263 JUMPI PUSH1 0x0 DUP1 REVERT JUMPDEST POP GAS CALL ISZERO DUP1 ISZERO PUSH2 0x277 JUMPI RETURNDATASIZE PUSH1 0x0 DUP1 RETURNDATACOPY RETURNDATASIZE PUSH1 0x0 REVERT JUMPDEST POP POP PUSH1 0x40 DUP1 MLOAD CALLER DUP2 MSTORE PUSH1 0x1 PUSH1 0x1 PUSH1 0xA0 SHL SUB DUP6 DUP2 AND PUSH1 0x20 DUP4 ADD MSTORE DUP2 DUP4 ADD DUP15 SWAP1 MSTORE DUP13 DUP2 AND PUSH1 0x60 DUP4 ADD MSTORE DUP12 AND PUSH1 0x80 DUP3 ADD MSTORE PUSH1 0xA0 DUP2 ADD DUP11 SWAP1 MSTORE PUSH1 0xC0 DUP2 ADD DUP7 SWAP1 MSTORE SWAP1 MLOAD PUSH32 0x5E2ACB8AEE19E83F63206E8FD625B2113A58E47D6986E1E5514D514F8E194110 SWAP4 POP SWAP1 DUP2 SWAP1 SUB PUSH1 0xE0 ADD SWAP2 POP LOG1 SWAP9 SWAP8 POP POP POP POP POP POP POP POP JUMP JUMPDEST PUSH1 0x0 PUSH2 0x354 DUP4 DUP4 ADDRESS PUSH1 0x40 MLOAD PUSH20 0x3D602D80600A3D3981F3363D3D373D3D3D363D73 PUSH1 0x60 SHL DUP2 MSTORE PUSH1 0x60 SWAP4 DUP5 SHL PUSH1 0x14 DUP3 ADD MSTORE PUSH16 0x5AF43D82803E903D91602B57FD5BF3FF PUSH1 0x80 SHL PUSH1 0x28 DUP3 ADD MSTORE SWAP3 SHL PUSH1 0x38 DUP4 ADD MSTORE PUSH1 0x4C DUP3 ADD MSTORE PUSH1 0x37 DUP1 DUP3 KECCAK256 PUSH1 0x6C DUP4 ADD MSTORE PUSH1 0x55 SWAP2 ADD KECCAK256 SWAP1 JUMP JUMPDEST SWAP4 SWAP3 POP POP POP JUMP JUMPDEST PUSH1 0x0 PUSH1 0x40 MLOAD PUSH20 0x3D602D80600A3D3981F3363D3D373D3D3D363D73 PUSH1 0x60 SHL DUP2 MSTORE DUP4 PUSH1 0x60 SHL PUSH1 0x14 DUP3 ADD MSTORE PUSH15 0x5AF43D82803E903D91602B57FD5BF3 PUSH1 0x88 SHL PUSH1 0x28 DUP3 ADD MSTORE DUP3 PUSH1 0x37 DUP3 PUSH1 0x0 CREATE2 SWAP2 POP POP PUSH1 0x1 PUSH1 0x1 PUSH1 0xA0 SHL SUB DUP2 AND PUSH2 0x1D4 JUMPI PUSH1 0x40 MLOAD PUSH3 0x461BCD PUSH1 0xE5 SHL DUP2 MSTORE PUSH1 0x20 PUSH1 0x4 DUP3 ADD MSTORE PUSH1 0x17 PUSH1 0x24 DUP3 ADD MSTORE PUSH32 0x455243313136373A2063726561746532206661696C6564000000000000000000 PUSH1 0x44 DUP3 ADD MSTORE PUSH1 0x64 ADD PUSH1 0x40 MLOAD DUP1 SWAP2 SUB SWAP1 REVERT JUMPDEST PUSH1 0x0 PUSH1 0x20 DUP3 DUP5 SUB SLT ISZERO PUSH2 0x411 JUMPI PUSH1 0x0 DUP1 REVERT JUMPDEST DUP2 MLOAD PUSH2 0x354 DUP2 PUSH2 0x525 JUMP JUMPDEST PUSH1 0x0 PUSH1 0x20 DUP3 DUP5 SUB SLT ISZERO PUSH2 0x42E JUMPI PUSH1 0x0 DUP1 REVERT JUMPDEST POP CALLDATALOAD SWAP2 SWAP1 POP JUMP JUMPDEST PUSH1 0x0 DUP1 PUSH1 0x0 DUP1 PUSH1 0x0 DUP1 PUSH1 0x0 DUP1 PUSH2 0x100 DUP10 DUP12 SUB SLT ISZERO PUSH2 0x452 JUMPI PUSH1 0x0 DUP1 REVERT JUMPDEST DUP9 CALLDATALOAD SWAP8 POP PUSH1 0x20 DUP10 ADD CALLDATALOAD PUSH2 0x464 DUP2 PUSH2 0x525 JUMP JUMPDEST SWAP7 POP PUSH1 0x40 DUP10 ADD CALLDATALOAD PUSH2 0x474 DUP2 PUSH2 0x525 JUMP JUMPDEST SWAP8 SWAP11 SWAP7 SWAP10 POP SWAP7 SWAP8 PUSH1 0x60 DUP2 ADD CALLDATALOAD SWAP8 POP PUSH1 0x80 DUP2 ADD CALLDATALOAD SWAP7 PUSH1 0xA0 DUP3 ADD CALLDATALOAD SWAP7 POP PUSH1 0xC0 DUP3 ADD CALLDATALOAD SWAP6 POP PUSH1 0xE0 SWAP1 SWAP2 ADD CALLDATALOAD SWAP4 POP SWAP2 POP POP JUMP JUMPDEST PUSH1 0x0 DUP1 PUSH1 0x0 DUP1 PUSH1 0x0 DUP1 PUSH1 0x0 DUP1 PUSH1 0x0 DUP1 PUSH2 0x140 DUP12 DUP14 SUB SLT ISZERO PUSH2 0x4C3 JUMPI PUSH1 0x0 DUP1 REVERT JUMPDEST DUP11 CALLDATALOAD SWAP10 POP PUSH1 0x20 DUP12 ADD CALLDATALOAD SWAP9 POP PUSH1 0x40 DUP12 ADD CALLDATALOAD SWAP8 POP PUSH1 0x60 DUP12 ADD CALLDATALOAD PUSH2 0x4E3 DUP2 PUSH2 0x525 JUMP JUMPDEST SWAP7 POP PUSH1 0x80 DUP12 ADD CALLDATALOAD PUSH2 0x4F3 DUP2 PUSH2 0x525 JUMP JUMPDEST SWAP10 SWAP13 SWAP9 SWAP12 POP SWAP7 SWAP10 SWAP6 SWAP9 SWAP8 PUSH1 0xA0 DUP8 ADD CALLDATALOAD SWAP8 POP PUSH1 0xC0 DUP8 ADD CALLDATALOAD SWAP7 PUSH1 0xE0 DUP2 ADD CALLDATALOAD SWAP7 POP PUSH2 0x100 DUP2 ADD CALLDATALOAD SWAP6 POP PUSH2 0x120 ADD CALLDATALOAD SWAP4 POP SWAP2 POP POP JUMP JUMPDEST PUSH1 0x1 PUSH1 0x1 PUSH1 0xA0 SHL SUB DUP2 AND DUP2 EQ PUSH2 0x53A JUMPI PUSH1 0x0 DUP1 REVERT JUMPDEST POP JUMP INVALID LOG2 PUSH5 0x6970667358 0x22 SLT KECCAK256 0xDF PUSH31 0x6EEC0079E25CF22AB6B5B0EA3AFDFF2332F254F13D5A46D119C76EB22C6564 PUSH20 0x6F6C634300080600330000000000000000000000 "},"gasEstimates":{"creation":{"codeDepositCost":"279000","executionCost":"infinite","totalCost":"infinite"},"external":{"campaignAddress(bytes32)":"2717","createAndPublishCampaign(bytes32,bytes32,bytes32,address,address,uint256,uint256,uint256,uint256,bytes32)":"infinite","createCampaign(bytes32,address,address,uint256,uint256,uint256,uint256,bytes32)":"infinite"}},"methodIdentifiers":{"campaignAddress(bytes32)":"6e1a1fac","createAndPublishCampaign(bytes32,bytes32,bytes32,address,address,uint256,uint256,uint256,uint256,bytes32)":"5357af3b","createCampaign(bytes32,address,address,uint256,uint256,uint256,uint256,bytes32)":"a8e0bb66"}},"storageLayout":{"storage":[{"astId":2403,"contract":"contracts/CampaignFactory.sol:CampaignFactory","label":"master","offset":0,"slot":"0","type":"t_contract(Campaign)2395"}],"types":{"t_contract(Campaign)2395":{"encoding":"inplace","label":"contract Campaign","numberOfBytes":"20"}}},"userdoc":{"kind":"user","methods":{},"version":1}}}}